{
  "contractName": "SmartPiggies",
  "abi": [
    {
      "constant": true,
      "inputs": [
        {
          "name": "interfaceId",
          "type": "bytes4"
        }
      ],
      "name": "supportsInterface",
      "outputs": [
        {
          "name": "",
          "type": "bool"
        }
      ],
      "payable": false,
      "stateMutability": "view",
      "type": "function"
    },
    {
      "constant": true,
      "inputs": [],
      "name": "tokenId",
      "outputs": [
        {
          "name": "",
          "type": "uint256"
        }
      ],
      "payable": false,
      "stateMutability": "view",
      "type": "function"
    },
    {
      "inputs": [],
      "payable": false,
      "stateMutability": "nonpayable",
      "type": "constructor"
    },
    {
      "anonymous": false,
      "inputs": [
        {
          "indexed": true,
          "name": "from",
          "type": "address"
        },
        {
          "indexed": true,
          "name": "tokenId",
          "type": "uint256"
        },
        {
          "indexed": true,
          "name": "strike",
          "type": "uint256"
        },
        {
          "indexed": false,
          "name": "expiryBlock",
          "type": "uint256"
        },
        {
          "indexed": false,
          "name": "RFP",
          "type": "bool"
        }
      ],
      "name": "CreatePiggy",
      "type": "event"
    },
    {
      "anonymous": false,
      "inputs": [
        {
          "indexed": true,
          "name": "from",
          "type": "address"
        },
        {
          "indexed": true,
          "name": "to",
          "type": "address"
        },
        {
          "indexed": true,
          "name": "tokenId",
          "type": "uint256"
        }
      ],
      "name": "TransferPiggy",
      "type": "event"
    },
    {
      "anonymous": false,
      "inputs": [
        {
          "indexed": true,
          "name": "from",
          "type": "address"
        },
        {
          "indexed": true,
          "name": "tokenId",
          "type": "uint256"
        },
        {
          "indexed": false,
          "name": "collateralERC",
          "type": "address"
        },
        {
          "indexed": false,
          "name": "premiumERC",
          "type": "address"
        },
        {
          "indexed": false,
          "name": "dataResolverNow",
          "type": "address"
        },
        {
          "indexed": false,
          "name": "dataResolverAtExpiry",
          "type": "address"
        },
        {
          "indexed": false,
          "name": "reqCollateral",
          "type": "uint256"
        },
        {
          "indexed": false,
          "name": "lotSize",
          "type": "uint256"
        },
        {
          "indexed": false,
          "name": "strikePrice",
          "type": "uint256"
        },
        {
          "indexed": false,
          "name": "expiry",
          "type": "uint256"
        },
        {
          "indexed": false,
          "name": "isEuro",
          "type": "bool"
        },
        {
          "indexed": false,
          "name": "isPut",
          "type": "bool"
        }
      ],
      "name": "UpdateRFP",
      "type": "event"
    },
    {
      "anonymous": false,
      "inputs": [
        {
          "indexed": true,
          "name": "from",
          "type": "address"
        },
        {
          "indexed": true,
          "name": "tokenId",
          "type": "uint256"
        },
        {
          "indexed": true,
          "name": "RFP",
          "type": "bool"
        }
      ],
      "name": "ReclaimAndBurn",
      "type": "event"
    },
    {
      "anonymous": false,
      "inputs": [
        {
          "indexed": true,
          "name": "from",
          "type": "address"
        },
        {
          "indexed": true,
          "name": "tokenId",
          "type": "uint256"
        },
        {
          "indexed": false,
          "name": "startPrice",
          "type": "uint256"
        },
        {
          "indexed": false,
          "name": "reservePrice",
          "type": "uint256"
        },
        {
          "indexed": false,
          "name": "auctionLength",
          "type": "uint256"
        },
        {
          "indexed": false,
          "name": "timeStep",
          "type": "uint256"
        },
        {
          "indexed": false,
          "name": "priceStep",
          "type": "uint256"
        }
      ],
      "name": "StartAuction",
      "type": "event"
    },
    {
      "anonymous": false,
      "inputs": [
        {
          "indexed": true,
          "name": "from",
          "type": "address"
        },
        {
          "indexed": true,
          "name": "tokenId",
          "type": "uint256"
        },
        {
          "indexed": true,
          "name": "RFP",
          "type": "bool"
        }
      ],
      "name": "EndAuction",
      "type": "event"
    },
    {
      "anonymous": false,
      "inputs": [
        {
          "indexed": true,
          "name": "from",
          "type": "address"
        },
        {
          "indexed": true,
          "name": "tokenId",
          "type": "uint256"
        },
        {
          "indexed": false,
          "name": "paidPremium",
          "type": "uint256"
        },
        {
          "indexed": false,
          "name": "change",
          "type": "uint256"
        },
        {
          "indexed": false,
          "name": "auctionPremium",
          "type": "uint256"
        }
      ],
      "name": "SatisfyAuction",
      "type": "event"
    },
    {
      "anonymous": false,
      "inputs": [
        {
          "indexed": true,
          "name": "feePayer",
          "type": "address"
        },
        {
          "indexed": true,
          "name": "tokenId",
          "type": "uint256"
        },
        {
          "indexed": false,
          "name": "oracleFee",
          "type": "uint256"
        },
        {
          "indexed": false,
          "name": "dataResolver",
          "type": "address"
        }
      ],
      "name": "RequestSettlementPrice",
      "type": "event"
    },
    {
      "anonymous": false,
      "inputs": [
        {
          "indexed": true,
          "name": "resolver",
          "type": "address"
        },
        {
          "indexed": true,
          "name": "tokenId",
          "type": "uint256"
        },
        {
          "indexed": true,
          "name": "price",
          "type": "uint256"
        }
      ],
      "name": "OracleReturned",
      "type": "event"
    },
    {
      "anonymous": false,
      "inputs": [
        {
          "indexed": true,
          "name": "from",
          "type": "address"
        },
        {
          "indexed": true,
          "name": "tokenId",
          "type": "uint256"
        },
        {
          "indexed": true,
          "name": "holderPayout",
          "type": "uint256"
        },
        {
          "indexed": false,
          "name": "writerPayout",
          "type": "uint256"
        }
      ],
      "name": "SettlePiggy",
      "type": "event"
    },
    {
      "anonymous": false,
      "inputs": [
        {
          "indexed": true,
          "name": "from",
          "type": "address"
        },
        {
          "indexed": true,
          "name": "amount",
          "type": "uint256"
        },
        {
          "indexed": true,
          "name": "paymentToken",
          "type": "address"
        }
      ],
      "name": "ClaimPayout",
      "type": "event"
    },
    {
      "constant": false,
      "inputs": [
        {
          "name": "_collateralERC",
          "type": "address"
        },
        {
          "name": "_premiumERC",
          "type": "address"
        },
        {
          "name": "_dataResolverNow",
          "type": "address"
        },
        {
          "name": "_dataResolverAtExpiry",
          "type": "address"
        },
        {
          "name": "_collateral",
          "type": "uint256"
        },
        {
          "name": "_lotSize",
          "type": "uint256"
        },
        {
          "name": "_strikePrice",
          "type": "uint256"
        },
        {
          "name": "_expiry",
          "type": "uint256"
        },
        {
          "name": "_isEuro",
          "type": "bool"
        },
        {
          "name": "_isPut",
          "type": "bool"
        },
        {
          "name": "_isRequest",
          "type": "bool"
        }
      ],
      "name": "createPiggy",
      "outputs": [
        {
          "name": "",
          "type": "bool"
        }
      ],
      "payable": false,
      "stateMutability": "nonpayable",
      "type": "function"
    },
    {
      "constant": true,
      "inputs": [
        {
          "name": "_tokenId",
          "type": "uint256"
        }
      ],
      "name": "getDetails",
      "outputs": [
        {
          "components": [
            {
              "components": [
                {
                  "name": "writer",
                  "type": "address"
                },
                {
                  "name": "holder",
                  "type": "address"
                },
                {
                  "name": "collateralERC",
                  "type": "address"
                },
                {
                  "name": "premiumERC",
                  "type": "address"
                },
                {
                  "name": "dataResolverNow",
                  "type": "address"
                },
                {
                  "name": "dataResolverAtExpiry",
                  "type": "address"
                }
              ],
              "name": "addresses",
              "type": "tuple"
            },
            {
              "components": [
                {
                  "name": "collateral",
                  "type": "uint256"
                },
                {
                  "name": "lotSize",
                  "type": "uint256"
                },
                {
                  "name": "strikePrice",
                  "type": "uint256"
                },
                {
                  "name": "expiry",
                  "type": "uint256"
                },
                {
                  "name": "settlementPrice",
                  "type": "uint256"
                },
                {
                  "name": "reqCollateral",
                  "type": "uint256"
                },
                {
                  "name": "collateralDecimals",
                  "type": "uint8"
                }
              ],
              "name": "uintDetails",
              "type": "tuple"
            },
            {
              "components": [
                {
                  "name": "isRequest",
                  "type": "bool"
                },
                {
                  "name": "isEuro",
                  "type": "bool"
                },
                {
                  "name": "isPut",
                  "type": "bool"
                },
                {
                  "name": "hasBeenCleared",
                  "type": "bool"
                }
              ],
              "name": "flags",
              "type": "tuple"
            }
          ],
          "name": "",
          "type": "tuple"
        }
      ],
      "payable": false,
      "stateMutability": "view",
      "type": "function"
    },
    {
      "constant": true,
      "inputs": [
        {
          "name": "_tokenId",
          "type": "uint256"
        }
      ],
      "name": "getAuctionDetails",
      "outputs": [
        {
          "components": [
            {
              "name": "startBlock",
              "type": "uint256"
            },
            {
              "name": "expiryBlock",
              "type": "uint256"
            },
            {
              "name": "startPrice",
              "type": "uint256"
            },
            {
              "name": "reservePrice",
              "type": "uint256"
            },
            {
              "name": "timeStep",
              "type": "uint256"
            },
            {
              "name": "priceStep",
              "type": "uint256"
            },
            {
              "name": "auctionActive",
              "type": "bool"
            },
            {
              "name": "satisfyInProgress",
              "type": "bool"
            }
          ],
          "name": "",
          "type": "tuple"
        }
      ],
      "payable": false,
      "stateMutability": "view",
      "type": "function"
    },
    {
      "constant": true,
      "inputs": [
        {
          "name": "_owner",
          "type": "address"
        }
      ],
      "name": "getOwnedPiggies",
      "outputs": [
        {
          "name": "",
          "type": "uint256[]"
        }
      ],
      "payable": false,
      "stateMutability": "view",
      "type": "function"
    },
    {
      "constant": true,
      "inputs": [
        {
          "name": "_owner",
          "type": "address"
        },
        {
          "name": "_erc20",
          "type": "address"
        }
      ],
      "name": "getERC20balance",
      "outputs": [
        {
          "name": "",
          "type": "uint256"
        }
      ],
      "payable": false,
      "stateMutability": "view",
      "type": "function"
    },
    {
      "constant": false,
      "inputs": [
        {
          "name": "_from",
          "type": "address"
        },
        {
          "name": "_to",
          "type": "address"
        },
        {
          "name": "_tokenId",
          "type": "uint256"
        }
      ],
      "name": "transferFrom",
      "outputs": [],
      "payable": false,
      "stateMutability": "nonpayable",
      "type": "function"
    },
    {
      "constant": false,
      "inputs": [
        {
          "name": "_tokenId",
          "type": "uint256"
        },
        {
          "name": "_collateralERC",
          "type": "address"
        },
        {
          "name": "_premiumERC",
          "type": "address"
        },
        {
          "name": "_dataResolverNow",
          "type": "address"
        },
        {
          "name": "_dataResolverAtExpiry",
          "type": "address"
        },
        {
          "name": "_reqCollateral",
          "type": "uint256"
        },
        {
          "name": "_lotSize",
          "type": "uint256"
        },
        {
          "name": "_strikePrice",
          "type": "uint256"
        },
        {
          "name": "_expiry",
          "type": "uint256"
        },
        {
          "name": "_isEuro",
          "type": "bool"
        },
        {
          "name": "_isPut",
          "type": "bool"
        }
      ],
      "name": "updateRFP",
      "outputs": [
        {
          "name": "",
          "type": "bool"
        }
      ],
      "payable": false,
      "stateMutability": "nonpayable",
      "type": "function"
    },
    {
      "constant": false,
      "inputs": [
        {
          "name": "_tokenId",
          "type": "uint256"
        }
      ],
      "name": "reclaimAndBurn",
      "outputs": [
        {
          "name": "",
          "type": "bool"
        }
      ],
      "payable": false,
      "stateMutability": "nonpayable",
      "type": "function"
    },
    {
      "constant": false,
      "inputs": [
        {
          "name": "_tokenId",
          "type": "uint256"
        },
        {
          "name": "_startPrice",
          "type": "uint256"
        },
        {
          "name": "_reservePrice",
          "type": "uint256"
        },
        {
          "name": "_auctionLength",
          "type": "uint256"
        },
        {
          "name": "_timeStep",
          "type": "uint256"
        },
        {
          "name": "_priceStep",
          "type": "uint256"
        }
      ],
      "name": "startAuction",
      "outputs": [
        {
          "name": "",
          "type": "bool"
        }
      ],
      "payable": false,
      "stateMutability": "nonpayable",
      "type": "function"
    },
    {
      "constant": false,
      "inputs": [
        {
          "name": "_tokenId",
          "type": "uint256"
        }
      ],
      "name": "endAuction",
      "outputs": [
        {
          "name": "",
          "type": "bool"
        }
      ],
      "payable": false,
      "stateMutability": "nonpayable",
      "type": "function"
    },
    {
      "constant": false,
      "inputs": [
        {
          "name": "_tokenId",
          "type": "uint256"
        }
      ],
      "name": "satisfyAuction",
      "outputs": [
        {
          "name": "",
          "type": "bool"
        }
      ],
      "payable": false,
      "stateMutability": "nonpayable",
      "type": "function"
    },
    {
      "constant": false,
      "inputs": [
        {
          "name": "_tokenId",
          "type": "uint256"
        },
        {
          "name": "_oracleFee",
          "type": "uint256"
        }
      ],
      "name": "requestSettlementPrice",
      "outputs": [
        {
          "name": "",
          "type": "bool"
        }
      ],
      "payable": false,
      "stateMutability": "nonpayable",
      "type": "function"
    },
    {
      "constant": false,
      "inputs": [
        {
          "name": "_tokenId",
          "type": "uint256"
        },
        {
          "name": "_price",
          "type": "uint256"
        }
      ],
      "name": "_callback",
      "outputs": [],
      "payable": false,
      "stateMutability": "nonpayable",
      "type": "function"
    },
    {
      "constant": false,
      "inputs": [
        {
          "name": "_tokenId",
          "type": "uint256"
        }
      ],
      "name": "settlePiggy",
      "outputs": [
        {
          "name": "",
          "type": "bool"
        }
      ],
      "payable": false,
      "stateMutability": "nonpayable",
      "type": "function"
    },
    {
      "constant": false,
      "inputs": [
        {
          "name": "_paymentToken",
          "type": "address"
        },
        {
          "name": "_amount",
          "type": "uint256"
        }
      ],
      "name": "claimPayout",
      "outputs": [
        {
          "name": "",
          "type": "bool"
        }
      ],
      "payable": false,
      "stateMutability": "nonpayable",
      "type": "function"
    },
    {
      "constant": false,
      "inputs": [],
      "name": "kill",
      "outputs": [],
      "payable": false,
      "stateMutability": "nonpayable",
      "type": "function"
    }
  ],
  "bytecode": "0x60806040523480156200001157600080fd5b50620000467f01ffc9a7000000000000000000000000000000000000000000000000000000006401000000006200005e810204565b60018054600160a060020a03191633179055620000cb565b7fffffffff0000000000000000000000000000000000000000000000000000000080821614156200008e57600080fd5b7fffffffff00000000000000000000000000000000000000000000000000000000166000908152602081905260409020805460ff19166001179055565b613e7d80620000db6000396000f3fe608060405234801561001057600080fd5b5060043610610133576000357c010000000000000000000000000000000000000000000000000000000090048063685b8b40116100bf578063b93a89f71161008e578063b93a89f71461024b578063b9a2de3a1461026b578063bbecae151461027e578063f20e5e3514610291578063fff6fe5a146102b157610133565b8063685b8b40146101f25780636f83bc0f1461020557806388fed58514610218578063abf11d6e1461023857610133565b806325a948e51161010657806325a948e51461019e5780632617ee78146101b15780632894209f146101c457806341c0e1b5146101d757806359af508c146101df57610133565b806301ffc9a71461013857806317d70f7c146101615780631a2fcc8b1461017657806323b872dd14610189575b600080fd5b61014b610146366004612ab0565b6102c4565b6040516101589190613a86565b60405180910390f35b6101696102ff565b6040516101589190613d22565b61014b610184366004612a62565b610305565b61019c610197366004612a15565b610517565b005b6101696101ac3660046128ed565b610563565b61014b6101bf366004612927565b6105bc565b61014b6101d2366004612ace565b6108c7565b61019c610b52565b61014b6101ed366004612ace565b610b77565b61014b610200366004612ba3565b610d69565b61014b610213366004612aec565b610f6a565b61022b6102263660046128cf565b611241565b6040516101589190613a75565b61019c610246366004612ba3565b6112d8565b61025e610259366004612ace565b6113d4565b6040516101589190613d13565b61014b610279366004612ace565b6114ff565b61014b61028c366004612bc2565b6116da565b6102a461029f366004612ace565b611903565b6040516101589190613d04565b61014b6102bf366004612ace565b611980565b7fffffffff00000000000000000000000000000000000000000000000000000000811660009081526020819052604090205460ff165b919050565b60025481565b336000908152600360209081526040808320600160a060020a03861684529091528120548211156103545760405160e560020a62461bcd02815260040161034b90613b54565b60405180910390fd5b336000908152600360209081526040808320600160a060020a0387168452909152902054610388908363ffffffff611e7816565b336000818152600360209081526040808320600160a060020a03891680855292528083209490945592519092916103c3918690602401613983565b60408051601f198184030181529181526020820180517bffffffffffffffffffffffffffffffffffffffffffffffffffffffff167fa9059cbb0000000000000000000000000000000000000000000000000000000017815290518251909182918083835b602083106104465780518252601f199092019160209182019101610427565b6001836020036101000a0380198251168184511680821785525050505050509050019150506000604051808303816000865af19150503d80600081146104a8576040519150601f19603f3d011682016040523d82523d6000602084013e6104ad565b606091505b505090508015156104d35760405160e560020a62461bcd02815260040161034b90613aa4565b604051600160a060020a03851690849033907f7b456c79443b1e226ff616818ce3708f317376cb1094cd5d65a55e51ece25bd290600090a460019150505b92915050565b600081815260066020526040902060010154600160a060020a031633146105535760405160e560020a62461bcd02815260040161034b90613cf4565b61055e838383611e8d565b505050565b6000600160a060020a03831615156105905760405160e560020a62461bcd02815260040161034b90613be4565b50600160a060020a03918216600090815260036020908152604080832093909416825291909152205490565b6000600160a060020a038c16158015906105de5750600160a060020a038b1615155b80156105f25750600160a060020a038a1615155b80156106065750600160a060020a03891615155b15156106275760405160e560020a62461bcd02815260040161034b90613a94565b871580159061063557508615155b801561064057508515155b801561064b57508415155b151561066c5760405160e560020a62461bcd02815260040161034b90613c04565b8115156106a75760006106818d33308c611f77565b90508015156106a55760405160e560020a62461bcd02815260040161034b90613b94565b505b6002546106bb90600163ffffffff61209216565b60028190555060006006600060025481526020019081526020016000209050338160000160010160006101000a815481600160a060020a030219169083600160a060020a031602179055508c8160000160020160006101000a815481600160a060020a030219169083600160a060020a031602179055508b8160000160030160006101000a815481600160a060020a030219169083600160a060020a031602179055508a8160000160040160006101000a815481600160a060020a030219169083600160a060020a03160217905550898160000160050160006101000a815481600160a060020a030219169083600160a060020a031602179055506107bf8d6120ab565b600c8201805460ff191660ff9290921691909117905560078101889055600881018790556107ed8643612092565b6009820155600d8101805461ff001916610100871515021762ff0000191662010000861515021760ff1916841580159190911790915561083357600b8101899055610858565b805473ffffffffffffffffffffffffffffffffffffffff191633178155600681018990555b61086433600254612240565b6002548790337faa2032c3a05e7293eec92b9f41cfe70d5d753b29790a3f2cdeace3d6f5c9b74961089b8a4363ffffffff61209216565b876040516108aa929190613d4b565b60405180910390a460019150505b9b9a5050505050505050505050565b60003315156108eb5760405160e560020a62461bcd02815260040161034b90613c34565b81151561090d5760405160e560020a62461bcd02815260040161034b90613bd4565b6000828152600660205260409020600d01546301000000900460ff16151561094a5760405160e560020a62461bcd02815260040161034b90613b84565b6000828152600660205260408120600d0154610100900460ff161561099d5760008381526006602052604090206009015443101561099d5760405160e560020a62461bcd02815260040161034b90613cd4565b6000838152600660205260409020600d810154600a82015460088301546007840154600c909401546109dd9460ff6201000090950485169490911661227e565b60008481526006602081905260409091208054600182015460028301549290930154939450600160a060020a039081169392811692911690841115610a32576000868152600660208190526040909120015493505b600160a060020a03808316600090815260036020908152604080832093851683529290522054610a68908563ffffffff61209216565b600160a060020a038084166000908152600360209081526040808320938616835292815282822093909355888152600692839052200154610aaf908563ffffffff611e7816565b600160a060020a0380851660009081526003602090815260408083209386168352928152828220939093558881526006928390522001548490879033907f24827fe6f8d4089bee240c9fb4b9fb5a994e34610b00aeb4cfc427f4807cca1a90610b1e908563ffffffff611e7816565b604051610b2b9190613d22565b60405180910390a4610b3d8287612300565b610b46866123f7565b50600195945050505050565b600154600160a060020a03163314610b6957600080fd5b600154600160a060020a0316ff5b600081815260066020526040812060010154600160a060020a03163314610bb35760405160e560020a62461bcd02815260040161034b90613c24565b60008281526007602052604090206006015460ff1615610be85760405160e560020a62461bcd02815260040161034b90613ba4565b6000828152600660205260409020600d015460ff161515610cef57600082815260066020526040902054600160a060020a03163314610c3c5760405160e560020a62461bcd02815260040161034b90613c94565b600082815260066020819052604091829020600281015491015491517fa9059cbb000000000000000000000000000000000000000000000000000000008152600160a060020a039091169163a9059cbb91610c9b91339160040161399e565b602060405180830381600087803b158015610cb557600080fd5b505af1158015610cc9573d6000803e3d6000fd5b505050506040513d601f19601f82011682018060405250610ced9190810190612a92565b505b600082815260066020526040808220600d0154905160ff909116151591849133917f6d36d64725ed2ba6d5b45497a83b141bc51d4803efaa99039162496e7f7465c291a4600082815260066020526040902060010154610d5890600160a060020a031683612300565b610d61826123f7565b506001919050565b6000331515610d8d5760405160e560020a62461bcd02815260040161034b90613c14565b60008381526007602052604090206006015460ff1615610dc25760405160e560020a62461bcd02815260040161034b90613cb4565b6000838152600660205260409020600d01546301000000900460ff1615610dfe5760405160e560020a62461bcd02815260040161034b90613bf4565b821515610e205760405160e560020a62461bcd02815260040161034b90613b14565b811515610e425760405160e560020a62461bcd02815260040161034b90613ab4565b6000838152600660205260409020600d0154610100900460ff1615610e7f57600083815260066020526040902060090154431015610e7f57600080fd5b6000838152600660205260408120600d0154610100900460ff1680610eb4575060008481526006602052604090206009015443115b15610eda5750600083815260066020526040902060050154600160a060020a0316610f33565b600084815260066020526040902060010154600160a060020a03163314610f165760405160e560020a62461bcd02815260040161034b90613cc4565b50600083815260066020526040902060040154600160a060020a03165b610f3f8133858761249d565b1515610f605760405160e560020a62461bcd02815260040161034b90613c64565b5060019392505050565b60008b815260066020526040812060010154600160a060020a03163314610fa65760405160e560020a62461bcd02815260040161034b90613ad4565b60008c8152600660205260409020600d015460ff161515610fdc5760405160e560020a62461bcd02815260040161034b90613ce4565b6000600160a060020a038c16156110255760008d8152600660205260409020600201805473ffffffffffffffffffffffffffffffffffffffff1916600160a060020a038e161790555b600160a060020a038b161561106c5760008d8152600660205260409020600301805473ffffffffffffffffffffffffffffffffffffffff1916600160a060020a038d161790555b600160a060020a038a16156110b35760008d8152600660205260409020600401805473ffffffffffffffffffffffffffffffffffffffff1916600160a060020a038c161790555b600160a060020a038916156110fa5760008d8152600660205260409020600501805473ffffffffffffffffffffffffffffffffffffffff1916600160a060020a038b161790555b87156111155760008d8152600660205260409020600b018890555b86156111305760008d81526006602052604090206007018790555b851561114b5760008d81526006602052604090206008018690555b841561117857611161854363ffffffff61209216565b60008e815260066020526040902060090181905590505b83600660008f8152602001908152602001600020600d0160000160016101000a81548160ff02191690831515021790555082600660008f8152602001908152602001600020600d0160000160026101000a81548160ff0219169083151502179055508c33600160a060020a03167f9cb9db39ba4b88876ce74e5752ff81841af649bf00d0c275cc0c4d7ceae2ba1e8e8e8e8e8e8e8e8a8e8e6040516112269a999897969594939291906139ac565b60405180910390a35060019c9b505050505050505050505050565b6060600160a060020a038216151561126e5760405160e560020a62461bcd02815260040161034b90613be4565b600160a060020a038216600090815260046020908152604091829020805483518184028101840190945280845290918301828280156112cc57602002820191906000526020600020905b8154815260200190600101908083116112b8575b50505050509050919050565b6000828152600660205260408120600d0154610100900460ff168061130d575060008381526006602052604090206009015443115b156113335750600082815260066020526040902060050154600160a060020a0316611350565b50600082815260066020526040902060040154600160a060020a03165b33600160a060020a0382161461137b5760405160e560020a62461bcd02815260040161034b90613af4565b600083815260066020526040808220600a8101859055600d01805463ff00000019166301000000179055518391859133917f09501576903c44a3f43eebbcee4603f6664e6f88e6d9943eb95c26f890b0353991a4505050565b6113dc612733565b506000908152600660208181526040928390208351610120810185528154600160a060020a039081166060808401918252600185015483166080808601919091526002860154841660a0808701919091526003870154851660c0808801919091526004880154861660e0808901919091526005890154909616610100808901919091529487528a519586018b529887015485526007870154858901526008870154858b0152600987015485840152600a87015485830152600b87015490850152600c86015460ff908116988501989098528487019390935287519283018852600d90940154808716151583529081048616151594820194909452620100008404851615158187015263010000009093049093161515908201529181019190915290565b600081815260066020526040812060010154600160a060020a0316331461153b5760405160e560020a62461bcd02815260040161034b90613b24565b60008281526007602052604090206006015460ff1615156115715760405160e560020a62461bcd02815260040161034b90613c74565b600082815260076020526040902060060154610100900460ff16156115ab5760405160e560020a62461bcd02815260040161034b90613b04565b6000828152600660205260409020600d015460ff16156116855760008281526007602090815260408083206003908101546006909352928190209092015491517fa9059cbb0000000000000000000000000000000000000000000000000000000081529091600160a060020a03169063a9059cbb90611630903390859060040161399e565b602060405180830381600087803b15801561164a57600080fd5b505af115801561165e573d6000803e3d6000fd5b505050506040513d601f19601f820116820180604052506116829190810190612a92565b50505b61168e8261261f565b600082815260066020526040808220600d0154905160ff909116151591849133917f1b263718a9da58fd8fbc3c9f97a9f04b73318dd5d4d7e4f921f639dd5f0c233b91a4506001919050565b6000806116ed438663ffffffff61209216565b600089815260066020526040902060010154909150600160a060020a0316331461172c5760405160e560020a62461bcd02815260040161034b90613b24565b600088815260066020526040902060090154431061175f5760405160e560020a62461bcd02815260040161034b90613c44565b60008881526006602052604090206009015481106117925760405160e560020a62461bcd02815260040161034b90613c84565b6000888152600660205260409020600d01546301000000900460ff16156117ce5760405160e560020a62461bcd02815260040161034b90613ae4565b60008881526007602052604090206006015460ff16156118035760405160e560020a62461bcd02815260040161034b90613b74565b6000888152600660205260409020600d015460ff161561186a5760008881526006602052604081206003015461184490600160a060020a031633308a611f77565b90508015156118685760405160e560020a62461bcd02815260040161034b90613b34565b505b600088815260076020526040908190204381556001808201849055600282018a90556003820189905560048201879055600582018690556006909101805460ff1916909117905551889033907f88a665277b4dcf78a761227e836d2b9c98169b818abf80cb4297114cb71a019f906118eb908b908b908b908b908b90613d8f565b60405180910390a360019150505b9695505050505050565b61190b612767565b5060009081526007602090815260409182902082516101008082018552825482526001830154938201939093526002820154938101939093526003810154606084015260048101546080840152600581015460a08401526006015460ff808216151560c085015291900416151560e082015290565b600081815260076020526040812060060154610100900460ff16156119ba5760405160e560020a62461bcd02815260040161034b90613b64565b600082815260066020526040902060010154600160a060020a03163314156119f75760405160e560020a62461bcd02815260040161034b90613ac4565b60008281526007602052604090206006015460ff161515611a2d5760405160e560020a62461bcd02815260040161034b90613b44565b600082815260076020526040902060010154431115611a5757611a4f8261261f565b5060006102fa565b6000611a6283612661565b60008481526007602090815260408083206006908101805461ff0019166101001790559091529020600d015490915060ff1615611d505760008381526006602052604081206002810154600b90910154611ac991600160a060020a03169033903090611f77565b9050801515611af4575050506000818152600760205260408120600601805461ff00191690556102fa565b6000848152600660208181526040808420600b810154930192909255600790528120600301548390811115611b3b5750600085815260076020526040902060030154611b60565b600086815260076020526040902060030154611b5d908263ffffffff611e7816565b91505b600086815260066020526040908190206003015490517fa9059cbb000000000000000000000000000000000000000000000000000000008152600160a060020a039091169063a9059cbb90611bbb903390859060040161399e565b602060405180830381600087803b158015611bd557600080fd5b505af1158015611be9573d6000803e3d6000fd5b505050506040513d601f19601f82011682018060405250611c0d9190810190612a92565b506000821115611cce5760008681526006602052604090819020600381015460019091015491517fa9059cbb000000000000000000000000000000000000000000000000000000008152600160a060020a039182169263a9059cbb92611c7a929116908690600401613983565b602060405180830381600087803b158015611c9457600080fd5b505af1158015611ca8573d6000803e3d6000fd5b505050506040513d601f19601f82011682018060405250611ccc9190810190612a92565b505b60008681526006602052604090819020600d8101805460ff19169055805473ffffffffffffffffffffffffffffffffffffffff19163390811790915590518791907f5f96074f1a6f13e028fea4b54d89ce40af34737ec917ab068e618b51c43415ff90611d4090859087908a90613d81565b60405180910390a3505050611e4e565b6000838152600760205260409020600301548190811015611d7f57506000838152600760205260409020600301545b60008481526006602052604081206003810154600190910154611db191600160a060020a039081169133911685611f77565b9050801515611dde575050506000828152600760205260408120600601805461ff001916905590506102fa565b600085815260066020526040902060010154611e0490600160a060020a03163387611e8d565b8433600160a060020a03167f5f96074f1a6f13e028fea4b54d89ce40af34737ec917ab068e618b51c43415ff84600087604051611e4393929190613d66565b60405180910390a350505b611e578361261f565b50506000908152600760205260409020600601805461ff0019169055600190565b600082821115611e8757600080fd5b50900390565b600081815260066020526040902060010154600160a060020a03848116911614611ecc5760405160e560020a62461bcd02815260040161034b90613bc4565b600160a060020a0382161515611ef75760405160e560020a62461bcd02815260040161034b90613c54565b611f018382612300565b611f0b8282612240565b600081815260066020526040808220600101805473ffffffffffffffffffffffffffffffffffffffff1916600160a060020a0386811691821790925591518493918716917f71bf9544ab5405f66022054c1753722fc8011fcea0317b8c57b43cfbf9f44dd891a4505050565b60008085600160a060020a0316858585604051602401611f9993929190613a32565b60408051601f198184030181529181526020820180517bffffffffffffffffffffffffffffffffffffffffffffffffffffffff167f23b872dd0000000000000000000000000000000000000000000000000000000017815290518251909182918083835b6020831061201c5780518252601f199092019160209182019101611ffd565b6001836020036101000a0380198251168184511680821785525050505050509050019150506000604051808303816000865af19150503d806000811461207e576040519150601f19603f3d011682016040523d82523d6000602084013e612083565b606091505b5090925050505b949350505050565b6000828201838110156120a457600080fd5b9392505050565b60408051600481526024810182526020810180517bffffffffffffffffffffffffffffffffffffffffffffffffffffffff167f313ce56700000000000000000000000000000000000000000000000000000000178152915181516000938493606093600160a060020a03881693919290918291908083835b602083106121425780518252601f199092019160209182019101612123565b6001836020036101000a0380198251168184511680821785525050505050509050019150506000604051808303816000865af19150503d80600081146121a4576040519150601f19603f3d011682016040523d82523d6000602084013e6121a9565b606091505b50915091508115156121d05760405160e560020a62461bcd02815260040161034b90613ca4565b6000805b8251811015612237578060010183510360080260020a83828151811015156121f857fe5b6020910101517f01000000000000000000000000000000000000000000000000000000000000009081900481020460ff160291909101906001016121d4565b50949350505050565b600160a060020a0390911660009081526004602081815260408084208054868652600584529185208290559282526001810183559183529091200155565b600085801561228c57508484115b156122a4576122a1848663ffffffff611e7816565b90505b851580156122b157508385115b156122c9576122c6858563ffffffff611e7816565b90505b6118f960646122f4856122e88560ff8816600a0a63ffffffff6126e416565b9063ffffffff6126e416565b9063ffffffff61270f16565b600160a060020a03821660009081526004602052604081205461232a90600163ffffffff611e7816565b6000838152600560205260409020549091508082146123c757600160a060020a038416600090815260046020526040812080548490811061236757fe5b90600052602060002001549050806004600087600160a060020a0316600160a060020a03168152602001908152602001600020838154811015156123a757fe5b600091825260208083209091019290925591825260059052604090208190555b600160a060020a03841660009081526004602052604090208054906123f09060001983016127b1565b5050505050565b60009081526006602081905260408220805473ffffffffffffffffffffffffffffffffffffffff199081168255600182018054821690556002820180548216905560038201805482169055600482018054821690556005820180549091169055908101829055600781018290556008810182905560098101829055600a8101829055600b810191909155600c8101805460ff19169055600d01805463ffffffff19169055565b60008085600160a060020a03168585856040516024016124bf93929190613a5a565b60408051601f198184030181529181526020820180517bffffffffffffffffffffffffffffffffffffffffffffffffffffffff167f1aa8ccc90000000000000000000000000000000000000000000000000000000017815290518251909182918083835b602083106125425780518252601f199092019160209182019101612523565b6001836020036101000a0380198251168184511680821785525050505050509050019150506000604051808303816000865af19150503d80600081146125a4576040519150601f19603f3d011682016040523d82523d6000602084013e6125a9565b606091505b505090508015156125cf5760405160e560020a62461bcd02815260040161034b90613bb4565b8285600160a060020a03167f6e9f88567c24566f7654186f0a7171f7c85eff316314402531824e2d1e2b1675868960405161260b929190613d30565b60405180910390a350600195945050505050565b6000908152600760205260408120818155600181018290556002810182905560038101829055600481018290556005810191909155600601805460ff19169055565b600081815260076020526040812060028101546004820154600583015492549192849261269e92916122f4916122e890439063ffffffff611e7816565b6000858152600660205260409020600d015490915060ff16156126d4576126cb828263ffffffff61209216565b925050506102fa565b6126cb828263ffffffff611e7816565b60008215156126f557506000610511565b82820282848281151561270457fe5b04146120a457600080fd5b600080821161271d57600080fd5b6000828481151561272a57fe5b04949350505050565b610220604051908101604052806127486127d5565b815260200161275561280a565b815260200161276261284b565b905290565b610100604051908101604052806000815260200160008152602001600081526020016000815260200160008152602001600081526020016000151581526020016000151581525090565b81548183558181111561055e5760008381526020902061055e918101908301612872565b6040805160c081018252600080825260208201819052918101829052606081018290526080810182905260a081019190915290565b60e060405190810160405280600081526020016000815260200160008152602001600081526020016000815260200160008152602001600060ff1681525090565b60408051608081018252600080825260208201819052918101829052606081019190915290565b61289091905b8082111561288c5760008155600101612878565b5090565b90565b60006120a48235613ddb565b60006120a48235613de6565b60006120a48251613de6565b60006120a48235613dfd565b60006120a48235612890565b6000602082840312156128e157600080fd5b600061208a8484612893565b6000806040838503121561290057600080fd5b600061290c8585612893565b925050602061291d85828601612893565b9150509250929050565b60008060008060008060008060008060006101608c8e03121561294957600080fd5b60006129558e8e612893565b9b505060206129668e828f01612893565b9a505060406129778e828f01612893565b99505060606129888e828f01612893565b98505060806129998e828f016128c3565b97505060a06129aa8e828f016128c3565b96505060c06129bb8e828f016128c3565b95505060e06129cc8e828f016128c3565b9450506101006129de8e828f0161289f565b9350506101206129f08e828f0161289f565b925050610140612a028e828f0161289f565b9150509295989b509295989b9093969950565b600080600060608486031215612a2a57600080fd5b6000612a368686612893565b9350506020612a4786828701612893565b9250506040612a58868287016128c3565b9150509250925092565b60008060408385031215612a7557600080fd5b6000612a818585612893565b925050602061291d858286016128c3565b600060208284031215612aa457600080fd5b600061208a84846128ab565b600060208284031215612ac257600080fd5b600061208a84846128b7565b600060208284031215612ae057600080fd5b600061208a84846128c3565b60008060008060008060008060008060006101608c8e031215612b0e57600080fd5b6000612b1a8e8e6128c3565b9b50506020612b2b8e828f01612893565b9a50506040612b3c8e828f01612893565b9950506060612b4d8e828f01612893565b9850506080612b5e8e828f01612893565b97505060a0612b6f8e828f016128c3565b96505060c0612b808e828f016128c3565b95505060e0612b918e828f016128c3565b9450506101006129de8e828f016128c3565b60008060408385031215612bb657600080fd5b6000612a8185856128c3565b60008060008060008060c08789031215612bdb57600080fd5b6000612be789896128c3565b9650506020612bf889828a016128c3565b9550506040612c0989828a016128c3565b9450506060612c1a89828a016128c3565b9350506080612c2b89828a016128c3565b92505060a0612c3c89828a016128c3565b9150509295509295509295565b612c5281613e22565b82525050565b612c5281613ddb565b6000612c6c82613dd7565b808452602084019350612c7e83613dd1565b60005b82811015612cae57612c94868351613971565b612c9d82613dd1565b602096909601959150600101612c81565b5093949350505050565b612c5281613de6565b612c5281613e2d565b601881527f6164647265737365732063616e6e6f74206265207a65726f0000000000000000602082015260400190565b601b81527f455243323020746f6b656e207472616e73666572206661696c65640000000000602082015260400190565b601981527f6f7261636c65206665652063616e6e6f74206265207a65726f00000000000000602082015260400190565b603781527f63616e6e6f74207361746973667920796f7572206f776e2061756374696f6e3b60208201527f2075736520656e6441756374696f6e20696e7374656164000000000000000000604082015260600190565b602181527f796f75206d757374206f776e207468652052465020746f20757064617465206960208201527f7400000000000000000000000000000000000000000000000000000000000000604082015260600190565b601f81527f6f7074696f6e2063616e6e6f742068617665206265656e20636c656172656400602082015260400190565b601f81527f7265736f6c7665206164647265737320776173206e6f7420636f727265637400602082015260400190565b603381527f61756374696f6e2063616e6e6f7420626520696e207468652070726f6365737360208201527f206f66206265696e672073617469736669656400000000000000000000000000604082015260600190565b601781527f5f746f6b656e49642063616e6e6f74206265207a65726f000000000000000000602082015260400190565b602281527f796f75206d757374206f776e206120746f6b656e20746f2061756374696f6e2060208201527f6974000000000000000000000000000000000000000000000000000000000000604082015260600190565b60208082527f7472616e7366657246726f6d20646964206e6f742072657475726e20747275659082015260400190565b602481527f61756374696f6e206d7573742062652061637469766520746f2073617469736660208201527f7920697400000000000000000000000000000000000000000000000000000000604082015260600190565b602b81527f45524332302062616c616e6365206973206c657373207468616e20726571756560208201527f7374656420616d6f756e74000000000000000000000000000000000000000000604082015260600190565b603481527f63616e6e6f74207265656e74657220746869732066756e6374696f6e2077686960208201527f6c6520697420697320696e2070726f6772657373000000000000000000000000604082015260600190565b602181527f61756374696f6e2063616e6e6f7420616c72656164792062652072756e6e696e60208201527f6700000000000000000000000000000000000000000000000000000000000000604082015260600190565b602681527f706967677920686173206e6f7420726563656976656420616e206f7261636c6560208201527f2070726963650000000000000000000000000000000000000000000000000000604082015260600190565b601f81527f546f6b656e207472616e7366657220646964206e6f7420636f6d706c65746500602082015260400190565b602b81527f796f752063616e6e6f74206275726e206120746f6b656e20776869636820697360208201527f206f6e2061756374696f6e000000000000000000000000000000000000000000604082015260600190565b602181527f6665746368207375636365737320646964206e6f742072657475726e2074727560208201527f6500000000000000000000000000000000000000000000000000000000000000604082015260600190565b601d81527f66726f6d2061646472657373206973206e6f7420746865206f776e6572000000602082015260400190565b601681527f746f6b656e49642063616e6e6f74206265207a65726f00000000000000000000602082015260400190565b601681527f616464726573732063616e6e6f74206265207a65726f00000000000000000000602082015260400190565b601e81527f746f6b656e2068617320616c7265616479206265656e20636c65617265640000602082015260400190565b60208082527f6f7074696f6e20706172616d65746572732063616e6e6f74206265207a65726f9082015260400190565b602181527f73656e6465722063616e6e6f7420626520746865207a65726f2061646472657360208201527f7300000000000000000000000000000000000000000000000000000000000000604082015260600190565b602181527f796f75206d757374206f776e2074686520746f6b656e20746f206275726e206960208201527f7400000000000000000000000000000000000000000000000000000000000000604082015260600190565b601981527f6d73672e73656e6465722063616e6e6f74206265207a65726f00000000000000602082015260400190565b601a81527f6f7074696f6e206d757374206e6f742062652065787069726564000000000000602082015260400190565b601281527f746f2061646472657373206973207a65726f0000000000000000000000000000602082015260400190565b602481527f63616c6c20746f207265736f6c76657220646964206e6f742072657475726e2060208201527f7472756500000000000000000000000000000000000000000000000000000000604082015260600190565b602381527f61756374696f6e206d7573742062652061637469766520746f2063616e63656c60208201527f2069740000000000000000000000000000000000000000000000000000000000604082015260600190565b602681527f61756374696f6e2063616e6e6f7420657870697265206166746572207468652060208201527f6f7074696f6e0000000000000000000000000000000000000000000000000000604082015260600190565b602981527f796f75206d757374206f776e2074686520636f6c6c61746572616c20746f207260208201527f65636c61696d2069740000000000000000000000000000000000000000000000604082015260600190565b603d81527f636f6c6c61746572616c204552432d323020636f6e747261637420646f65732060208201527f6e6f742070726f7065726c79207370656369667920646563696d616c73000000604082015260600190565b602c81527f63616e6e6f7420636c656172206120746f6b656e207768696c6520617563746960208201527f6f6e206973206163746976650000000000000000000000000000000000000000604082015260600190565b604181527f6f6e6c792074686520686f6c6465722063616e20736574746c6520616e20416d60208201527f65726963616e207374796c65206f7074696f6e206265666f726520657870697260408201527f7900000000000000000000000000000000000000000000000000000000000000606082015260800190565b602381527f4575726f7065616e206f7074696f6e206e6565647320746f206265206578706960208201527f7265640000000000000000000000000000000000000000000000000000000000604082015260600190565b601a81527f796f752063616e206f6e6c792075706461746520616e20524650000000000000602082015260400190565b601b81527f6d73672e73656e646572206973206e6f7420746865206f776e65720000000000602082015260400190565b8051608083019061376f8482612cb8565b5060208201516137826020850182612cb8565b5060408201516137956040850182612cb8565b5060608201516137a86060850182612cb8565b50505050565b805160c08301906137bf8482612c58565b5060208201516137d26020850182612c58565b5060408201516137e56040850182612c58565b5060608201516137f86060850182612c58565b50608082015161380b6080850182612c58565b5060a08201516137a860a0850182612c58565b80516101008301906138308482613971565b5060208201516138436020850182613971565b5060408201516138566040850182613971565b5060608201516138696060850182613971565b50608082015161387c6080850182613971565b5060a082015161388f60a0850182613971565b5060c08201516138a260c0850182612cb8565b5060e08201516137a860e0850182612cb8565b805160e08301906138c68482613971565b5060208201516138d96020850182613971565b5060408201516138ec6040850182613971565b5060608201516138ff6060850182613971565b5060808201516139126080850182613971565b5060a082015161392560a0850182613971565b5060c08201516137a860c085018261397a565b805161022083019061394a84826137ae565b50602082015161395d60c08501826138b5565b5060408201516137a86101a085018261375e565b612c5281612890565b612c5281613df7565b604081016139918285612c58565b6120a46020830184613971565b604081016139918285612c49565b61014081016139bb828d612c58565b6139c8602083018c612c58565b6139d5604083018b612c58565b6139e2606083018a612c58565b6139ef6080830189613971565b6139fc60a0830188613971565b613a0960c0830187613971565b613a1660e0830186613971565b613a24610100830185612cb8565b6108b8610120830184612cb8565b60608101613a408286612c58565b613a4d6020830185612c58565b61208a6040830184613971565b60608101613a688286612c58565b613a4d6020830185613971565b602080825281016120a48184612c61565b602081016105118284612cb8565b6020808252810161051181612cca565b6020808252810161051181612cfa565b6020808252810161051181612d2a565b6020808252810161051181612d5a565b6020808252810161051181612db0565b6020808252810161051181612e06565b6020808252810161051181612e36565b6020808252810161051181612e66565b6020808252810161051181612ebc565b6020808252810161051181612eec565b6020808252810161051181612f42565b6020808252810161051181612f72565b6020808252810161051181612fc8565b602080825281016105118161301e565b6020808252810161051181613074565b60208082528101610511816130ca565b6020808252810161051181613120565b6020808252810161051181613150565b60208082528101610511816131a6565b60208082528101610511816131fc565b602080825281016105118161322c565b602080825281016105118161325c565b602080825281016105118161328c565b60208082528101610511816132bc565b60208082528101610511816132ec565b6020808252810161051181613342565b6020808252810161051181613398565b60208082528101610511816133c8565b60208082528101610511816133f8565b6020808252810161051181613428565b602080825281016105118161347e565b60208082528101610511816134d4565b602080825281016105118161352a565b6020808252810161051181613580565b60208082528101610511816135d6565b602080825281016105118161362c565b60208082528101610511816136a8565b60208082528101610511816136fe565b602080825281016105118161372e565b6101008101610511828461381e565b61022081016105118284613938565b602081016105118284613971565b60408101613d3e8285613971565b6120a46020830184612c58565b60408101613d598285613971565b6120a46020830184612cb8565b60608101613d748286613971565b613a4d6020830185612cc1565b60608101613a688286613971565b60a08101613d9d8288613971565b613daa6020830187613971565b613db76040830186613971565b613dc46060830185613971565b6118f96080830184613971565b60200190565b5190565b600061051182613deb565b151590565b600160a060020a031690565b60ff1690565b7fffffffff000000000000000000000000000000000000000000000000000000001690565b600061051182613e38565b600061051182612890565b600061051182613ddb56fea265627a7a72305820a505ae629d671c7661683a617574cce35efd11259d3e071b5b8a6304c67aa4416c6578706572696d656e74616cf50037",
  "source": "/**\nSmartPiggies is an open source standard for\na free peer to peer global derivatives market\n\nCopyright (C) 2019, Arief, Algya, Lee\n\nThis program is free software: you can redistribute it and/or modify\nit under the terms of the GNU General Public License as published by\nthe Free Software Foundation, either version 3 of the License, or\n(at your option) any later version.\n\nThis program is distributed in the hope that it will be useful,\nbut WITHOUT ANY WARRANTY; without even the implied warranty of\nMERCHANTABILITY or FITNESS FOR A PARTICULAR PURPOSE.  See the\nGNU General Public License for more details.\n\nYou should have received a copy of the GNU General Public License\nalong with this program.  If not, see <http://www.gnu.org/licenses/>.\n**/\npragma solidity >=0.4.24 <0.6.0;\npragma experimental ABIEncoderV2;\n\n// massive thanks to ERC-721 spec for this D:\n\n// references to \"oracles\" could use a different / more general term\n// so that the spec could use signed data directly from \"source\" w/ same interface\n\ninterface PaymentToken {\n  function transferFrom(address from, address to, uint256 value) external returns (bool);\n  function transfer(address to, uint256 value) external returns (bool);\n  function decimals() external returns (uint8);\n}\n\nimport \"./ERC165.sol\";\nimport \"./SafeMath.sol\";\n\n/** @title ERC-59 (subject to change) Smart Option Standard\n*/\ncontract SmartPiggies is ERC165 {\n  using SafeMath for uint256;\n\n  address payable owner;\n  uint256 public tokenId;\n\n  struct DetailAddresses {\n    address writer;\n    address holder;\n    address collateralERC;\n    address premiumERC;\n    address dataResolverNow;\n    address dataResolverAtExpiry;\n  }\n\n  struct DetailUints {\n    uint256 collateral;\n    uint256 lotSize;\n    uint256 strikePrice;\n    uint256 expiry;\n    uint256 settlementPrice;\n    uint256 reqCollateral;\n    uint8 collateralDecimals;  // to store decimals from ERC-20 contract\n  }\n\n  struct BoolFlags {\n    bool isRequest;\n    bool isEuro;\n    bool isPut;\n    bool hasBeenCleared;  // to flag whether the oracle returned a callback w/ price\n  }\n\n  struct DetailAuction {\n    uint256 startBlock;\n    uint256 expiryBlock;\n    uint256 startPrice;\n    uint256 reservePrice;\n    uint256 timeStep;\n    uint256 priceStep;\n    bool auctionActive;\n    bool satisfyInProgress;  // mutex guard to disallow ending an auction if a transaction to satisfy is in progress\n  }\n\n  struct Piggy {\n    DetailAddresses addresses; //address details\n    DetailUints uintDetails; //number details\n    BoolFlags flags; //parameter switches\n  }\n\n  mapping (address => mapping(address => uint256)) private ERC20balances;\n  mapping (address => uint256[]) private ownedPiggies; //again, public?\n  mapping (uint256 => uint256) private ownedPiggiesIndex;\n  mapping (uint256 => Piggy) private piggies;\n  mapping (uint256 => DetailAuction) private auctions;\n\n  /*\n  add events\n  */\n\n  event CreatePiggy(\n      address indexed from,\n      uint256 indexed tokenId,\n      uint256 indexed strike,\n      uint256 expiryBlock,\n      bool RFP\n  );\n\n  event TransferPiggy(\n      address indexed from,\n      address indexed to,\n      uint256 indexed tokenId\n  );\n\n  event UpdateRFP(\n      address indexed from,\n      uint256 indexed tokenId,\n      address collateralERC,\n      address premiumERC,\n      address dataResolverNow,\n      address dataResolverAtExpiry,\n      uint256 reqCollateral,\n      uint256 lotSize,\n      uint256 strikePrice,\n      uint256 expiry,\n      bool isEuro,\n      bool isPut\n  );\n\n  event ReclaimAndBurn(\n      address indexed from,\n      uint256 indexed tokenId,\n      bool indexed RFP\n  );\n\n  event StartAuction(\n      address indexed from,\n      uint256 indexed tokenId,\n      uint256 startPrice,\n      uint256 reservePrice,\n      uint256 auctionLength,\n      uint256 timeStep,\n      uint256 priceStep\n  );\n\n  event EndAuction(\n      address indexed from,\n      uint256 indexed tokenId,\n      bool indexed RFP\n  );\n\n  event SatisfyAuction(\n      address indexed from,\n      uint256 indexed tokenId,\n      uint256 paidPremium,\n      uint256 change,\n      uint256 auctionPremium\n  );\n\n  event RequestSettlementPrice(\n      address indexed feePayer,\n      uint256 indexed tokenId,\n      uint256 oracleFee,\n      address dataResolver\n  );\n\n  event OracleReturned(\n      address indexed resolver,\n      uint256 indexed tokenId,\n      uint256 indexed price\n  );\n\n  event SettlePiggy(\n     address indexed from,\n     uint256 indexed tokenId,\n     uint256 indexed holderPayout,\n     uint256 writerPayout\n  );\n\n  event ClaimPayout(\n      address indexed from,\n      uint256 indexed amount,\n      address indexed paymentToken\n  );\n\n  /**\n    constructor should throw if various things aren't properly set\n    also should throw if the contract is not delegated an amount of collateral designated\n    in the reference ERC-20 which is >= the collateral value of the piggy\n  */\n  constructor()\n    public\n  {\n    //declarations here\n    owner = msg.sender; //so we can delete if from the testnet\n  }\n\n  // abstract ERC-20 TransferFrom attepmts\n  function attemptPaymentTransfer(address _ERC20, address _from, address _to, uint256 _amount)\n    private\n    returns (bool)\n  {\n    (bool success, ) = address(PaymentToken(_ERC20)).call(\n      abi.encodeWithSignature(\n        \"transferFrom(address,address,uint256)\",\n        _from,\n        _to,\n        _amount\n      )\n    );\n    return success;\n  }\n\n  // token should capture claim fields --> \"getSellerClaim()\" / \"getOwnerClaim()\" ?\n  // the oracle has to do a lot of heavy lifting in the current design, and the token needs\n  // to be created with extreme care wrt the oracle metadata\n  // if we want to do \"capped\" options as traditional, need more metadata re: endpoints i guess\n  /** @notice Create a new ERC-59 token\n      @dev Throws if `_collateralERC` is not a valid Ethereum (ERC-20) address.\n       Throws if `_premiumERC` is not a valid Ethereum (ERC-20) address (may be same\n       as `_collateralERC`).\n       Throws if `_oracle` is not a valid Ethereum address.\n       Throws if `_expiry` < block.number.\n       If `_asRequest` is true, throws if `_reqCollateral` == 0.\n       If `_asRequest` is false, throws if msg.sender has not delegated at least `_collateral`\n       in the ERC-20 token whose contract is `_collateralERC` to the ERC-59 contract.\n       When a new token is created, msg.sender should be recorded as the creator and owner.\n       If `_asRequest` is true, the zero address should be recorded as the seller.\n       If `_asRequest` is false, msg.sender should be recorded as the seller.\n       If `_asRequest` is false, `_reqCollateral` will be irrelevant and should be captured as 0.\n       If `_asRequest` is false, the ERC-59 contract must take ownership of `_collateral` amount\n       of ERC-20 tokens governed by the `_collateralERC` contract.\n      @param _collateralERC The address of the reference ERC-20 token to be used as collateral\n      @param _premiumERC The address of the reference ERC-20 token to be used to pay the premium\n      param _oracle The address of a service contract which will return the settlement price\n      param _asRequest If true, will create the token as an \"RFP\" / request for a particular option\n      param _underlyingNow An identifier for the reference underlying which the contract at `_oracle`\n       is able to parse to return the current price of the underlying\n      param _underlyingExpiry An identifier for the reference underlying which the contract at\n       `_oracle` is able to parse to return the price of the underlying at `_expiry`\n      @param _collateral The amount of collateral for the option, denominated in units of the token\n       at the `_collateralERC` address\n      @param _lotSize A multiplier on the settlement price used to determine settlement claims\n      @param _strikePrice The strike value of the option, in the same units as the settlement price\n      @param _expiry The block height at which the option will expire\n      param _reqCollateral The amount of collateral desired in the option, if creating with\n       `_asRequest` == true, denominated in units of the token at the `_collateralERC` address\n      @param _isEuro If true, the option can only be settled at or after `_expiry` is reached, else\n       it can be settled at any time\n      @param _isPut If true, the settlement claims will be calculated for a put option; else they\n       will be calculated for a call option\n   */\n   function createPiggy(\n   address _collateralERC,\n   address _premiumERC,\n   address _dataResolverNow,\n   address _dataResolverAtExpiry,\n   uint256 _collateral,\n   uint256 _lotSize,\n   uint256 _strikePrice,\n   uint256 _expiry,\n   bool _isEuro,\n   bool _isPut,\n   bool _isRequest\n   )\n   public\n   returns (bool)\n {\n   require(\n     _collateralERC != address(0) &&\n     _premiumERC != address(0) &&\n     _dataResolverNow != address(0) &&\n     _dataResolverAtExpiry != address(0),\n     \"addresses cannot be zero\"\n   );\n   require(\n     _collateral != 0 &&\n     _lotSize != 0 &&\n     _strikePrice != 0 &&\n     _expiry != 0,\n     \"option parameters cannot be zero\"\n   );\n   // if not an RFP, make sure the collateral can be transferred\n   if (!_isRequest) {\n     bool success = attemptPaymentTransfer(\n       _collateralERC, //_collateralERC\n       msg.sender,\n       address(this),\n       _collateral\n     );\n     require(success, \"Token transfer did not complete\");\n   }\n   // any other checks that need to be performed specifically for RFPs ?\n\n   // assuming all checks have passed:\n   tokenId = tokenId.add(1);\n\n   // write the values to storage, including _isRequest flag\n   Piggy storage p = piggies[tokenId];\n   p.addresses.holder = msg.sender;\n   p.addresses.collateralERC = _collateralERC;\n   p.addresses.premiumERC = _premiumERC;\n   p.addresses.dataResolverNow = _dataResolverNow;\n   p.addresses.dataResolverAtExpiry = _dataResolverAtExpiry;\n   p.uintDetails.collateralDecimals = _getERC20Decimals(_collateralERC);\n   p.uintDetails.lotSize = _lotSize;\n   p.uintDetails.strikePrice = _strikePrice;\n   p.uintDetails.expiry = _expiry.add(block.number);\n   p.flags.isEuro = _isEuro;\n   p.flags.isPut = _isPut;\n   p.flags.isRequest = _isRequest;\n\n   // conditional state variable assignments based on _isRequest:\n   if (_isRequest) {\n     p.uintDetails.reqCollateral = _collateral;\n   } else {\n     p.addresses.writer = msg.sender;\n     p.uintDetails.collateral = _collateral;\n   }\n   _addTokenToOwnedPiggies(msg.sender, tokenId);\n\n   emit CreatePiggy(\n     msg.sender,\n     tokenId,\n     _strikePrice,\n     _expiry.add(block.number),\n     _isRequest\n   );\n\n   return true;\n }\n\n// make sure the ERC-20 contract for collateral correctly reports decimals\nfunction _getERC20Decimals(address _ERC20)\n  internal\n  returns (uint8)\n{\n  (bool success, bytes memory _decBytes) = address(PaymentToken(_ERC20)).call(\n      abi.encodeWithSignature(\"decimals()\")\n    );\n   require(success, \"collateral ERC-20 contract does not properly specify decimals\");\n   // convert bytes to uint8:\n   uint256 _ERCdecimals;\n   for(uint256 i=0; i < _decBytes.length; i++) {\n     _ERCdecimals = _ERCdecimals + uint8(_decBytes[i])*(2**(8*(_decBytes.length-(i+1))));\n   }\n   return uint8(_ERCdecimals);\n}\n\n  // helper function to view info from about the piggy outside of the contract\n  function getDetails(uint256 _tokenId)\n    public\n    view\n    returns (Piggy memory)\n  {\n    return piggies[_tokenId];\n  }\n\n  // this is a helper function to allow view of auction details\n  function getAuctionDetails(uint256 _tokenId)\n    public\n    view\n    returns (DetailAuction memory)\n  {\n    return auctions[_tokenId];\n  }\n\n  /** @notice Count the number of ERC-59 tokens owned by a particular address\n      @dev ERC-59 tokens assigned to the zero address are considered invalid, and this\n       function throws for queries about the zero address.\n      @param _owner An address for which to query the balance of ERC-59 tokens\n      @return The number of ERC-59 tokens owned by `_owner`, possibly zero\n   */\n  function getOwnedPiggies(address _owner)\n    public\n    view\n    returns (uint256[] memory)\n  {\n    require(_owner != address(0), \"address cannot be zero\");\n    return ownedPiggies[_owner];\n  }\n\n  function getERC20balance(address _owner, address _erc20)\n    public\n    view\n    returns (uint256)\n  {\n    require(_owner != address(0), \"address cannot be zero\");\n    return ERC20balances[_owner][_erc20];\n  }\n\n  function transferFrom(address _from, address _to, uint256 _tokenId)\n    public\n  {\n    require(msg.sender == piggies[_tokenId].addresses.holder, \"msg.sender is not the owner\"); //openzep doesn't do this\n    _internalTransfer(_from, _to, _tokenId);\n  }\n\n  // internal transfer for transfers made on behalf of the contract\n  function _internalTransfer(address _from, address _to, uint256 _tokenId)\n    internal\n  {\n    require(_from == piggies[_tokenId].addresses.holder, \"from address is not the owner\");\n    require(_to != address(0), \"to address is zero\");\n    _removeTokenFromOwnedPiggies(_from, _tokenId);\n    _addTokenToOwnedPiggies(_to, _tokenId);\n    piggies[_tokenId].addresses.holder = _to;\n    emit TransferPiggy(_from, _to, _tokenId);\n  }\n\n  // possibly add function to update reqCollateral if token is an RFP and hasn't been successfully fulfilled\n  // maybe allow all fields of an RFP to be updated ?\n  // this may be more trouble than it is worth. could allow this function to accept a struct, and check if any keys matching fields of Piggy are nonzero, if so, update those ones\n  function updateRFP(\n    uint256 _tokenId,\n    address _collateralERC,\n    address _premiumERC,\n    address _dataResolverNow,\n    address _dataResolverAtExpiry,\n    uint256 _reqCollateral,\n    uint256 _lotSize,\n    uint256 _strikePrice,\n    uint256 _expiry,\n    bool _isEuro,  // MUST be specified\n    bool _isPut    // MUST be specified\n  )\n    public\n    returns (bool)\n  {\n    require(piggies[_tokenId].addresses.holder == msg.sender, \"you must own the RFP to update it\");\n    require(piggies[_tokenId].flags.isRequest, \"you can only update an RFP\");\n    uint256 expiryBlock;\n    if (_collateralERC != address(0)) {\n      piggies[_tokenId].addresses.collateralERC = _collateralERC;\n    }\n    if (_premiumERC != address(0)) {\n      piggies[_tokenId].addresses.premiumERC = _premiumERC;\n    }\n    if (_dataResolverNow != address(0)) {\n      piggies[_tokenId].addresses.dataResolverNow = _dataResolverNow;\n    }\n    if (_dataResolverAtExpiry != address(0)) {\n      piggies[_tokenId].addresses.dataResolverAtExpiry = _dataResolverAtExpiry;\n    }\n    if (_reqCollateral != 0) {\n      piggies[_tokenId].uintDetails.reqCollateral = _reqCollateral;\n    }\n    if (_lotSize != 0) {\n      piggies[_tokenId].uintDetails.lotSize = _lotSize;\n    }\n    if (_strikePrice != 0 ) {\n      piggies[_tokenId].uintDetails.strikePrice = _strikePrice;\n    }\n    if (_expiry != 0) {\n      // should this redo the expiry calculation? to be consistent w/ how the creation function works ?\n      expiryBlock = _expiry.add(block.number);\n      piggies[_tokenId].uintDetails.expiry = expiryBlock;\n    }\n    piggies[_tokenId].flags.isEuro = _isEuro;\n    piggies[_tokenId].flags.isPut = _isPut;\n\n    emit UpdateRFP(\n      msg.sender,\n      _tokenId,\n      _collateralERC,\n      _premiumERC,\n      _dataResolverNow,\n      _dataResolverAtExpiry,\n      _reqCollateral,\n      _lotSize,\n      _strikePrice,\n      expiryBlock,\n      _isEuro,\n      _isPut\n    );\n\n    return true;\n  }\n\n  // this function can be used to burn any token; if it is an option, will return collateral before burning\n  function reclaimAndBurn(uint256 _tokenId)\n    public\n    returns (bool)\n  {\n    require(msg.sender == piggies[_tokenId].addresses.holder, \"you must own the token to burn it\");\n    require(!auctions[_tokenId].auctionActive, \"you cannot burn a token which is on auction\");\n    if (!piggies[_tokenId].flags.isRequest) {\n      require(msg.sender == piggies[_tokenId].addresses.writer, \"you must own the collateral to reclaim it\");\n      // return the collateral to sender\n      PaymentToken(piggies[_tokenId].addresses.collateralERC).transfer(msg.sender, piggies[_tokenId].uintDetails.collateral);\n    }\n    emit ReclaimAndBurn(msg.sender, _tokenId, piggies[_tokenId].flags.isRequest);\n    //remove id from index mapping\n    _removeTokenFromOwnedPiggies(piggies[_tokenId].addresses.holder, _tokenId);\n    // burn the token (zero out storage fields)\n    _resetPiggy(_tokenId);\n    return true;\n  }\n\n  function _clearAuctionDetails(uint256 _tokenId)\n    internal\n  {\n    auctions[_tokenId].startBlock = 0;\n    auctions[_tokenId].expiryBlock = 0;\n    auctions[_tokenId].startPrice = 0;\n    auctions[_tokenId].reservePrice = 0;\n    auctions[_tokenId].timeStep = 0;\n    auctions[_tokenId].priceStep = 0;\n    auctions[_tokenId].auctionActive = false;\n    // I don't think we want this one to touch the two state flags; handle those on a per-function basis in the order that makes sense probably\n    // MIGHT be ok to set auctionActive = false here though actually...\n  }\n\n  function startAuction(\n    uint256 _tokenId,\n    uint256 _startPrice,\n    uint256 _reservePrice,\n    uint256 _auctionLength,\n    uint256 _timeStep,\n    uint256 _priceStep\n  )\n    external\n    returns (bool)\n  {\n    uint256 _auctionExpiry = block.number.add(_auctionLength);\n    require(piggies[_tokenId].addresses.holder == msg.sender, \"you must own a token to auction it\");\n    require(piggies[_tokenId].uintDetails.expiry > block.number, \"option must not be expired\");\n    require(piggies[_tokenId].uintDetails.expiry > _auctionExpiry, \"auction cannot expire after the option\");\n    require(!piggies[_tokenId].flags.hasBeenCleared, \"option cannot have been cleared\");\n    require(!auctions[_tokenId].auctionActive, \"auction cannot already be running\");\n    // as specified below, this is not needed if we change the function (as I have done) to accept an _auctionLength rather than a direct _auctionExpiry value\n    //require(_auctionExpiry > block.number, \"auction must expire in the future\");  // DO WE WANT TO ALSO ADD A BUFFER HERE? LIKE IT MUST EXPIRE AT LEAST XX BLOCKS IN THE FUTURE?\n    if (piggies[_tokenId].flags.isRequest) {\n      bool success = attemptPaymentTransfer(\n        piggies[_tokenId].addresses.premiumERC,\n        msg.sender,\n        address(this),\n        _reservePrice  // this should be the max the requestor is willing to pay in a reverse dutch auction\n      );\n      require(success, \"transferFrom did not return true\");\n    }\n    // if we made it past the various checks, set the auction metadata up in auctions mapping\n    auctions[_tokenId].startBlock = block.number;\n    auctions[_tokenId].expiryBlock = _auctionExpiry;\n    auctions[_tokenId].startPrice = _startPrice;\n    auctions[_tokenId].reservePrice = _reservePrice;\n    auctions[_tokenId].timeStep = _timeStep;\n    auctions[_tokenId].priceStep = _priceStep;\n    auctions[_tokenId].auctionActive = true;\n\n    emit StartAuction(\n      msg.sender,\n      _tokenId,\n      _startPrice,\n      _reservePrice,\n      _auctionLength,\n      _timeStep,\n      _priceStep\n    );\n\n    return true;\n  }\n\n  function endAuction(uint256 _tokenId)\n    public\n    returns (bool)\n  {\n    require(piggies[_tokenId].addresses.holder == msg.sender, \"you must own a token to auction it\");\n    require(auctions[_tokenId].auctionActive, \"auction must be active to cancel it\");\n    require(!auctions[_tokenId].satisfyInProgress, \"auction cannot be in the process of being satisfied\");  // this should be added to other functions as well\n    if (piggies[_tokenId].flags.isRequest) {\n      // refund the _reservePrice premium\n      uint256 _premiumToReturn = auctions[_tokenId].reservePrice;\n      //auctions[_tokenId].reservePrice = 0;  // this sort of offends my sensibilities because we only zero out one auction param, but it is the only one required to change for this logic to work\n      PaymentToken(piggies[_tokenId].addresses.premiumERC).transfer(msg.sender, _premiumToReturn);\n    }\n    _clearAuctionDetails(_tokenId);\n    emit EndAuction(msg.sender, _tokenId, piggies[_tokenId].flags.isRequest);\n    return true;\n  }\n\n  // calculate the price for satisfaction of an auction\n  // this is an interpolated linear price based on the supplied auction parameters at a resolution of 1 block\n  function getAuctionPrice(uint256 _tokenId)\n    internal\n    view\n    returns (uint256)\n  {\n    // I think we can skip various checks here since they will be in the satisfyAuction function instead\n    // (e.g. making sure auction is active and not expired, etc. etc.)\n    uint256 _pStart = auctions[_tokenId].startPrice;\n    // price delta is (time elapsed) * (price change per time step)\n    uint256 _pDelta = (block.number).sub(auctions[_tokenId].startBlock).mul(auctions[_tokenId].priceStep).div(auctions[_tokenId].timeStep);\n    if (piggies[_tokenId].flags.isRequest) {\n      return _pStart.add(_pDelta);\n    } else {\n      return (_pStart.sub(_pDelta));\n    }\n  }\n\n  // consider possible attacks and refactor if needed\n  function satisfyAuction(uint256 _tokenId)\n    public\n    returns (bool)\n  {\n    require(!auctions[_tokenId].satisfyInProgress, \"cannot reenter this function while it is in progress\");\n    require(piggies[_tokenId].addresses.holder != msg.sender, \"cannot satisfy your own auction; use endAuction instead\");\n    require(auctions[_tokenId].auctionActive, \"auction must be active to satisfy it\");\n    // if auction is \"active\" according to state but has expired, change state\n    if (auctions[_tokenId].expiryBlock < block.number) {\n      //auctions[_tokenId].auctionActive = false;  // handled by _clearAuctionDetails now\n      _clearAuctionDetails(_tokenId);\n      return false;\n    }\n    // get linear auction premium; reserve price should be a ceiling or floor depending on whether this is an RFP or an option, respectively\n    uint256 _auctionPremium = getAuctionPrice(_tokenId);\n    // lock mutex\n    auctions[_tokenId].satisfyInProgress = true;\n    if (piggies[_tokenId].flags.isRequest) {\n      // msg.sender needs to delegate reqCollateral\n      bool success = attemptPaymentTransfer(\n        piggies[_tokenId].addresses.collateralERC,\n        msg.sender,\n        address(this),\n        piggies[_tokenId].uintDetails.reqCollateral\n      );\n      if (!success) {\n        auctions[_tokenId].satisfyInProgress = false;\n        return false;\n      }\n      // if the collateral transfer succeeded, collateral gets set to reqCollateral\n      piggies[_tokenId].uintDetails.collateral = piggies[_tokenId].uintDetails.reqCollateral;\n      // calculate adjusted premium (based on reservePrice) + possible change due back to current holder\n      uint256 _change = 0;\n      uint256 _adjPremium = _auctionPremium;\n      if (_adjPremium > auctions[_tokenId].reservePrice) {\n        _adjPremium = auctions[_tokenId].reservePrice;\n      } else {\n        _change = auctions[_tokenId].reservePrice.sub(_adjPremium);\n      }\n      // current holder pays premium (via amount already delegated to this contract in startAuction)\n      PaymentToken(piggies[_tokenId].addresses.premiumERC).transfer(msg.sender, _adjPremium);\n      // current holder receives any change due\n      if (_change > 0) {\n        PaymentToken(piggies[_tokenId].addresses.premiumERC).transfer(piggies[_tokenId].addresses.holder, _change);\n      }\n      // isRequest becomes false\n      piggies[_tokenId].flags.isRequest = false;\n      // msg.sender becomes writer\n      piggies[_tokenId].addresses.writer = msg.sender;\n\n      emit SatisfyAuction(\n        msg.sender,\n        _tokenId,\n        _adjPremium,\n        _change,\n        _auctionPremium\n      );\n\n    } else {\n      // calculate the adjusted premium based on reservePrice\n      uint256 _adjPremium = _auctionPremium;\n      if (_adjPremium < auctions[_tokenId].reservePrice) {\n        _adjPremium = auctions[_tokenId].reservePrice;\n      }\n      // msg.sender pays (adjusted) premium\n      bool success = attemptPaymentTransfer(\n        piggies[_tokenId].addresses.premiumERC,\n        msg.sender,\n        piggies[_tokenId].addresses.holder,  // should the SP contract escrow it first?\n        _adjPremium\n      );\n      if (!success) {\n        auctions[_tokenId].satisfyInProgress = false;\n        return false;\n      }\n      // msg.sender becomes holder\n      _internalTransfer(piggies[_tokenId].addresses.holder, msg.sender, _tokenId);\n\n      emit SatisfyAuction(\n        msg.sender,\n        _tokenId,\n        _adjPremium,\n        0,\n        _auctionPremium\n      );\n\n    }\n    // auction is ended\n    _clearAuctionDetails(_tokenId);\n    // mutex released\n    auctions[_tokenId].satisfyInProgress = false;\n    return true;\n  }\n\n  /** @notice Call the oracle to fetch the settlement price\n      @dev Throws if `_tokenId` is not a valid ERC-59 token.\n       Throws if `_oracle` is not a valid contract address.\n       Throws if `onMarket(_tokenId)` is true.\n       If `isEuro` is true for the specified token, throws if `_expiry` > block.number.\n       If `isEuro` is true for the specified token, throws if `_priceNow` is true. [OR specify that it flips that to false always (?)]\n       If `priceNow` is true, throws if block.number > `_expiry` for the specified token.\n       If `priceNow` is false, throws if block.number < `_expiry` for the specified token.\n       If `priceNow` is true, calls the oracle to request the `_underlyingNow` value for the token.\n       If `priceNow` is false, calls the oracle to request the `_underlyingExpiry` value for the token.\n       Depending on the oracle service implemented, additional state will need to be referenced in\n       order to call the oracle, e.g. an endpoint to fetch. This state handling will need to be\n       managed on an implementation basis for specific oracle services.\n      @param _tokenId The identifier of the specific ERC-59 token for which to fetch a settlement price\n       _oracle The address of the oracle contract used to fetch the external settlement price\n       _priceNow A boolean for specifying whether to fetch a \"live\" price or a fixed price at\n       expiry of the option\n      @return The settlement price from the oracle to be used in `settleOption()`\n   */\n  function requestSettlementPrice(uint256 _tokenId, uint256 _oracleFee) // this should be renamed perhaps, s.t. it is obvious that this is the \"clearing phase\"\n    public\n    returns (bool)\n  {\n    require(msg.sender != address(0), \"sender cannot be the zero address\");\n    //what check should be done to check that piggy is active?\n    require(!auctions[_tokenId].auctionActive, \"cannot clear a token while auction is active\");\n    require(!piggies[_tokenId].flags.hasBeenCleared, \"token has already been cleared\");  // this is potentially problematic in the case of \"garbage data\"\n    require(_tokenId != 0, \"_tokenId cannot be zero\");\n    require(_oracleFee != 0, \"oracle fee cannot be zero\");\n    //if Euro require past expiry\n    if (piggies[_tokenId].flags.isEuro) {\n      require(piggies[_tokenId].uintDetails.expiry <= block.number);\n    }\n    //fetch data from dataResolver contract\n    address _dataResolver;\n    if (piggies[_tokenId].flags.isEuro || (piggies[_tokenId].uintDetails.expiry < block.number))\n    {\n      _dataResolver = piggies[_tokenId].addresses.dataResolverAtExpiry;\n    } else {\n      require(msg.sender == piggies[_tokenId].addresses.holder, \"only the holder can settle an American style option before expiry\");\n      _dataResolver = piggies[_tokenId].addresses.dataResolverNow;\n    }\n    require(_callResolver(_dataResolver, msg.sender, _oracleFee, _tokenId), \"call to resolver did not return true\");\n    return true;\n  }\n\n  function _callResolver(address _dataResolver, address _feePayer, uint256 _oracleFee, uint256 _tokenId)\n    internal\n    returns (bool)\n  {\n    (bool success, ) = address(_dataResolver).call(\n      abi.encodeWithSignature(\"fetchData(address,uint256,uint256)\", _feePayer, _oracleFee, _tokenId)\n    );\n    require(success, \"fetch success did not return true\");\n\n    emit RequestSettlementPrice(\n      _feePayer,\n      _tokenId,\n      _oracleFee,\n      _dataResolver\n    );\n\n    return true;\n  }\n\n  function _callback(\n    uint256 _tokenId,\n    uint256 _price\n  )\n    public\n  {\n    address _dataResolver;\n    if (piggies[_tokenId].flags.isEuro || (piggies[_tokenId].uintDetails.expiry < block.number))\n    {\n      _dataResolver = piggies[_tokenId].addresses.dataResolverAtExpiry;\n    } else {\n      _dataResolver = piggies[_tokenId].addresses.dataResolverNow;\n    }\n    require(msg.sender == _dataResolver, \"resolve address was not correct\"); // MUST restrict a call to only the resolver address\n    piggies[_tokenId].uintDetails.settlementPrice = _price;\n    piggies[_tokenId].flags.hasBeenCleared = true;\n\n    emit OracleReturned(\n      msg.sender,\n      _tokenId,\n      _price\n    );\n\n  }\n\n  // this appears to basically be redundant w/ requestSettlementPrice\n  // function clearOption(uint256 _tokenId)\n  //   public\n  //   returns (bool)\n  // {\n  //   require(msg.sender != address(0));\n  //   //require(ownerOf(_piggyId) == msg.sender);\n  //   //what check should be done to check that piggy is active?\n  //   require(_tokenId != 0);\n\n  //   //Get a price from the oracle\n  //   piggies[_tokenId].requestId = requestSettlementPrice(_tokenId);\n\n  //   return true;\n  // }\n\n  function _calculateLongPayout(\n    bool _isPut,\n    uint256 _exercisePrice,\n    uint256 _strikePrice,\n    uint256 _lotSize,\n    uint8 _decimals\n  )\n    internal\n    pure\n    returns (uint256 _payout)\n  {\n    if (_isPut && (_strikePrice > _exercisePrice)) {\n      _payout = _strikePrice.sub(_exercisePrice);\n    }\n    if (!_isPut && (_exercisePrice > _strikePrice)) {\n      _payout = _exercisePrice.sub(_strikePrice);\n    }\n    _payout = _payout.mul(10**uint256(_decimals)).mul(_lotSize).div(100);\n    return _payout;\n  }\n\n  // calculate settlement using oracle's callback data\n  // needs to have _settlementPrice from oracle\n  // options math goes here -- conditionals based on call/put\n  /** @notice Calculate the settlement of ownership of option collateral\n      @dev Throws if `_tokenId` is not a valid ERC-59 token.\n       Throws if msg.sender is not one of: seller, owner of `_tokenId`.\n       Throws if `hasSettlementPrice(_tokenId)` is false.\n\n       [Option settlement math goes here for call / put situations]\n\n   */\n   function settlePiggy(uint256 _tokenId)\n     public\n     returns (bool)\n   {\n     require(msg.sender != address(0), \"msg.sender cannot be zero\");\n     require(_tokenId != 0, \"tokenId cannot be zero\");\n     require(piggies[_tokenId].flags.hasBeenCleared, \"piggy has not received an oracle price\");\n\n     uint256 payout;\n\n     if(piggies[_tokenId].flags.isEuro) {\n       require(piggies[_tokenId].uintDetails.expiry <= block.number, \"European option needs to be expired\");\n     }\n     payout = _calculateLongPayout(\n         piggies[_tokenId].flags.isPut,\n         piggies[_tokenId].uintDetails.settlementPrice,\n         piggies[_tokenId].uintDetails.strikePrice,\n         piggies[_tokenId].uintDetails.lotSize,\n         piggies[_tokenId].uintDetails.collateralDecimals\n     );\n\n     // set the balances of the two counterparties based on the payout\n     address _writer = piggies[_tokenId].addresses.writer;\n     address _holder = piggies[_tokenId].addresses.holder;\n     address _collateralERC = piggies[_tokenId].addresses.collateralERC;\n\n     if (payout > piggies[_tokenId].uintDetails.collateral) {\n       payout = piggies[_tokenId].uintDetails.collateral;\n     }\n     ERC20balances[_holder][_collateralERC] = ERC20balances[_holder][_collateralERC].add(payout);\n     ERC20balances[_writer][_collateralERC] = piggies[_tokenId].uintDetails.collateral.sub(payout);\n\n     emit SettlePiggy(\n       msg.sender,\n       _tokenId,\n       payout,\n       piggies[_tokenId].uintDetails.collateral.sub(payout)\n     );\n\n     _removeTokenFromOwnedPiggies(_holder, _tokenId);\n     //clean up piggyId\n     _resetPiggy(_tokenId);\n     return true;\n   }\n\n  // claim payout - pull payment\n  // sends any reference ERC-20 which the _claimant is owed (as a result of an auction or settlement)\n  function claimPayout(address _paymentToken, uint256 _amount)\n    public\n    returns (bool)\n  {\n    require(_amount <= ERC20balances[msg.sender][_paymentToken], \"ERC20 balance is less than requested amount\");\n    ERC20balances[msg.sender][_paymentToken] = ERC20balances[msg.sender][_paymentToken].sub(_amount);\n    //require(token(_stableToken).transfer(msg.sender, balanceOf(msg.sender))), \"Unable to transfer\");\n    (bool success, ) = address(PaymentToken(_paymentToken)).call(\n      abi.encodeWithSignature(\n        \"transfer(address,uint256)\",\n        msg.sender,\n        _amount\n      )\n    );\n    require(success, \"ERC20 token transfer failed\");\n\n    emit ClaimPayout(\n      msg.sender,\n      _amount,\n      _paymentToken\n    );\n\n    return true;\n  }\n\n  function _addTokenToOwnedPiggies(address _to, uint256 _tokenId)\n    private\n  {\n    ownedPiggiesIndex[_tokenId] = ownedPiggies[_to].length;\n    ownedPiggies[_to].push(_tokenId);\n  }\n\n  function _removeTokenFromOwnedPiggies(address _from, uint256 _tokenId)\n    private\n  {\n    uint256 lastTokenIndex = ownedPiggies[_from].length.sub(1);\n    uint256 tokenIndex = ownedPiggiesIndex[_tokenId];\n\n    if (tokenIndex != lastTokenIndex) {\n      uint256 lastTokenId = ownedPiggies[_from][lastTokenIndex];\n      ownedPiggies[_from][tokenIndex] = lastTokenId;\n      ownedPiggiesIndex[lastTokenId] = tokenIndex;\n    }\n    ownedPiggies[_from].length--;\n  }\n\n  function _resetPiggy(uint256 _tokenId)\n    private\n  {\n    piggies[_tokenId].addresses.writer = address(0);\n    piggies[_tokenId].addresses.holder = address(0);\n    piggies[_tokenId].addresses.collateralERC = address(0);\n    piggies[_tokenId].addresses.premiumERC = address(0);\n    piggies[_tokenId].addresses.dataResolverNow = address(0);\n    piggies[_tokenId].addresses.dataResolverAtExpiry = address(0);\n    piggies[_tokenId].uintDetails.collateral = 0;\n    piggies[_tokenId].uintDetails.lotSize = 0;\n    piggies[_tokenId].uintDetails.strikePrice = 0;\n    piggies[_tokenId].uintDetails.expiry = 0;\n    piggies[_tokenId].uintDetails.settlementPrice = 0;\n    piggies[_tokenId].uintDetails.reqCollateral = 0;\n    piggies[_tokenId].uintDetails.collateralDecimals = 0;\n    piggies[_tokenId].flags.isRequest = false;\n    piggies[_tokenId].flags.isEuro = false;\n    piggies[_tokenId].flags.isPut = false;\n    piggies[_tokenId].flags.hasBeenCleared = false;\n  }\n\n  function kill()\n    public\n  {\n    require(msg.sender == owner);\n    selfdestruct(owner);\n  }\n}\n",
  "sourcePath": "/home/vagrant/DAPPS/smartpiggiesGithub/amerigo/explorer/contracts/SmartPiggies.sol",
  "compiler": {
    "name": "solc",
    "version": "0.5.2+commit.1df8f40c.Emscripten.clang"
  },
  "schemaVersion": "3.0.2",
  "updatedAt": "2019-04-26T14:47:45.690Z",
  "devdoc": {
    "methods": {
      "createPiggy(address,address,address,address,uint256,uint256,uint256,uint256,bool,bool,bool)": {
        "details": "Throws if `_collateralERC` is not a valid Ethereum (ERC-20) address. Throws if `_premiumERC` is not a valid Ethereum (ERC-20) address (may be same as `_collateralERC`). Throws if `_oracle` is not a valid Ethereum address. Throws if `_expiry` < block.number. If `_asRequest` is true, throws if `_reqCollateral` == 0. If `_asRequest` is false, throws if msg.sender has not delegated at least `_collateral` in the ERC-20 token whose contract is `_collateralERC` to the ERC-59 contract. When a new token is created, msg.sender should be recorded as the creator and owner. If `_asRequest` is true, the zero address should be recorded as the seller. If `_asRequest` is false, msg.sender should be recorded as the seller. If `_asRequest` is false, `_reqCollateral` will be irrelevant and should be captured as 0. If `_asRequest` is false, the ERC-59 contract must take ownership of `_collateral` amount of ERC-20 tokens governed by the `_collateralERC` contract.",
        "params": {
          "_collateral": "The amount of collateral for the option, denominated in units of the token at the `_collateralERC` address",
          "_collateralERC": "The address of the reference ERC-20 token to be used as collateral",
          "_expiry": "The block height at which the option will expire param _reqCollateral The amount of collateral desired in the option, if creating with `_asRequest` == true, denominated in units of the token at the `_collateralERC` address",
          "_isEuro": "If true, the option can only be settled at or after `_expiry` is reached, else it can be settled at any time",
          "_isPut": "If true, the settlement claims will be calculated for a put option; else they will be calculated for a call option",
          "_lotSize": "A multiplier on the settlement price used to determine settlement claims",
          "_premiumERC": "The address of the reference ERC-20 token to be used to pay the premium param _oracle The address of a service contract which will return the settlement price param _asRequest If true, will create the token as an \"RFP\" / request for a particular option param _underlyingNow An identifier for the reference underlying which the contract at `_oracle` is able to parse to return the current price of the underlying param _underlyingExpiry An identifier for the reference underlying which the contract at `_oracle` is able to parse to return the price of the underlying at `_expiry`",
          "_strikePrice": "The strike value of the option, in the same units as the settlement price"
        }
      },
      "getOwnedPiggies(address)": {
        "details": "ERC-59 tokens assigned to the zero address are considered invalid, and this function throws for queries about the zero address.",
        "params": {
          "_owner": "An address for which to query the balance of ERC-59 tokens"
        },
        "return": "The number of ERC-59 tokens owned by `_owner`, possibly zero"
      },
      "requestSettlementPrice(uint256,uint256)": {
        "details": "Throws if `_tokenId` is not a valid ERC-59 token. Throws if `_oracle` is not a valid contract address. Throws if `onMarket(_tokenId)` is true. If `isEuro` is true for the specified token, throws if `_expiry` > block.number. If `isEuro` is true for the specified token, throws if `_priceNow` is true. [OR specify that it flips that to false always (?)] If `priceNow` is true, throws if block.number > `_expiry` for the specified token. If `priceNow` is false, throws if block.number < `_expiry` for the specified token. If `priceNow` is true, calls the oracle to request the `_underlyingNow` value for the token. If `priceNow` is false, calls the oracle to request the `_underlyingExpiry` value for the token. Depending on the oracle service implemented, additional state will need to be referenced in order to call the oracle, e.g. an endpoint to fetch. This state handling will need to be managed on an implementation basis for specific oracle services.",
        "params": {
          "_tokenId": "The identifier of the specific ERC-59 token for which to fetch a settlement price _oracle The address of the oracle contract used to fetch the external settlement price _priceNow A boolean for specifying whether to fetch a \"live\" price or a fixed price at expiry of the option"
        },
        "return": "The settlement price from the oracle to be used in `settleOption()`"
      },
      "settlePiggy(uint256)": {
        "details": "Throws if `_tokenId` is not a valid ERC-59 token. Throws if msg.sender is not one of: seller, owner of `_tokenId`. Throws if `hasSettlementPrice(_tokenId)` is false. [Option settlement math goes here for call / put situations]"
      },
      "supportsInterface(bytes4)": {
        "details": "implement supportsInterface(bytes4) using a lookup table"
      }
    },
    "title": "ERC-59 (subject to change) Smart Option Standard"
  },
  "userdoc": {
    "methods": {
      "constructor": "constructor should throw if various things aren't properly set also should throw if the contract is not delegated an amount of collateral designated in the reference ERC-20 which is >= the collateral value of the piggy",
      "createPiggy(address,address,address,address,uint256,uint256,uint256,uint256,bool,bool,bool)": {
        "notice": "Create a new ERC-59 token"
      },
      "getOwnedPiggies(address)": {
        "notice": "Count the number of ERC-59 tokens owned by a particular address"
      },
      "requestSettlementPrice(uint256,uint256)": {
        "notice": "Call the oracle to fetch the settlement price"
      },
      "settlePiggy(uint256)": {
        "notice": "Calculate the settlement of ownership of option collateral"
      }
    }
  }
}