{
  "contractName": "Debt",
  "abi": [
    {
      "constant": true,
      "inputs": [
        {
          "name": "",
          "type": "address"
        },
        {
          "name": "",
          "type": "address"
        }
      ],
      "name": "endorserToUserStake",
      "outputs": [
        {
          "name": "",
          "type": "uint256"
        }
      ],
      "payable": false,
      "stateMutability": "view",
      "type": "function",
      "signature": "0x02f363f1"
    },
    {
      "constant": true,
      "inputs": [
        {
          "name": "",
          "type": "address"
        }
      ],
      "name": "endorsedStake",
      "outputs": [
        {
          "name": "",
          "type": "uint256"
        }
      ],
      "payable": false,
      "stateMutability": "view",
      "type": "function",
      "signature": "0x23793698"
    },
    {
      "constant": true,
      "inputs": [
        {
          "name": "",
          "type": "address"
        }
      ],
      "name": "debts",
      "outputs": [
        {
          "name": "debtor",
          "type": "address"
        },
        {
          "name": "amount",
          "type": "uint256"
        },
        {
          "name": "lender",
          "type": "address"
        },
        {
          "name": "status",
          "type": "string"
        },
        {
          "name": "debtTotalAmount",
          "type": "uint256"
        },
        {
          "name": "repaidAmount",
          "type": "uint256"
        },
        {
          "name": "openingTime",
          "type": "uint256"
        }
      ],
      "payable": false,
      "stateMutability": "view",
      "type": "function",
      "signature": "0x2ecd4e7d"
    },
    {
      "constant": true,
      "inputs": [
        {
          "name": "",
          "type": "address"
        },
        {
          "name": "",
          "type": "uint256"
        }
      ],
      "name": "userEndorsers",
      "outputs": [
        {
          "name": "",
          "type": "address"
        }
      ],
      "payable": false,
      "stateMutability": "view",
      "type": "function",
      "signature": "0x46a8bfe2"
    },
    {
      "constant": true,
      "inputs": [
        {
          "name": "",
          "type": "address"
        }
      ],
      "name": "availableToEndorse",
      "outputs": [
        {
          "name": "",
          "type": "uint256"
        }
      ],
      "payable": false,
      "stateMutability": "view",
      "type": "function",
      "signature": "0x86b462c2"
    },
    {
      "constant": true,
      "inputs": [
        {
          "name": "",
          "type": "address"
        },
        {
          "name": "",
          "type": "address"
        }
      ],
      "name": "userToEndorsedStake",
      "outputs": [
        {
          "name": "",
          "type": "uint256"
        }
      ],
      "payable": false,
      "stateMutability": "view",
      "type": "function",
      "signature": "0xa8a5ec66"
    },
    {
      "constant": true,
      "inputs": [
        {
          "name": "",
          "type": "address"
        },
        {
          "name": "",
          "type": "address"
        }
      ],
      "name": "endorsements",
      "outputs": [
        {
          "name": "",
          "type": "bool"
        }
      ],
      "payable": false,
      "stateMutability": "view",
      "type": "function",
      "signature": "0xe3bf0aff"
    },
    {
      "constant": true,
      "inputs": [
        {
          "name": "",
          "type": "address"
        }
      ],
      "name": "stakedAmount",
      "outputs": [
        {
          "name": "",
          "type": "uint256"
        }
      ],
      "payable": false,
      "stateMutability": "view",
      "type": "function",
      "signature": "0xf9931855"
    },
    {
      "payable": true,
      "stateMutability": "payable",
      "type": "fallback"
    },
    {
      "anonymous": false,
      "inputs": [
        {
          "indexed": false,
          "name": "_staker",
          "type": "address"
        },
        {
          "indexed": false,
          "name": "_amount",
          "type": "uint256"
        }
      ],
      "name": "LogStakeMoney",
      "type": "event",
      "signature": "0x62c7741a593fffd08a3c06b7091df7b6f15a1df1f0dd6973a294c18dd20e45b9"
    },
    {
      "anonymous": false,
      "inputs": [
        {
          "indexed": false,
          "name": "_staker",
          "type": "address"
        },
        {
          "indexed": false,
          "name": "_amount",
          "type": "uint256"
        }
      ],
      "name": "LogWithdrawStakeMoney",
      "type": "event",
      "signature": "0x75293ffef634e3a98b3df17536efea0fc026ee8b422c755aecc9093f77d8ecf2"
    },
    {
      "anonymous": false,
      "inputs": [
        {
          "indexed": false,
          "name": "_staker",
          "type": "address"
        },
        {
          "indexed": false,
          "name": "_endorsed",
          "type": "address"
        },
        {
          "indexed": false,
          "name": "_amount",
          "type": "uint256"
        }
      ],
      "name": "LogEndorse",
      "type": "event",
      "signature": "0xf13deb3fec4383bd42e0b7de6c178b82a2cb900f3d5c06dc1596620242860b57"
    },
    {
      "anonymous": false,
      "inputs": [
        {
          "indexed": false,
          "name": "_staker",
          "type": "address"
        },
        {
          "indexed": false,
          "name": "_declined",
          "type": "address"
        }
      ],
      "name": "LogDeclineEndorsement",
      "type": "event",
      "signature": "0x9a321d8b34fc0eefafd2db0af243a071699ac11c864a68e8ad002aacb5bf41e2"
    },
    {
      "anonymous": false,
      "inputs": [
        {
          "indexed": false,
          "name": "_requester",
          "type": "address"
        },
        {
          "indexed": false,
          "name": "_amount",
          "type": "uint256"
        }
      ],
      "name": "LogRequestLending",
      "type": "event",
      "signature": "0x57ed06d23c45f213266ec963c4fac73d4512efcc5b0549fd3705c61c9eff4eec"
    },
    {
      "anonymous": false,
      "inputs": [
        {
          "indexed": false,
          "name": "_debtor",
          "type": "address"
        },
        {
          "indexed": false,
          "name": "_lender",
          "type": "address"
        },
        {
          "indexed": false,
          "name": "_amount",
          "type": "uint256"
        }
      ],
      "name": "LogLendMoney",
      "type": "event",
      "signature": "0xb367bb02b9fa71ae32431999d7c899d9f768f3d50693b7842438d3edc77aaaf7"
    },
    {
      "anonymous": false,
      "inputs": [
        {
          "indexed": false,
          "name": "_debtor",
          "type": "address"
        },
        {
          "indexed": false,
          "name": "_payer",
          "type": "address"
        },
        {
          "indexed": false,
          "name": "_amount",
          "type": "uint256"
        }
      ],
      "name": "LogRepayDebt",
      "type": "event",
      "signature": "0x736239e1c73c6e0a460e63dacf7f876175505b425804d3f327d56a4e5964963d"
    },
    {
      "anonymous": false,
      "inputs": [
        {
          "indexed": false,
          "name": "_debtor",
          "type": "address"
        }
      ],
      "name": "LogCloseDebt",
      "type": "event",
      "signature": "0xd92ffd322a6af8be7089fe62335436b07ce8cd3104667caeb6d2762b18de8a90"
    },
    {
      "anonymous": false,
      "inputs": [
        {
          "indexed": false,
          "name": "_debtor",
          "type": "address"
        }
      ],
      "name": "LogForceCloseDebt",
      "type": "event",
      "signature": "0x9ee536d838ccc229fb7f9e3f1a3e3e1c884ac99e588ade0a43c25413d08600a3"
    },
    {
      "constant": true,
      "inputs": [
        {
          "name": "_staker",
          "type": "address"
        }
      ],
      "name": "getStakedAmount",
      "outputs": [
        {
          "name": "",
          "type": "uint256"
        }
      ],
      "payable": false,
      "stateMutability": "view",
      "type": "function",
      "signature": "0x4da6a556"
    },
    {
      "constant": true,
      "inputs": [
        {
          "name": "_owner",
          "type": "address"
        }
      ],
      "name": "getUserEndorsers",
      "outputs": [
        {
          "name": "",
          "type": "address[]"
        }
      ],
      "payable": false,
      "stateMutability": "view",
      "type": "function",
      "signature": "0x91409151"
    },
    {
      "constant": false,
      "inputs": [],
      "name": "stakeMoney",
      "outputs": [],
      "payable": true,
      "stateMutability": "payable",
      "type": "function",
      "signature": "0xdaa7fd17"
    },
    {
      "constant": false,
      "inputs": [
        {
          "name": "_amount",
          "type": "uint256"
        }
      ],
      "name": "withdrawStakeMoney",
      "outputs": [],
      "payable": false,
      "stateMutability": "nonpayable",
      "type": "function",
      "signature": "0x9c21cf97"
    },
    {
      "constant": false,
      "inputs": [
        {
          "name": "_endorsed",
          "type": "address"
        },
        {
          "name": "_amount",
          "type": "uint256"
        }
      ],
      "name": "endorseUser",
      "outputs": [],
      "payable": false,
      "stateMutability": "nonpayable",
      "type": "function",
      "signature": "0x8ee25f11"
    },
    {
      "constant": false,
      "inputs": [
        {
          "name": "_endorsed",
          "type": "address"
        }
      ],
      "name": "declineEndorsement",
      "outputs": [],
      "payable": false,
      "stateMutability": "nonpayable",
      "type": "function",
      "signature": "0xa464382f"
    },
    {
      "constant": false,
      "inputs": [],
      "name": "requestLending",
      "outputs": [],
      "payable": false,
      "stateMutability": "nonpayable",
      "type": "function",
      "signature": "0xd1c873b0"
    },
    {
      "constant": false,
      "inputs": [
        {
          "name": "_debtor",
          "type": "address"
        }
      ],
      "name": "lendMoney",
      "outputs": [],
      "payable": true,
      "stateMutability": "payable",
      "type": "function",
      "signature": "0xee43d2bb"
    },
    {
      "constant": false,
      "inputs": [
        {
          "name": "_debtor",
          "type": "address"
        }
      ],
      "name": "repayDebt",
      "outputs": [],
      "payable": true,
      "stateMutability": "payable",
      "type": "function",
      "signature": "0x29ff5895"
    },
    {
      "constant": false,
      "inputs": [
        {
          "name": "_debtor",
          "type": "address"
        }
      ],
      "name": "closeDebt",
      "outputs": [],
      "payable": false,
      "stateMutability": "nonpayable",
      "type": "function",
      "signature": "0xf8fc9ff4"
    },
    {
      "constant": false,
      "inputs": [
        {
          "name": "_debtor",
          "type": "address"
        }
      ],
      "name": "forceCloseDebt",
      "outputs": [],
      "payable": false,
      "stateMutability": "nonpayable",
      "type": "function",
      "signature": "0xd954fceb"
    }
  ],
  "bytecode": "0x608060405234801561001057600080fd5b50614676806100206000396000f3fe608060405260043610610131576000357c0100000000000000000000000000000000000000000000000000000000900480639c21cf97116100bd578063daa7fd1711610081578063daa7fd171461078f578063e3bf0aff14610799578063ee43d2bb14610822578063f8fc9ff414610866578063f9931855146108b757610131565b80639c21cf9714610616578063a464382f14610651578063a8a5ec66146106a2578063d1c873b014610727578063d954fceb1461073e57610131565b806346a8bfe21161010457806346a8bfe2146103b05780634da6a5561461044b57806386b462c2146104b05780638ee25f1114610515578063914091511461057057610131565b806302f363f11461013657806323793698146101bb57806329ff5895146102205780632ecd4e7d14610264575b600080fd5b34801561014257600080fd5b506101a56004803603604081101561015957600080fd5b81019080803573ffffffffffffffffffffffffffffffffffffffff169060200190929190803573ffffffffffffffffffffffffffffffffffffffff16906020019092919050505061091c565b6040518082815260200191505060405180910390f35b3480156101c757600080fd5b5061020a600480360360208110156101de57600080fd5b81019080803573ffffffffffffffffffffffffffffffffffffffff169060200190929190505050610941565b6040518082815260200191505060405180910390f35b6102626004803603602081101561023657600080fd5b81019080803573ffffffffffffffffffffffffffffffffffffffff169060200190929190505050610959565b005b34801561027057600080fd5b506102b36004803603602081101561028757600080fd5b81019080803573ffffffffffffffffffffffffffffffffffffffff169060200190929190505050610d3e565b604051808873ffffffffffffffffffffffffffffffffffffffff1673ffffffffffffffffffffffffffffffffffffffff1681526020018781526020018673ffffffffffffffffffffffffffffffffffffffff1673ffffffffffffffffffffffffffffffffffffffff16815260200180602001858152602001848152602001838152602001828103825286818151815260200191508051906020019080838360005b8381101561036f578082015181840152602081019050610354565b50505050905090810190601f16801561039c5780820380516001836020036101000a031916815260200191505b509850505050505050505060405180910390f35b3480156103bc57600080fd5b50610409600480360360408110156103d357600080fd5b81019080803573ffffffffffffffffffffffffffffffffffffffff16906020019092919080359060200190929190505050610e58565b604051808273ffffffffffffffffffffffffffffffffffffffff1673ffffffffffffffffffffffffffffffffffffffff16815260200191505060405180910390f35b34801561045757600080fd5b5061049a6004803603602081101561046e57600080fd5b81019080803573ffffffffffffffffffffffffffffffffffffffff169060200190929190505050610ea3565b6040518082815260200191505060405180910390f35b3480156104bc57600080fd5b506104ff600480360360208110156104d357600080fd5b81019080803573ffffffffffffffffffffffffffffffffffffffff169060200190929190505050610eeb565b6040518082815260200191505060405180910390f35b34801561052157600080fd5b5061056e6004803603604081101561053857600080fd5b81019080803573ffffffffffffffffffffffffffffffffffffffff16906020019092919080359060200190929190505050610f03565b005b34801561057c57600080fd5b506105bf6004803603602081101561059357600080fd5b81019080803573ffffffffffffffffffffffffffffffffffffffff16906020019092919050505061162a565b6040518080602001828103825283818151815260200191508051906020019060200280838360005b838110156106025780820151818401526020810190506105e7565b505050509050019250505060405180910390f35b34801561062257600080fd5b5061064f6004803603602081101561063957600080fd5b81019080803590602001909291905050506116f7565b005b34801561065d57600080fd5b506106a06004803603602081101561067457600080fd5b81019080803573ffffffffffffffffffffffffffffffffffffffff169060200190929190505050611a3d565b005b3480156106ae57600080fd5b50610711600480360360408110156106c557600080fd5b81019080803573ffffffffffffffffffffffffffffffffffffffff169060200190929190803573ffffffffffffffffffffffffffffffffffffffff1690602001909291905050506120b7565b6040518082815260200191505060405180910390f35b34801561073357600080fd5b5061073c6120dc565b005b34801561074a57600080fd5b5061078d6004803603602081101561076157600080fd5b81019080803573ffffffffffffffffffffffffffffffffffffffff169060200190929190505050612524565b005b6107976133f5565b005b3480156107a557600080fd5b50610808600480360360408110156107bc57600080fd5b81019080803573ffffffffffffffffffffffffffffffffffffffff169060200190929190803573ffffffffffffffffffffffffffffffffffffffff16906020019092919050505061358a565b604051808215151515815260200191505060405180910390f35b6108646004803603602081101561083857600080fd5b81019080803573ffffffffffffffffffffffffffffffffffffffff1690602001909291905050506135b9565b005b34801561087257600080fd5b506108b56004803603602081101561088957600080fd5b81019080803573ffffffffffffffffffffffffffffffffffffffff1690602001909291905050506139ac565b005b3480156108c357600080fd5b50610906600480360360208110156108da57600080fd5b81019080803573ffffffffffffffffffffffffffffffffffffffff16906020019092919050505061444c565b6040518082815260200191505060405180910390f35b6005602052816000526040600020602052806000526040600020600091509150505481565b60026020528060005260406000206000915090505481565b60405160200180807f6163636570746564000000000000000000000000000000000000000000000000815250600801905060405160208183030381529060405280519060200120600760008373ffffffffffffffffffffffffffffffffffffffff1673ffffffffffffffffffffffffffffffffffffffff1681526020019081526020016000206003016040516020018082805460018160011615610100020316600290048015610a405780601f10610a1e576101008083540402835291820191610a40565b820191906000526020600020905b815481529060010190602001808311610a2c575b50509150506040516020818303038152906040528051906020012014610ace576040517f08c379a000000000000000000000000000000000000000000000000000000000815260040180806020018281038252601e8152602001807f64656274207374617475732073686f756c64206265206163636570746564000081525060200191505060405180910390fd5b600760008273ffffffffffffffffffffffffffffffffffffffff1673ffffffffffffffffffffffffffffffffffffffff16815260200190815260200160002060040154610b66600760008473ffffffffffffffffffffffffffffffffffffffff1673ffffffffffffffffffffffffffffffffffffffff168152602001908152602001600020600501543461446490919063ffffffff16565b1115610bda576040517f08c379a000000000000000000000000000000000000000000000000000000000815260040180806020018281038252601a8152602001807f63616e2774207265706179206d6f7265207468616e206465627400000000000081525060200191505060405180910390fd5b6000600760008373ffffffffffffffffffffffffffffffffffffffff1673ffffffffffffffffffffffffffffffffffffffff1681526020019081526020016000209050610c3434826005015461446490919063ffffffff16565b8160050181905550806004015481600501541415610c9b576040518060400160405280600981526020017f636f6d706c657465640000000000000000000000000000000000000000000000815250816003019080519060200190610c99929190614503565b505b7f736239e1c73c6e0a460e63dacf7f876175505b425804d3f327d56a4e5964963d823334604051808473ffffffffffffffffffffffffffffffffffffffff1673ffffffffffffffffffffffffffffffffffffffff1681526020018373ffffffffffffffffffffffffffffffffffffffff1673ffffffffffffffffffffffffffffffffffffffff168152602001828152602001935050505060405180910390a15050565b60076020528060005260406000206000915090508060000160009054906101000a900473ffffffffffffffffffffffffffffffffffffffff16908060010154908060020160009054906101000a900473ffffffffffffffffffffffffffffffffffffffff1690806003018054600181600116156101000203166002900480601f016020809104026020016040519081016040528092919081815260200182805460018160011615610100020316600290048015610e3c5780601f10610e1157610100808354040283529160200191610e3c565b820191906000526020600020905b815481529060010190602001808311610e1f57829003601f168201915b5050505050908060040154908060050154908060060154905087565b60066020528160005260406000208181548110610e7157fe5b906000526020600020016000915091509054906101000a900473ffffffffffffffffffffffffffffffffffffffff1681565b60008060008373ffffffffffffffffffffffffffffffffffffffff1673ffffffffffffffffffffffffffffffffffffffff168152602001908152602001600020549050919050565b60036020528060005260406000206000915090505481565b80600360003373ffffffffffffffffffffffffffffffffffffffff1673ffffffffffffffffffffffffffffffffffffffff168152602001908152602001600020541015610fb8576040517f08c379a00000000000000000000000000000000000000000000000000000000081526004018080602001828103825260108152602001807f6e6f7420656e6f756768207374616b650000000000000000000000000000000081525060200191505060405180910390fd5b60405160200180600001905060405160208183030381529060405280519060200120600760003373ffffffffffffffffffffffffffffffffffffffff1673ffffffffffffffffffffffffffffffffffffffff168152602001908152602001600020600301604051602001808280546001816001161561010002031660029004801561107a5780601f1061105857610100808354040283529182019161107a565b820191906000526020600020905b815481529060010190602001808311611066575b50509150506040516020818303038152906040528051906020012014611108576040517f08c379a000000000000000000000000000000000000000000000000000000000815260040180806020018281038252601f8152602001807f74686572652073686f756c646e27742065786973746520616e7920646562740081525060200191505060405180910390fd5b60018060003373ffffffffffffffffffffffffffffffffffffffff1673ffffffffffffffffffffffffffffffffffffffff16815260200190815260200160002060008473ffffffffffffffffffffffffffffffffffffffff1673ffffffffffffffffffffffffffffffffffffffff16815260200190815260200160002060006101000a81548160ff0219169083151502179055506111ee81600360003373ffffffffffffffffffffffffffffffffffffffff1673ffffffffffffffffffffffffffffffffffffffff1681526020019081526020016000205461448390919063ffffffff16565b600360003373ffffffffffffffffffffffffffffffffffffffff1673ffffffffffffffffffffffffffffffffffffffff1681526020019081526020016000208190555061128381600260008573ffffffffffffffffffffffffffffffffffffffff1673ffffffffffffffffffffffffffffffffffffffff1681526020019081526020016000205461446490919063ffffffff16565b600260008473ffffffffffffffffffffffffffffffffffffffff1673ffffffffffffffffffffffffffffffffffffffff1681526020019081526020016000208190555061135581600460003373ffffffffffffffffffffffffffffffffffffffff1673ffffffffffffffffffffffffffffffffffffffff16815260200190815260200160002060008573ffffffffffffffffffffffffffffffffffffffff1673ffffffffffffffffffffffffffffffffffffffff1681526020019081526020016000205461446490919063ffffffff16565b600460003373ffffffffffffffffffffffffffffffffffffffff1673ffffffffffffffffffffffffffffffffffffffff16815260200190815260200160002060008473ffffffffffffffffffffffffffffffffffffffff1673ffffffffffffffffffffffffffffffffffffffff1681526020019081526020016000208190555061146481600560008573ffffffffffffffffffffffffffffffffffffffff1673ffffffffffffffffffffffffffffffffffffffff16815260200190815260200160002060003373ffffffffffffffffffffffffffffffffffffffff1673ffffffffffffffffffffffffffffffffffffffff1681526020019081526020016000205461446490919063ffffffff16565b600560008473ffffffffffffffffffffffffffffffffffffffff1673ffffffffffffffffffffffffffffffffffffffff16815260200190815260200160002060003373ffffffffffffffffffffffffffffffffffffffff1673ffffffffffffffffffffffffffffffffffffffff16815260200190815260200160002081905550600660008373ffffffffffffffffffffffffffffffffffffffff1673ffffffffffffffffffffffffffffffffffffffff1681526020019081526020016000203390806001815401808255809150509060018203906000526020600020016000909192909190916101000a81548173ffffffffffffffffffffffffffffffffffffffff021916908373ffffffffffffffffffffffffffffffffffffffff160217905550507ff13deb3fec4383bd42e0b7de6c178b82a2cb900f3d5c06dc1596620242860b57338383604051808473ffffffffffffffffffffffffffffffffffffffff1673ffffffffffffffffffffffffffffffffffffffff1681526020018373ffffffffffffffffffffffffffffffffffffffff1673ffffffffffffffffffffffffffffffffffffffff168152602001828152602001935050505060405180910390a15050565b6060600660008373ffffffffffffffffffffffffffffffffffffffff1673ffffffffffffffffffffffffffffffffffffffff1681526020019081526020016000208054806020026020016040519081016040528092919081815260200182805480156116eb57602002820191906000526020600020905b8160009054906101000a900473ffffffffffffffffffffffffffffffffffffffff1673ffffffffffffffffffffffffffffffffffffffff16815260200190600101908083116116a1575b50505050509050919050565b806000803373ffffffffffffffffffffffffffffffffffffffff1673ffffffffffffffffffffffffffffffffffffffff1681526020019081526020016000205410156117ab576040517f08c379a00000000000000000000000000000000000000000000000000000000081526004018080602001828103825260208152602001807f63616e2774207769746864726177206d6f7265207468616e206465706f73697481525060200191505060405180910390fd5b80600360003373ffffffffffffffffffffffffffffffffffffffff1673ffffffffffffffffffffffffffffffffffffffff168152602001908152602001600020541015611860576040517f08c379a000000000000000000000000000000000000000000000000000000000815260040180806020018281038252601d8152602001807f63616e277420776974686472617720656e646f72736564206d6f6e657900000081525060200191505060405180910390fd5b6118b1816000803373ffffffffffffffffffffffffffffffffffffffff1673ffffffffffffffffffffffffffffffffffffffff1681526020019081526020016000205461448390919063ffffffff16565b6000803373ffffffffffffffffffffffffffffffffffffffff1673ffffffffffffffffffffffffffffffffffffffff1681526020019081526020016000208190555061194581600360003373ffffffffffffffffffffffffffffffffffffffff1673ffffffffffffffffffffffffffffffffffffffff1681526020019081526020016000205461448390919063ffffffff16565b600360003373ffffffffffffffffffffffffffffffffffffffff1673ffffffffffffffffffffffffffffffffffffffff168152602001908152602001600020819055503373ffffffffffffffffffffffffffffffffffffffff166108fc829081150290604051600060405180830381858888f193505050501580156119ce573d6000803e3d6000fd5b507f75293ffef634e3a98b3df17536efea0fc026ee8b422c755aecc9093f77d8ecf23382604051808373ffffffffffffffffffffffffffffffffffffffff1673ffffffffffffffffffffffffffffffffffffffff1681526020018281526020019250505060405180910390a150565b60405160200180600001905060405160208183030381529060405280519060200120600760008373ffffffffffffffffffffffffffffffffffffffff1673ffffffffffffffffffffffffffffffffffffffff1681526020019081526020016000206003016040516020018082805460018160011615610100020316600290048015611aff5780601f10611add576101008083540402835291820191611aff565b820191906000526020600020905b815481529060010190602001808311611aeb575b50509150506040516020818303038152906040528051906020012014611b8d576040517f08c379a000000000000000000000000000000000000000000000000000000000815260040180806020018281038252601f8152602001807f74686572652073686f756c646e27742065786973746520616e7920646562740081525060200191505060405180910390fd5b6000600160003373ffffffffffffffffffffffffffffffffffffffff1673ffffffffffffffffffffffffffffffffffffffff16815260200190815260200160002060008373ffffffffffffffffffffffffffffffffffffffff1673ffffffffffffffffffffffffffffffffffffffff16815260200190815260200160002060006101000a81548160ff021916908315150217905550611cf0600460003373ffffffffffffffffffffffffffffffffffffffff1673ffffffffffffffffffffffffffffffffffffffff16815260200190815260200160002060008373ffffffffffffffffffffffffffffffffffffffff1673ffffffffffffffffffffffffffffffffffffffff16815260200190815260200160002054600360003373ffffffffffffffffffffffffffffffffffffffff1673ffffffffffffffffffffffffffffffffffffffff1681526020019081526020016000205461446490919063ffffffff16565b600360003373ffffffffffffffffffffffffffffffffffffffff1673ffffffffffffffffffffffffffffffffffffffff16815260200190815260200160002081905550611e01600460003373ffffffffffffffffffffffffffffffffffffffff1673ffffffffffffffffffffffffffffffffffffffff16815260200190815260200160002060008373ffffffffffffffffffffffffffffffffffffffff1673ffffffffffffffffffffffffffffffffffffffff16815260200190815260200160002054600260008473ffffffffffffffffffffffffffffffffffffffff1673ffffffffffffffffffffffffffffffffffffffff1681526020019081526020016000205461448390919063ffffffff16565b600260008373ffffffffffffffffffffffffffffffffffffffff1673ffffffffffffffffffffffffffffffffffffffff168152602001908152602001600020819055506000600460003373ffffffffffffffffffffffffffffffffffffffff1673ffffffffffffffffffffffffffffffffffffffff16815260200190815260200160002060008373ffffffffffffffffffffffffffffffffffffffff1673ffffffffffffffffffffffffffffffffffffffff168152602001908152602001600020819055506000600560008373ffffffffffffffffffffffffffffffffffffffff1673ffffffffffffffffffffffffffffffffffffffff16815260200190815260200160002060003373ffffffffffffffffffffffffffffffffffffffff1673ffffffffffffffffffffffffffffffffffffffff1681526020019081526020016000208190555060008090505b600660008373ffffffffffffffffffffffffffffffffffffffff1673ffffffffffffffffffffffffffffffffffffffff1681526020019081526020016000208054905081101561201c57600660008373ffffffffffffffffffffffffffffffffffffffff1673ffffffffffffffffffffffffffffffffffffffff1681526020019081526020016000208181548110611fe257fe5b9060005260206000200160006101000a81549073ffffffffffffffffffffffffffffffffffffffff02191690558080600101915050611f4e565b507f9a321d8b34fc0eefafd2db0af243a071699ac11c864a68e8ad002aacb5bf41e23382604051808373ffffffffffffffffffffffffffffffffffffffff1673ffffffffffffffffffffffffffffffffffffffff1681526020018273ffffffffffffffffffffffffffffffffffffffff1673ffffffffffffffffffffffffffffffffffffffff1681526020019250505060405180910390a150565b6004602052816000526040600020602052806000526040600020600091509150505481565b60405160200180600001905060405160208183030381529060405280519060200120600760003373ffffffffffffffffffffffffffffffffffffffff1673ffffffffffffffffffffffffffffffffffffffff168152602001908152602001600020600301604051602001808280546001816001161561010002031660029004801561219e5780601f1061217c57610100808354040283529182019161219e565b820191906000526020600020905b81548152906001019060200180831161218a575b5050915050604051602081830303815290604052805190602001201461222c576040517f08c379a000000000000000000000000000000000000000000000000000000000815260040180806020018281038252601f8152602001807f74686572652073686f756c646e27742065786973746520616e7920646562740081525060200191505060405180910390fd5b600061228060028060003373ffffffffffffffffffffffffffffffffffffffff1673ffffffffffffffffffffffffffffffffffffffff168152602001908152602001600020546144a390919063ffffffff16565b905060006122ab606461229d6005856144c990919063ffffffff16565b6144a390919063ffffffff16565b905060006122c2838361446490919063ffffffff16565b90506000600260003373ffffffffffffffffffffffffffffffffffffffff1673ffffffffffffffffffffffffffffffffffffffff168152602001908152602001600020819055506040518060e001604052803373ffffffffffffffffffffffffffffffffffffffff168152602001848152602001600073ffffffffffffffffffffffffffffffffffffffff1681526020016040518060400160405280600981526020017f726571756573746564000000000000000000000000000000000000000000000081525081526020018281526020016000815260200142815250600760003373ffffffffffffffffffffffffffffffffffffffff1673ffffffffffffffffffffffffffffffffffffffff16815260200190815260200160002060008201518160000160006101000a81548173ffffffffffffffffffffffffffffffffffffffff021916908373ffffffffffffffffffffffffffffffffffffffff1602179055506020820151816001015560408201518160020160006101000a81548173ffffffffffffffffffffffffffffffffffffffff021916908373ffffffffffffffffffffffffffffffffffffffff1602179055506060820151816003019080519060200190612492929190614583565b506080820151816004015560a0820151816005015560c082015181600601559050507f57ed06d23c45f213266ec963c4fac73d4512efcc5b0549fd3705c61c9eff4eec3384604051808373ffffffffffffffffffffffffffffffffffffffff1673ffffffffffffffffffffffffffffffffffffffff1681526020018281526020019250505060405180910390a1505050565b624f1a00600760008373ffffffffffffffffffffffffffffffffffffffff1673ffffffffffffffffffffffffffffffffffffffff16815260200190815260200160002060060154014210156125c4576040517f08c379a00000000000000000000000000000000000000000000000000000000081526004018080602001828103825260228152602001806146296022913960400191505060405180910390fd5b6060600760008373ffffffffffffffffffffffffffffffffffffffff1673ffffffffffffffffffffffffffffffffffffffff1681526020019081526020016000206003018054600181600116156101000203166002900480601f01602080910402602001604051908101604052809291908181526020018280546001816001161561010002031660029004801561269c5780601f106126715761010080835404028352916020019161269c565b820191906000526020600020905b81548152906001019060200180831161267f57829003601f168201915b50505050509050612798600760008473ffffffffffffffffffffffffffffffffffffffff1673ffffffffffffffffffffffffffffffffffffffff16815260200190815260200160002060010154600080600760008773ffffffffffffffffffffffffffffffffffffffff1673ffffffffffffffffffffffffffffffffffffffff16815260200190815260200160002060020160009054906101000a900473ffffffffffffffffffffffffffffffffffffffff1673ffffffffffffffffffffffffffffffffffffffff1673ffffffffffffffffffffffffffffffffffffffff1681526020019081526020016000205461446490919063ffffffff16565b600080600760008673ffffffffffffffffffffffffffffffffffffffff1673ffffffffffffffffffffffffffffffffffffffff16815260200190815260200160002060020160009054906101000a900473ffffffffffffffffffffffffffffffffffffffff1673ffffffffffffffffffffffffffffffffffffffff1673ffffffffffffffffffffffffffffffffffffffff1681526020019081526020016000208190555060006128946002600760008673ffffffffffffffffffffffffffffffffffffffff1673ffffffffffffffffffffffffffffffffffffffff168152602001908152602001600020600101546144c990919063ffffffff16565b90506000600760008573ffffffffffffffffffffffffffffffffffffffff1673ffffffffffffffffffffffffffffffffffffffff1681526020019081526020016000206005015490506000600760008673ffffffffffffffffffffffffffffffffffffffff1673ffffffffffffffffffffffffffffffffffffffff168152602001908152602001600020905060405180602001604052806000815250816003019080519060200190612947929190614503565b5060008160020160006101000a81548173ffffffffffffffffffffffffffffffffffffffff021916908373ffffffffffffffffffffffffffffffffffffffff16021790555060008160000160006101000a81548173ffffffffffffffffffffffffffffffffffffffff021916908373ffffffffffffffffffffffffffffffffffffffff1602179055506000816001018190555060008160040181905550600081600501819055506000816006018190555060405160200180807f7265717565737465640000000000000000000000000000000000000000000000815250600901905060405160208183030381529060405280519060200120846040516020018082805190602001908083835b60208310612a765780518252602082019150602081019050602083039250612a53565b6001836020036101000a038019825116818451168082178552505050505050905001915050604051602081830303815290604052805190602001201415612e5f5760008090505b600660008773ffffffffffffffffffffffffffffffffffffffff1673ffffffffffffffffffffffffffffffffffffffff16815260200190815260200160002080549050811015612e5957600073ffffffffffffffffffffffffffffffffffffffff16600660008873ffffffffffffffffffffffffffffffffffffffff1673ffffffffffffffffffffffffffffffffffffffff1681526020019081526020016000208281548110612b6957fe5b9060005260206000200160009054906101000a900473ffffffffffffffffffffffffffffffffffffffff1673ffffffffffffffffffffffffffffffffffffffff1614612e4c576000600660008873ffffffffffffffffffffffffffffffffffffffff1673ffffffffffffffffffffffffffffffffffffffff1681526020019081526020016000208281548110612bfb57fe5b9060005260206000200160009054906101000a900473ffffffffffffffffffffffffffffffffffffffff169050612cf6600560008973ffffffffffffffffffffffffffffffffffffffff1673ffffffffffffffffffffffffffffffffffffffff16815260200190815260200160002060008373ffffffffffffffffffffffffffffffffffffffff1673ffffffffffffffffffffffffffffffffffffffff16815260200190815260200160002054600260008a73ffffffffffffffffffffffffffffffffffffffff1673ffffffffffffffffffffffffffffffffffffffff1681526020019081526020016000205461446490919063ffffffff16565b600260008973ffffffffffffffffffffffffffffffffffffffff1673ffffffffffffffffffffffffffffffffffffffff16815260200190815260200160002081905550612e07600560008973ffffffffffffffffffffffffffffffffffffffff1673ffffffffffffffffffffffffffffffffffffffff16815260200190815260200160002060008373ffffffffffffffffffffffffffffffffffffffff1673ffffffffffffffffffffffffffffffffffffffff16815260200190815260200160002054600360008473ffffffffffffffffffffffffffffffffffffffff1673ffffffffffffffffffffffffffffffffffffffff1681526020019081526020016000205461446490919063ffffffff16565b600360008373ffffffffffffffffffffffffffffffffffffffff1673ffffffffffffffffffffffffffffffffffffffff16815260200190815260200160002081905550505b8080600101915050612abd565b5061338b565b60008090505b600660008773ffffffffffffffffffffffffffffffffffffffff1673ffffffffffffffffffffffffffffffffffffffff1681526020019081526020016000208054905081101561338957600073ffffffffffffffffffffffffffffffffffffffff16600660008873ffffffffffffffffffffffffffffffffffffffff1673ffffffffffffffffffffffffffffffffffffffff1681526020019081526020016000208281548110612f1157fe5b9060005260206000200160009054906101000a900473ffffffffffffffffffffffffffffffffffffffff1673ffffffffffffffffffffffffffffffffffffffff161461337c576000600660008873ffffffffffffffffffffffffffffffffffffffff1673ffffffffffffffffffffffffffffffffffffffff1681526020019081526020016000208281548110612fa357fe5b9060005260206000200160009054906101000a900473ffffffffffffffffffffffffffffffffffffffff16905060006130626002600560008b73ffffffffffffffffffffffffffffffffffffffff1673ffffffffffffffffffffffffffffffffffffffff16815260200190815260200160002060008573ffffffffffffffffffffffffffffffffffffffff1673ffffffffffffffffffffffffffffffffffffffff168152602001908152602001600020546144a390919063ffffffff16565b905061314481613136600560008c73ffffffffffffffffffffffffffffffffffffffff1673ffffffffffffffffffffffffffffffffffffffff16815260200190815260200160002060008673ffffffffffffffffffffffffffffffffffffffff1673ffffffffffffffffffffffffffffffffffffffff16815260200190815260200160002054600260008d73ffffffffffffffffffffffffffffffffffffffff1673ffffffffffffffffffffffffffffffffffffffff1681526020019081526020016000205461446490919063ffffffff16565b61448390919063ffffffff16565b600260008a73ffffffffffffffffffffffffffffffffffffffff1673ffffffffffffffffffffffffffffffffffffffff16815260200190815260200160002081905550600061322a8761321c600560008d73ffffffffffffffffffffffffffffffffffffffff1673ffffffffffffffffffffffffffffffffffffffff16815260200190815260200160002060008773ffffffffffffffffffffffffffffffffffffffff1673ffffffffffffffffffffffffffffffffffffffff16815260200190815260200160002054896144c990919063ffffffff16565b6144a390919063ffffffff16565b90506132908161328284600360008873ffffffffffffffffffffffffffffffffffffffff1673ffffffffffffffffffffffffffffffffffffffff1681526020019081526020016000205461448390919063ffffffff16565b61446490919063ffffffff16565b600360008573ffffffffffffffffffffffffffffffffffffffff1673ffffffffffffffffffffffffffffffffffffffff1681526020019081526020016000208190555061333681613328846000808873ffffffffffffffffffffffffffffffffffffffff1673ffffffffffffffffffffffffffffffffffffffff1681526020019081526020016000205461448390919063ffffffff16565b61446490919063ffffffff16565b6000808573ffffffffffffffffffffffffffffffffffffffff1673ffffffffffffffffffffffffffffffffffffffff168152602001908152602001600020819055505050505b8080600101915050612e65565b505b7f9ee536d838ccc229fb7f9e3f1a3e3e1c884ac99e588ade0a43c25413d08600a385604051808273ffffffffffffffffffffffffffffffffffffffff1673ffffffffffffffffffffffffffffffffffffffff16815260200191505060405180910390a15050505050565b613446346000803373ffffffffffffffffffffffffffffffffffffffff1673ffffffffffffffffffffffffffffffffffffffff1681526020019081526020016000205461446490919063ffffffff16565b6000803373ffffffffffffffffffffffffffffffffffffffff1673ffffffffffffffffffffffffffffffffffffffff168152602001908152602001600020819055506134da34600360003373ffffffffffffffffffffffffffffffffffffffff1673ffffffffffffffffffffffffffffffffffffffff1681526020019081526020016000205461446490919063ffffffff16565b600360003373ffffffffffffffffffffffffffffffffffffffff1673ffffffffffffffffffffffffffffffffffffffff168152602001908152602001600020819055507f62c7741a593fffd08a3c06b7091df7b6f15a1df1f0dd6973a294c18dd20e45b93334604051808373ffffffffffffffffffffffffffffffffffffffff1673ffffffffffffffffffffffffffffffffffffffff1681526020018281526020019250505060405180910390a1565b60016020528160005260406000206020528060005260406000206000915091509054906101000a900460ff1681565b60405160200180807f7265717565737465640000000000000000000000000000000000000000000000815250600901905060405160208183030381529060405280519060200120600760008373ffffffffffffffffffffffffffffffffffffffff1673ffffffffffffffffffffffffffffffffffffffff16815260200190815260200160002060030160405160200180828054600181600116156101000203166002900480156136a05780601f1061367e5761010080835404028352918201916136a0565b820191906000526020600020905b81548152906001019060200180831161368c575b5050915050604051602081830303815290604052805190602001201461372e576040517f08c379a000000000000000000000000000000000000000000000000000000000815260040180806020018281038252601f8152602001807f64656274207374617475732073686f756c64206265207265717565737465640081525060200191505060405180910390fd5b600760008273ffffffffffffffffffffffffffffffffffffffff1673ffffffffffffffffffffffffffffffffffffffff1681526020019081526020016000206001015434146137e5576040517f08c379a000000000000000000000000000000000000000000000000000000000815260040180806020018281038252601b8152602001807f616d6f756e74206d75737420657175616c20726571756573746564000000000081525060200191505060405180910390fd5b6000600760008373ffffffffffffffffffffffffffffffffffffffff1673ffffffffffffffffffffffffffffffffffffffff16815260200190815260200160002090506040518060400160405280600881526020017f6163636570746564000000000000000000000000000000000000000000000000815250816003019080519060200190613875929190614503565b50338160020160006101000a81548173ffffffffffffffffffffffffffffffffffffffff021916908373ffffffffffffffffffffffffffffffffffffffff1602179055504281600601819055508173ffffffffffffffffffffffffffffffffffffffff166108fc349081150290604051600060405180830381858888f19350505050158015613908573d6000803e3d6000fd5b507fb367bb02b9fa71ae32431999d7c899d9f768f3d50693b7842438d3edc77aaaf7823334604051808473ffffffffffffffffffffffffffffffffffffffff1673ffffffffffffffffffffffffffffffffffffffff1681526020018373ffffffffffffffffffffffffffffffffffffffff1673ffffffffffffffffffffffffffffffffffffffff168152602001828152602001935050505060405180910390a15050565b60405160200180807f636f6d706c657465640000000000000000000000000000000000000000000000815250600901905060405160208183030381529060405280519060200120600760008373ffffffffffffffffffffffffffffffffffffffff1673ffffffffffffffffffffffffffffffffffffffff1681526020019081526020016000206003016040516020018082805460018160011615610100020316600290048015613a935780601f10613a71576101008083540402835291820191613a93565b820191906000526020600020905b815481529060010190602001808311613a7f575b50509150506040516020818303038152906040528051906020012014613b21576040517f08c379a00000000000000000000000000000000000000000000000000000000081526004018080602001828103825260168152602001807f64656274206d75737420626520636f6d706c657465640000000000000000000081525060200191505060405180910390fd5b6000600760008373ffffffffffffffffffffffffffffffffffffffff1673ffffffffffffffffffffffffffffffffffffffff1681526020019081526020016000206001015490506000600760008473ffffffffffffffffffffffffffffffffffffffff1673ffffffffffffffffffffffffffffffffffffffff1681526020019081526020016000206004015490506000613c076002600760008773ffffffffffffffffffffffffffffffffffffffff1673ffffffffffffffffffffffffffffffffffffffff168152602001908152602001600020600101546144c990919063ffffffff16565b90506000613c316002613c23868661448390919063ffffffff16565b6144a390919063ffffffff16565b90506000613c8a600760008873ffffffffffffffffffffffffffffffffffffffff1673ffffffffffffffffffffffffffffffffffffffff168152602001908152602001600020600101548361446490919063ffffffff16565b905080600080600760008a73ffffffffffffffffffffffffffffffffffffffff1673ffffffffffffffffffffffffffffffffffffffff16815260200190815260200160002060020160009054906101000a900473ffffffffffffffffffffffffffffffffffffffff1673ffffffffffffffffffffffffffffffffffffffff1673ffffffffffffffffffffffffffffffffffffffff168152602001908152602001600020819055508060036000600760008a73ffffffffffffffffffffffffffffffffffffffff1673ffffffffffffffffffffffffffffffffffffffff16815260200190815260200160002060020160009054906101000a900473ffffffffffffffffffffffffffffffffffffffff1673ffffffffffffffffffffffffffffffffffffffff1673ffffffffffffffffffffffffffffffffffffffff168152602001908152602001600020819055506000600760008873ffffffffffffffffffffffffffffffffffffffff1673ffffffffffffffffffffffffffffffffffffffff168152602001908152602001600020905060405180602001604052806000815250816003019080519060200190613e41929190614503565b5060008160020160006101000a81548173ffffffffffffffffffffffffffffffffffffffff021916908373ffffffffffffffffffffffffffffffffffffffff16021790555060008160000160006101000a81548173ffffffffffffffffffffffffffffffffffffffff021916908373ffffffffffffffffffffffffffffffffffffffff1602179055506000816001018190555060008160040181905550600081600501819055506000816006018190555060008090505b600660008973ffffffffffffffffffffffffffffffffffffffff1673ffffffffffffffffffffffffffffffffffffffff168152602001908152602001600020805490508110156143df57600073ffffffffffffffffffffffffffffffffffffffff16600660008a73ffffffffffffffffffffffffffffffffffffffff1673ffffffffffffffffffffffffffffffffffffffff1681526020019081526020016000208281548110613fa457fe5b9060005260206000200160009054906101000a900473ffffffffffffffffffffffffffffffffffffffff1673ffffffffffffffffffffffffffffffffffffffff16146143d2576000600660008a73ffffffffffffffffffffffffffffffffffffffff1673ffffffffffffffffffffffffffffffffffffffff168152602001908152602001600020828154811061403657fe5b9060005260206000200160009054906101000a900473ffffffffffffffffffffffffffffffffffffffff169050614131600560008b73ffffffffffffffffffffffffffffffffffffffff1673ffffffffffffffffffffffffffffffffffffffff16815260200190815260200160002060008373ffffffffffffffffffffffffffffffffffffffff1673ffffffffffffffffffffffffffffffffffffffff16815260200190815260200160002054600260008c73ffffffffffffffffffffffffffffffffffffffff1673ffffffffffffffffffffffffffffffffffffffff1681526020019081526020016000205461446490919063ffffffff16565b600260008b73ffffffffffffffffffffffffffffffffffffffff1673ffffffffffffffffffffffffffffffffffffffff16815260200190815260200160002081905550600061421787614209600560008e73ffffffffffffffffffffffffffffffffffffffff1673ffffffffffffffffffffffffffffffffffffffff16815260200190815260200160002060008673ffffffffffffffffffffffffffffffffffffffff1673ffffffffffffffffffffffffffffffffffffffff16815260200190815260200160002054896144c990919063ffffffff16565b6144a390919063ffffffff16565b90506142f9816142eb600560008e73ffffffffffffffffffffffffffffffffffffffff1673ffffffffffffffffffffffffffffffffffffffff16815260200190815260200160002060008673ffffffffffffffffffffffffffffffffffffffff1673ffffffffffffffffffffffffffffffffffffffff16815260200190815260200160002054600360008773ffffffffffffffffffffffffffffffffffffffff1673ffffffffffffffffffffffffffffffffffffffff1681526020019081526020016000205461446490919063ffffffff16565b61446490919063ffffffff16565b600360008473ffffffffffffffffffffffffffffffffffffffff1673ffffffffffffffffffffffffffffffffffffffff1681526020019081526020016000208190555061438d816000808573ffffffffffffffffffffffffffffffffffffffff1673ffffffffffffffffffffffffffffffffffffffff1681526020019081526020016000205461446490919063ffffffff16565b6000808473ffffffffffffffffffffffffffffffffffffffff1673ffffffffffffffffffffffffffffffffffffffff1681526020019081526020016000208190555050505b8080600101915050613ef8565b507fd92ffd322a6af8be7089fe62335436b07ce8cd3104667caeb6d2762b18de8a9087604051808273ffffffffffffffffffffffffffffffffffffffff1673ffffffffffffffffffffffffffffffffffffffff16815260200191505060405180910390a150505050505050565b60006020528060005260406000206000915090505481565b60008082840190508381101561447957600080fd5b8091505092915050565b60008282111561449257600080fd5b600082840390508091505092915050565b60008082116144b157600080fd5b60008284816144bc57fe5b0490508091505092915050565b6000808314156144dc57600090506144fd565b60008284029050828482816144ed57fe5b04146144f857600080fd5b809150505b92915050565b828054600181600116156101000203166002900490600052602060002090601f016020900481019282601f1061454457805160ff1916838001178555614572565b82800160010185558215614572579182015b82811115614571578251825591602001919060010190614556565b5b50905061457f9190614603565b5090565b828054600181600116156101000203166002900490600052602060002090601f016020900481019282601f106145c457805160ff19168380011785556145f2565b828001600101855582156145f2579182015b828111156145f15782518255916020019190600101906145d6565b5b5090506145ff9190614603565b5090565b61462591905b80821115614621576000816000905550600101614609565b5090565b9056fe74696d65206d7573742062652067726561746572207468616e2032206d6f6e746873a165627a7a723058205f9f7929219bfdbe72fcec6451ff0e06c949dcf684e96effd19206267f210d210029",
  "source": "pragma solidity ^0.5.0;\nimport '../node_modules/openzeppelin-solidity/contracts/math/SafeMath.sol';\n\ncontract Debt {\n\n  using SafeMath for uint256;\n  \n  /** @notice Logs when an User stakes money. */\n  event LogStakeMoney(\n    address _staker,\n    uint256 _amount\n  );\n\n  /** @notice Logs when an User withdraws stake money. */\n  event LogWithdrawStakeMoney(\n    address _staker,\n    uint256 _amount\n  );\n\n  /** @notice Logs when an User endorses another user. */\n  event LogEndorse(\n    address _staker,\n    address _endorsed,\n    uint256 _amount\n  );\n\n  /** @notice Logs when an User removes endorsement of another user. */\n  event LogDeclineEndorsement(\n    address _staker,\n    address _declined\n  );\n  \n  /** @notice Logs when an User requests a lending. */\n  event LogRequestLending(\n    address _requester,\n    uint256 _amount\n  );\n\n  /** @notice Logs when an User lends money. */\n  event LogLendMoney(\n    address _debtor,\n    address _lender,\n    uint256 _amount\n  );\n  \n  /** @notice Logs when an User repays money. */\n  event LogRepayDebt(\n    address _debtor,\n    address _payer,\n    uint256 _amount\n  );\n\n  /** @notice Logs closing the Debt. */\n  event LogCloseDebt(\n    address _debtor\n  );\n\n  /** @notice Logs force closed Debt. */\n  event LogForceCloseDebt(\n    address _debtor\n  );\n\n  /** @dev struct of debt object */ \n  struct debtStruct{\n    address debtor;\n    uint256 amount;\n    address lender;\n    string status; //requested, accepted, completed\n    uint256 debtTotalAmount; /** @dev amount + 5% */\n    uint256 repaidAmount;\n    uint256 openingTime; \n  }\n\n  /** @dev mapping of users and it's staked amount */ \n  mapping (address => uint256) public stakedAmount; \n  /** @dev mapping of users endorsed by an user */ \n  mapping (address => mapping( address => bool)) public endorsements;\n  /** @dev mapping of stake endorsed money available used for request lending */ \n  mapping (address => uint256) public endorsedStake;\n  /** @dev mapping of stake money of a user available to endorse to another user */ \n  mapping (address => uint256) public availableToEndorse;\n  /** @dev mapping of money endorsed from an user to an endorsed user */ \n  mapping (address => mapping( address => uint256)) public userToEndorsedStake;\n  /** @dev mapping of money endorsed from an user to another */ \n  mapping (address => mapping( address => uint256)) public endorserToUserStake;\n  /** @dev mapping of an array of users endorsing another user */ \n  mapping (address => address[]) public userEndorsers;\n  /** @dev mapping of an array of users endorsing another user */ \n  mapping (address => debtStruct) public debts;\n\n  /** @notice Gets the amount stacked by an user.\n    * @param _staker address of the staker.\n    * @return staked amount.\n    */\n  function getStakedAmount(address _staker) public view returns(uint256){\n    return stakedAmount[_staker];\n  }\n\n  /** @notice Gets the array of addresses that endorsed an user.\n    * @param _owner address of the owner.\n    * @return array of addresses.\n    */\n  function getUserEndorsers(address _owner) public view returns(address[] memory){\n    return userEndorsers[_owner];\n  }\n\n  /** @notice Stakes money into the contract.\n    * @dev increase the amount staked and the amount available to endorse.\n    */\n  function stakeMoney() public payable {\n    stakedAmount[msg.sender] = stakedAmount[msg.sender].add(msg.value);\n    availableToEndorse[msg.sender] = availableToEndorse[msg.sender].add(msg.value);\n    emit LogStakeMoney(msg.sender, msg.value);\n  }\n\n  /** @notice Withdraws the staked money.\n    * @param _amount amount to be returned to the owner.\n    * @dev the amount can't be lended or endorsed in order to withdraw.\n    */\n  function withdrawStakeMoney(uint256 _amount) public {\n    //require to not have a debt in progress\n    require(stakedAmount[msg.sender] >= _amount, \"can't withdraw more than deposit\");\n    require(availableToEndorse[msg.sender] >= _amount, \"can't withdraw endorsed money\");\n    stakedAmount[msg.sender] = stakedAmount[msg.sender].sub(_amount);\n    availableToEndorse[msg.sender] = availableToEndorse[msg.sender].sub(_amount);\n    msg.sender.transfer(_amount);\n    emit LogWithdrawStakeMoney(msg.sender, _amount);\n  }\n\n  /** @notice Endorse an user with an amount.\n    * @param _endorsed The user that gets the endorsment.\n    * @param _amount amount to be endorsed the user.\n    * @dev the user needs to have stake available to endorse.\n    */\n  function endorseUser(address _endorsed, uint256 _amount) public {\n    require(availableToEndorse[msg.sender] >= _amount, \"not enough stake\");\n    require(keccak256(abi.encodePacked((debts[msg.sender].status))) == keccak256(abi.encodePacked((\"\"))), \"there shouldn't existe any debt\");\n    endorsements[msg.sender][_endorsed] = true;\n    availableToEndorse[msg.sender] = availableToEndorse[msg.sender].sub(_amount);\n    endorsedStake[_endorsed] = endorsedStake[_endorsed].add(_amount);\n    userToEndorsedStake[msg.sender][_endorsed] = userToEndorsedStake[msg.sender][_endorsed].add(_amount);\n    endorserToUserStake[_endorsed][msg.sender] = endorserToUserStake[_endorsed][msg.sender].add(_amount);\n    userEndorsers[_endorsed].push(msg.sender);\n    emit LogEndorse(msg.sender, _endorsed, _amount);\n  }\n\n  /** @notice Removes the endorsement of an user.\n    * @param _endorsed The user that gets the endorsment removed.\n    * @dev The user can't have a lending to be declined. The amount endorsed is returned to the staker.\n    */\n  function declineEndorsement(address _endorsed) public {\n    require(keccak256(abi.encodePacked((debts[_endorsed].status))) == keccak256(abi.encodePacked((\"\"))), \"there shouldn't existe any debt\");\n    endorsements[msg.sender][_endorsed] = false;\n    availableToEndorse[msg.sender] = availableToEndorse[msg.sender].add(userToEndorsedStake[msg.sender][_endorsed]);\n    endorsedStake[_endorsed] = endorsedStake[_endorsed].sub(userToEndorsedStake[msg.sender][_endorsed]);\n    userToEndorsedStake[msg.sender][_endorsed] = 0;\n    endorserToUserStake[_endorsed][msg.sender] = 0;\n    for (uint i = 0; i < userEndorsers[_endorsed].length; i++){\n      delete userEndorsers[_endorsed][i];\n    }\n    emit LogDeclineEndorsement(msg.sender, _endorsed);\n  }\n\n  /** @notice Creates a lend request that other users can fund.\n    * @dev Locks the endorsed money for a time, if there is no lending cancel the request. The requester can only request half of what is endorsed.\n    */\n  function requestLending() public {\n    require(keccak256(abi.encodePacked((debts[msg.sender].status))) == keccak256(abi.encodePacked((\"\"))), \"there shouldn't existe any debt\");\n    uint256 amount = endorsedStake[msg.sender].div(2);\n    uint256 percentageAmount =  (amount.mul(5)).div(100); /** @dev 5% interest rate  */\n    uint256 totalAmount =  percentageAmount.add(amount);\n    endorsedStake[msg.sender] = 0;\n    debts[msg.sender] = debtStruct(msg.sender, amount, address(0), \"requested\", totalAmount, 0, now);\n    emit LogRequestLending(msg.sender, amount);\n  }\n\n  /** @notice Lends money to the user that requested.\n    * @param _debtor The user that gets the lending.\n    * @dev the user needs to pay what is requested in the debt.\n    */\n  function lendMoney(address payable _debtor) public payable {\n    require(keccak256(abi.encodePacked((debts[_debtor].status))) == keccak256(abi.encodePacked((\"requested\"))), \"debt status should be requested\");\n    require(msg.value == debts[_debtor].amount, \"amount must equal requested\");\n    debtStruct storage debt = debts[_debtor];\n    debt.status = \"accepted\";\n    debt.lender = msg.sender;\n    debt.openingTime = now;\n    _debtor.transfer(msg.value);\n    emit LogLendMoney(_debtor, msg.sender, msg.value);\n  }\n\n  /** @notice Repay debt.\n    * @param _debtor The user that needs to repay.\n    * @dev the user can't repay more that debt.\n    */\n  function repayDebt(address _debtor) public payable {\n    require(keccak256(abi.encodePacked((debts[_debtor].status))) == keccak256(abi.encodePacked((\"accepted\"))), \"debt status should be accepted\");\n    require(msg.value.add(debts[_debtor].repaidAmount) <= debts[_debtor].debtTotalAmount, \"can't repay more than debt\");\n    debtStruct storage debt = debts[_debtor];\n    debt.repaidAmount = debt.repaidAmount.add(msg.value);\n    if(debt.repaidAmount == debt.debtTotalAmount){\n      debt.status = \"completed\";\n    }\n    emit LogRepayDebt(_debtor, msg.sender, msg.value);\n  }\n\n  /** @notice Close debt.\n    * @param _debtor The user that needs to repay.\n    * @dev the user can't repay more that debt. The lender gets 50% of the interest rate, the stakes get the other 50% according how much did they endorse.\n    */\n  function closeDebt(address _debtor) public {\n     require(keccak256(abi.encodePacked((debts[_debtor].status))) == keccak256(abi.encodePacked((\"completed\"))), \"debt must be completed\");\n    uint256 amount = debts[_debtor].amount;\n    uint256 totalDebtAmount = debts[_debtor].debtTotalAmount;\n    uint256 totalAmount = debts[_debtor].amount.mul(2);\n    uint256 totalLender = (totalDebtAmount.sub(amount)).div(2);\n    uint256 totalRepayment = totalLender.add(debts[_debtor].amount);\n    stakedAmount[debts[_debtor].lender] = totalRepayment;\n    availableToEndorse[debts[_debtor].lender] = totalRepayment;\n    debtStruct storage debt = debts[_debtor];\n    debt.status = \"\";\n    debt.lender = address(0);\n    debt.debtor = address(0);\n    debt.amount = 0;\n    debt.debtTotalAmount = 0;\n    debt.repaidAmount = 0;\n    debt.openingTime = 0;\n    for (uint i = 0; i < userEndorsers[_debtor].length; i++){\n      if(userEndorsers[_debtor][i] != address(0)){\n        address currentUser = userEndorsers[_debtor][i];\n        endorsedStake[_debtor] = endorsedStake[_debtor].add(endorserToUserStake[_debtor][currentUser]);\n        uint256 totalStaker = totalLender.mul(endorserToUserStake[_debtor][currentUser]).div(totalAmount);\n        availableToEndorse[currentUser] = availableToEndorse[currentUser].add(endorserToUserStake[_debtor][currentUser]).add(totalStaker);\n        stakedAmount[currentUser] = stakedAmount[currentUser].add(totalStaker);\n      }\n    }\n    emit LogCloseDebt(_debtor);\n  }\n\n  /** @notice Force the liquidation of a debt if time is greater than 2 months.\n    * @param _debtor The user that needs to repay.\n    * @dev Endorsers must pay the debt. The repaid amount is sent back to endorsers. \n    */\n  function forceCloseDebt(address _debtor) public {\n    require(now >= debts[_debtor].openingTime + 60 days, \"time must be greater than 2 months\");\n    string memory status = debts[_debtor].status;\n    stakedAmount[debts[_debtor].lender] = stakedAmount[debts[_debtor].lender].add(debts[_debtor].amount);\n    uint256 totalAmount = debts[_debtor].amount.mul(2);\n    uint256 repaidAmount = debts[_debtor].repaidAmount;\n    debtStruct storage debt = debts[_debtor];\n    debt.status = \"\";\n    debt.lender = address(0);\n    debt.debtor = address(0);\n    debt.amount = 0;\n    debt.debtTotalAmount = 0;\n    debt.repaidAmount = 0;\n    debt.openingTime = 0;\n    if(keccak256(abi.encodePacked((status))) == keccak256(abi.encodePacked((\"requested\")))){\n      for (uint i = 0; i < userEndorsers[_debtor].length; i++){\n        if(userEndorsers[_debtor][i] != address(0)){\n          address currentUser = userEndorsers[_debtor][i];\n          endorsedStake[_debtor] = endorsedStake[_debtor].add(endorserToUserStake[_debtor][currentUser]);\n          availableToEndorse[currentUser] = availableToEndorse[currentUser].add(endorserToUserStake[_debtor][currentUser]);\n        }\n      }\n    }else{\n      for (uint i = 0; i < userEndorsers[_debtor].length; i++){\n        if(userEndorsers[_debtor][i] != address(0)){\n          address currentUser = userEndorsers[_debtor][i];\n          uint256 endorsedStakeSlash = endorserToUserStake[_debtor][currentUser].div(2);\n          endorsedStake[_debtor] = endorsedStake[_debtor].add(endorserToUserStake[_debtor][currentUser]).sub(endorsedStakeSlash);\n          uint256 restoreAmount = repaidAmount.mul(endorserToUserStake[_debtor][currentUser]).div(totalAmount);\n          availableToEndorse[currentUser] =  availableToEndorse[currentUser].sub(endorsedStakeSlash).add(restoreAmount);\n          stakedAmount[currentUser] =  stakedAmount[currentUser].sub(endorsedStakeSlash).add(restoreAmount);\n        }\n      }\n    } \n    emit LogForceCloseDebt(_debtor);\n  } \n\n  function() external payable {\n    revert() ; \n  }   \n}\n",
  "sourcePath": "/Users/crisgarner/Projects/hackathons/ristretto/contracts/Debt.sol",
  "compiler": {
    "name": "solc",
    "version": "0.5.7+commit.6da8b019.Emscripten.clang"
  },
  "schemaVersion": "3.0.6",
  "updatedAt": "2019-05-01T00:34:08.216Z",
  "devdoc": {
    "methods": {
      "closeDebt(address)": {
        "details": "the user can't repay more that debt. The lender gets 50% of the interest rate, the stakes get the other 50% according how much did they endorse.",
        "params": {
          "_debtor": "The user that needs to repay."
        }
      },
      "declineEndorsement(address)": {
        "details": "The user can't have a lending to be declined. The amount endorsed is returned to the staker.",
        "params": {
          "_endorsed": "The user that gets the endorsment removed."
        }
      },
      "endorseUser(address,uint256)": {
        "details": "the user needs to have stake available to endorse.",
        "params": {
          "_amount": "amount to be endorsed the user.",
          "_endorsed": "The user that gets the endorsment."
        }
      },
      "forceCloseDebt(address)": {
        "details": "Endorsers must pay the debt. The repaid amount is sent back to endorsers. ",
        "params": {
          "_debtor": "The user that needs to repay."
        }
      },
      "getStakedAmount(address)": {
        "params": {
          "_staker": "address of the staker."
        },
        "return": "staked amount."
      },
      "getUserEndorsers(address)": {
        "params": {
          "_owner": "address of the owner."
        },
        "return": "array of addresses."
      },
      "lendMoney(address)": {
        "details": "the user needs to pay what is requested in the debt.",
        "params": {
          "_debtor": "The user that gets the lending."
        }
      },
      "repayDebt(address)": {
        "details": "the user can't repay more that debt.",
        "params": {
          "_debtor": "The user that needs to repay."
        }
      },
      "requestLending()": {
        "details": "Locks the endorsed money for a time, if there is no lending cancel the request. The requester can only request half of what is endorsed."
      },
      "stakeMoney()": {
        "details": "increase the amount staked and the amount available to endorse."
      },
      "withdrawStakeMoney(uint256)": {
        "details": "the amount can't be lended or endorsed in order to withdraw.",
        "params": {
          "_amount": "amount to be returned to the owner."
        }
      }
    }
  },
  "userdoc": {
    "methods": {
      "closeDebt(address)": {
        "notice": "Close debt."
      },
      "declineEndorsement(address)": {
        "notice": "Removes the endorsement of an user."
      },
      "endorseUser(address,uint256)": {
        "notice": "Endorse an user with an amount."
      },
      "forceCloseDebt(address)": {
        "notice": "Force the liquidation of a debt if time is greater than 2 months."
      },
      "getStakedAmount(address)": {
        "notice": "Gets the amount stacked by an user."
      },
      "getUserEndorsers(address)": {
        "notice": "Gets the array of addresses that endorsed an user."
      },
      "lendMoney(address)": {
        "notice": "Lends money to the user that requested."
      },
      "repayDebt(address)": {
        "notice": "Repay debt."
      },
      "requestLending()": {
        "notice": "Creates a lend request that other users can fund."
      },
      "stakeMoney()": {
        "notice": "Stakes money into the contract."
      },
      "withdrawStakeMoney(uint256)": {
        "notice": "Withdraws the staked money."
      }
    }
  }
}