{
  "contractName": "LANDRegistry",
  "abi": [
    {
      "constant": true,
      "inputs": [
        {
          "name": "_interfaceID",
          "type": "bytes4"
        }
      ],
      "name": "supportsInterface",
      "outputs": [
        {
          "name": "",
          "type": "bool"
        }
      ],
      "payable": false,
      "stateMutability": "view",
      "type": "function",
      "signature": "0x01ffc9a7"
    },
    {
      "constant": true,
      "inputs": [],
      "name": "proxyOwner",
      "outputs": [
        {
          "name": "",
          "type": "address"
        }
      ],
      "payable": false,
      "stateMutability": "view",
      "type": "function",
      "signature": "0x025313a2"
    },
    {
      "constant": true,
      "inputs": [],
      "name": "name",
      "outputs": [
        {
          "name": "",
          "type": "string"
        }
      ],
      "payable": false,
      "stateMutability": "view",
      "type": "function",
      "signature": "0x06fdde03"
    },
    {
      "constant": true,
      "inputs": [
        {
          "name": "assetId",
          "type": "uint256"
        }
      ],
      "name": "getApproved",
      "outputs": [
        {
          "name": "",
          "type": "address"
        }
      ],
      "payable": false,
      "stateMutability": "view",
      "type": "function",
      "signature": "0x081812fc"
    },
    {
      "constant": false,
      "inputs": [
        {
          "name": "operator",
          "type": "address"
        },
        {
          "name": "assetId",
          "type": "uint256"
        }
      ],
      "name": "approve",
      "outputs": [],
      "payable": false,
      "stateMutability": "nonpayable",
      "type": "function",
      "signature": "0x095ea7b3"
    },
    {
      "constant": true,
      "inputs": [],
      "name": "totalSupply",
      "outputs": [
        {
          "name": "",
          "type": "uint256"
        }
      ],
      "payable": false,
      "stateMutability": "view",
      "type": "function",
      "signature": "0x18160ddd"
    },
    {
      "constant": true,
      "inputs": [
        {
          "name": "",
          "type": "address"
        }
      ],
      "name": "latestPing",
      "outputs": [
        {
          "name": "",
          "type": "uint256"
        }
      ],
      "payable": false,
      "stateMutability": "view",
      "type": "function",
      "signature": "0x1e375901"
    },
    {
      "constant": true,
      "inputs": [
        {
          "name": "operator",
          "type": "address"
        },
        {
          "name": "assetId",
          "type": "uint256"
        }
      ],
      "name": "isAuthorized",
      "outputs": [
        {
          "name": "",
          "type": "bool"
        }
      ],
      "payable": false,
      "stateMutability": "view",
      "type": "function",
      "signature": "0x2972b0f0"
    },
    {
      "constant": true,
      "inputs": [
        {
          "name": "",
          "type": "address"
        }
      ],
      "name": "authorizedDeploy",
      "outputs": [
        {
          "name": "",
          "type": "bool"
        }
      ],
      "payable": false,
      "stateMutability": "view",
      "type": "function",
      "signature": "0x29ffab3b"
    },
    {
      "constant": true,
      "inputs": [
        {
          "name": "owner",
          "type": "address"
        },
        {
          "name": "index",
          "type": "uint256"
        }
      ],
      "name": "tokenOfOwnerByIndex",
      "outputs": [
        {
          "name": "assetId",
          "type": "uint256"
        }
      ],
      "payable": false,
      "stateMutability": "view",
      "type": "function",
      "signature": "0x2f745c59"
    },
    {
      "constant": true,
      "inputs": [],
      "name": "decimals",
      "outputs": [
        {
          "name": "",
          "type": "uint256"
        }
      ],
      "payable": false,
      "stateMutability": "pure",
      "type": "function",
      "signature": "0x313ce567"
    },
    {
      "constant": false,
      "inputs": [
        {
          "name": "from",
          "type": "address"
        },
        {
          "name": "to",
          "type": "address"
        },
        {
          "name": "assetId",
          "type": "uint256"
        }
      ],
      "name": "safeTransferFrom",
      "outputs": [],
      "payable": false,
      "stateMutability": "nonpayable",
      "type": "function",
      "signature": "0x42842e0e"
    },
    {
      "constant": true,
      "inputs": [
        {
          "name": "owner",
          "type": "address"
        }
      ],
      "name": "tokensOf",
      "outputs": [
        {
          "name": "",
          "type": "uint256[]"
        }
      ],
      "payable": false,
      "stateMutability": "view",
      "type": "function",
      "signature": "0x5a3f2672"
    },
    {
      "constant": true,
      "inputs": [
        {
          "name": "assetId",
          "type": "uint256"
        }
      ],
      "name": "ownerOf",
      "outputs": [
        {
          "name": "",
          "type": "address"
        }
      ],
      "payable": false,
      "stateMutability": "view",
      "type": "function",
      "signature": "0x6352211e"
    },
    {
      "constant": true,
      "inputs": [],
      "name": "GET_METADATA",
      "outputs": [
        {
          "name": "",
          "type": "bytes4"
        }
      ],
      "payable": false,
      "stateMutability": "view",
      "type": "function",
      "signature": "0x65181ad3"
    },
    {
      "constant": true,
      "inputs": [
        {
          "name": "owner",
          "type": "address"
        }
      ],
      "name": "balanceOf",
      "outputs": [
        {
          "name": "",
          "type": "uint256"
        }
      ],
      "payable": false,
      "stateMutability": "view",
      "type": "function",
      "signature": "0x70a08231"
    },
    {
      "constant": true,
      "inputs": [],
      "name": "currentContract",
      "outputs": [
        {
          "name": "",
          "type": "address"
        }
      ],
      "payable": false,
      "stateMutability": "view",
      "type": "function",
      "signature": "0x721d7d8e"
    },
    {
      "constant": true,
      "inputs": [],
      "name": "description",
      "outputs": [
        {
          "name": "",
          "type": "string"
        }
      ],
      "payable": false,
      "stateMutability": "view",
      "type": "function",
      "signature": "0x7284e416"
    },
    {
      "constant": true,
      "inputs": [],
      "name": "owner",
      "outputs": [
        {
          "name": "",
          "type": "address"
        }
      ],
      "payable": false,
      "stateMutability": "view",
      "type": "function",
      "signature": "0x8da5cb5b"
    },
    {
      "constant": true,
      "inputs": [],
      "name": "symbol",
      "outputs": [
        {
          "name": "",
          "type": "string"
        }
      ],
      "payable": false,
      "stateMutability": "view",
      "type": "function",
      "signature": "0x95d89b41"
    },
    {
      "constant": true,
      "inputs": [
        {
          "name": "",
          "type": "uint256"
        }
      ],
      "name": "updateOperator",
      "outputs": [
        {
          "name": "",
          "type": "address"
        }
      ],
      "payable": false,
      "stateMutability": "view",
      "type": "function",
      "signature": "0x9d40b850"
    },
    {
      "constant": false,
      "inputs": [
        {
          "name": "operator",
          "type": "address"
        },
        {
          "name": "authorized",
          "type": "bool"
        }
      ],
      "name": "setApprovalForAll",
      "outputs": [],
      "payable": false,
      "stateMutability": "nonpayable",
      "type": "function",
      "signature": "0xa22cb465"
    },
    {
      "constant": false,
      "inputs": [
        {
          "name": "from",
          "type": "address"
        },
        {
          "name": "to",
          "type": "address"
        },
        {
          "name": "assetId",
          "type": "uint256"
        },
        {
          "name": "userData",
          "type": "bytes"
        }
      ],
      "name": "safeTransferFrom",
      "outputs": [],
      "payable": false,
      "stateMutability": "nonpayable",
      "type": "function",
      "signature": "0xb88d4fde"
    },
    {
      "constant": true,
      "inputs": [],
      "name": "estateRegistry",
      "outputs": [
        {
          "name": "",
          "type": "address"
        }
      ],
      "payable": false,
      "stateMutability": "view",
      "type": "function",
      "signature": "0xe387d31a"
    },
    {
      "constant": true,
      "inputs": [
        {
          "name": "assetHolder",
          "type": "address"
        },
        {
          "name": "operator",
          "type": "address"
        }
      ],
      "name": "isApprovedForAll",
      "outputs": [
        {
          "name": "",
          "type": "bool"
        }
      ],
      "payable": false,
      "stateMutability": "view",
      "type": "function",
      "signature": "0xe985e9c5"
    },
    {
      "constant": true,
      "inputs": [
        {
          "name": "assetId",
          "type": "uint256"
        }
      ],
      "name": "getApprovedAddress",
      "outputs": [
        {
          "name": "",
          "type": "address"
        }
      ],
      "payable": false,
      "stateMutability": "view",
      "type": "function",
      "signature": "0xeca4742a"
    },
    {
      "constant": false,
      "inputs": [
        {
          "name": "_newOwner",
          "type": "address"
        }
      ],
      "name": "transferOwnership",
      "outputs": [],
      "payable": false,
      "stateMutability": "nonpayable",
      "type": "function",
      "signature": "0xf2fde38b"
    },
    {
      "anonymous": false,
      "inputs": [
        {
          "indexed": true,
          "name": "registry",
          "type": "address"
        }
      ],
      "name": "EstateRegistrySet",
      "type": "event",
      "signature": "0x5b3ad80e09ce4c88735037542891c02fdc63b85e96a579d9260a403153c27755"
    },
    {
      "anonymous": false,
      "inputs": [
        {
          "indexed": true,
          "name": "assetId",
          "type": "uint256"
        },
        {
          "indexed": true,
          "name": "holder",
          "type": "address"
        },
        {
          "indexed": true,
          "name": "operator",
          "type": "address"
        },
        {
          "indexed": false,
          "name": "data",
          "type": "string"
        }
      ],
      "name": "Update",
      "type": "event",
      "signature": "0x47c705b9219229ad762fca605f08fb024a3415d0ae78af5d319820c72e510414"
    },
    {
      "anonymous": false,
      "inputs": [
        {
          "indexed": true,
          "name": "assetId",
          "type": "uint256"
        },
        {
          "indexed": true,
          "name": "operator",
          "type": "address"
        }
      ],
      "name": "UpdateOperator",
      "type": "event",
      "signature": "0x9d9dd80a56a16f715df6eb40b771e24ff8cbea6eed9de28473ce0f28fe5602a9"
    },
    {
      "anonymous": false,
      "inputs": [
        {
          "indexed": true,
          "name": "_caller",
          "type": "address"
        },
        {
          "indexed": true,
          "name": "_deployer",
          "type": "address"
        }
      ],
      "name": "DeployAuthorized",
      "type": "event",
      "signature": "0x9e237638dcd1b2be1fc623ab6a47409b34dc8a62196448dd2d6b9045b2c33157"
    },
    {
      "anonymous": false,
      "inputs": [
        {
          "indexed": true,
          "name": "_caller",
          "type": "address"
        },
        {
          "indexed": true,
          "name": "_deployer",
          "type": "address"
        }
      ],
      "name": "DeployForbidden",
      "type": "event",
      "signature": "0x7883da318e7694f396f400092b07b701a4eccb02aee0d28266adc659cca044da"
    },
    {
      "anonymous": false,
      "inputs": [
        {
          "indexed": true,
          "name": "from",
          "type": "address"
        },
        {
          "indexed": true,
          "name": "to",
          "type": "address"
        },
        {
          "indexed": true,
          "name": "assetId",
          "type": "uint256"
        },
        {
          "indexed": false,
          "name": "operator",
          "type": "address"
        },
        {
          "indexed": false,
          "name": "userData",
          "type": "bytes"
        },
        {
          "indexed": false,
          "name": "operatorData",
          "type": "bytes"
        }
      ],
      "name": "Transfer",
      "type": "event",
      "signature": "0x8988d59efc2c4547ef86c88f6543963bab0cea94f8e486e619c7c3a790db93be"
    },
    {
      "anonymous": false,
      "inputs": [
        {
          "indexed": true,
          "name": "from",
          "type": "address"
        },
        {
          "indexed": true,
          "name": "to",
          "type": "address"
        },
        {
          "indexed": true,
          "name": "assetId",
          "type": "uint256"
        },
        {
          "indexed": false,
          "name": "operator",
          "type": "address"
        },
        {
          "indexed": false,
          "name": "userData",
          "type": "bytes"
        }
      ],
      "name": "Transfer",
      "type": "event",
      "signature": "0xd5c97f2e041b2046be3b4337472f05720760a198f4d7d84980b7155eec7cca6f"
    },
    {
      "anonymous": false,
      "inputs": [
        {
          "indexed": true,
          "name": "from",
          "type": "address"
        },
        {
          "indexed": true,
          "name": "to",
          "type": "address"
        },
        {
          "indexed": true,
          "name": "assetId",
          "type": "uint256"
        }
      ],
      "name": "Transfer",
      "type": "event",
      "signature": "0xddf252ad1be2c89b69c2b068fc378daa952ba7f163c4a11628f55a4df523b3ef"
    },
    {
      "anonymous": false,
      "inputs": [
        {
          "indexed": true,
          "name": "holder",
          "type": "address"
        },
        {
          "indexed": true,
          "name": "operator",
          "type": "address"
        },
        {
          "indexed": false,
          "name": "authorized",
          "type": "bool"
        }
      ],
      "name": "ApprovalForAll",
      "type": "event",
      "signature": "0x17307eab39ab6107e8899845ad3d59bd9653f200f220920489ca2b5937696c31"
    },
    {
      "anonymous": false,
      "inputs": [
        {
          "indexed": true,
          "name": "owner",
          "type": "address"
        },
        {
          "indexed": true,
          "name": "operator",
          "type": "address"
        },
        {
          "indexed": true,
          "name": "assetId",
          "type": "uint256"
        }
      ],
      "name": "Approval",
      "type": "event",
      "signature": "0x8c5be1e5ebec7d5bd14f71427d1e84f3dd0314c0f7b2291e5b200ac8c7c3b925"
    },
    {
      "anonymous": false,
      "inputs": [
        {
          "indexed": false,
          "name": "_prevOwner",
          "type": "address"
        },
        {
          "indexed": false,
          "name": "_newOwner",
          "type": "address"
        }
      ],
      "name": "OwnerUpdate",
      "type": "event",
      "signature": "0x343765429aea5a34b3ff6a3785a98a5abb2597aca87bfbb58632c173d585373a"
    },
    {
      "constant": false,
      "inputs": [
        {
          "name": "",
          "type": "bytes"
        }
      ],
      "name": "initialize",
      "outputs": [],
      "payable": false,
      "stateMutability": "nonpayable",
      "type": "function",
      "signature": "0x439fab91"
    },
    {
      "constant": true,
      "inputs": [
        {
          "name": "operator",
          "type": "address"
        },
        {
          "name": "assetId",
          "type": "uint256"
        }
      ],
      "name": "isUpdateAuthorized",
      "outputs": [
        {
          "name": "",
          "type": "bool"
        }
      ],
      "payable": false,
      "stateMutability": "view",
      "type": "function",
      "signature": "0x65937ab9"
    },
    {
      "constant": false,
      "inputs": [
        {
          "name": "beneficiary",
          "type": "address"
        }
      ],
      "name": "authorizeDeploy",
      "outputs": [],
      "payable": false,
      "stateMutability": "nonpayable",
      "type": "function",
      "signature": "0x341f13f2"
    },
    {
      "constant": false,
      "inputs": [
        {
          "name": "beneficiary",
          "type": "address"
        }
      ],
      "name": "forbidDeploy",
      "outputs": [],
      "payable": false,
      "stateMutability": "nonpayable",
      "type": "function",
      "signature": "0xfd7a1b00"
    },
    {
      "constant": false,
      "inputs": [
        {
          "name": "x",
          "type": "int256"
        },
        {
          "name": "y",
          "type": "int256"
        },
        {
          "name": "beneficiary",
          "type": "address"
        }
      ],
      "name": "assignNewParcel",
      "outputs": [],
      "payable": false,
      "stateMutability": "nonpayable",
      "type": "function",
      "signature": "0x1cc69ac1"
    },
    {
      "constant": false,
      "inputs": [
        {
          "name": "x",
          "type": "int256[]"
        },
        {
          "name": "y",
          "type": "int256[]"
        },
        {
          "name": "beneficiary",
          "type": "address"
        }
      ],
      "name": "assignMultipleParcels",
      "outputs": [],
      "payable": false,
      "stateMutability": "nonpayable",
      "type": "function",
      "signature": "0x8668a416"
    },
    {
      "constant": false,
      "inputs": [],
      "name": "ping",
      "outputs": [],
      "payable": false,
      "stateMutability": "nonpayable",
      "type": "function",
      "signature": "0x5c36b186"
    },
    {
      "constant": false,
      "inputs": [
        {
          "name": "user",
          "type": "address"
        }
      ],
      "name": "setLatestToNow",
      "outputs": [],
      "payable": false,
      "stateMutability": "nonpayable",
      "type": "function",
      "signature": "0x133cbe3a"
    },
    {
      "constant": true,
      "inputs": [
        {
          "name": "x",
          "type": "int256"
        },
        {
          "name": "y",
          "type": "int256"
        }
      ],
      "name": "encodeTokenId",
      "outputs": [
        {
          "name": "",
          "type": "uint256"
        }
      ],
      "payable": false,
      "stateMutability": "pure",
      "type": "function",
      "signature": "0x6fb7e588"
    },
    {
      "constant": true,
      "inputs": [
        {
          "name": "value",
          "type": "uint256"
        }
      ],
      "name": "decodeTokenId",
      "outputs": [
        {
          "name": "",
          "type": "int256"
        },
        {
          "name": "",
          "type": "int256"
        }
      ],
      "payable": false,
      "stateMutability": "pure",
      "type": "function",
      "signature": "0x7efd9112"
    },
    {
      "constant": true,
      "inputs": [
        {
          "name": "x",
          "type": "int256"
        },
        {
          "name": "y",
          "type": "int256"
        }
      ],
      "name": "exists",
      "outputs": [
        {
          "name": "",
          "type": "bool"
        }
      ],
      "payable": false,
      "stateMutability": "view",
      "type": "function",
      "signature": "0xa8d88127"
    },
    {
      "constant": true,
      "inputs": [
        {
          "name": "assetId",
          "type": "uint256"
        }
      ],
      "name": "exists",
      "outputs": [
        {
          "name": "",
          "type": "bool"
        }
      ],
      "payable": false,
      "stateMutability": "view",
      "type": "function",
      "signature": "0x4f558e79"
    },
    {
      "constant": true,
      "inputs": [
        {
          "name": "x",
          "type": "int256"
        },
        {
          "name": "y",
          "type": "int256"
        }
      ],
      "name": "ownerOfLand",
      "outputs": [
        {
          "name": "",
          "type": "address"
        }
      ],
      "payable": false,
      "stateMutability": "view",
      "type": "function",
      "signature": "0x1080f251"
    },
    {
      "constant": true,
      "inputs": [
        {
          "name": "x",
          "type": "int256[]"
        },
        {
          "name": "y",
          "type": "int256[]"
        }
      ],
      "name": "ownerOfLandMany",
      "outputs": [
        {
          "name": "",
          "type": "address[]"
        }
      ],
      "payable": false,
      "stateMutability": "view",
      "type": "function",
      "signature": "0x1d4b11e4"
    },
    {
      "constant": true,
      "inputs": [
        {
          "name": "owner",
          "type": "address"
        }
      ],
      "name": "landOf",
      "outputs": [
        {
          "name": "",
          "type": "int256[]"
        },
        {
          "name": "",
          "type": "int256[]"
        }
      ],
      "payable": false,
      "stateMutability": "view",
      "type": "function",
      "signature": "0x885363eb"
    },
    {
      "constant": true,
      "inputs": [
        {
          "name": "assetId",
          "type": "uint256"
        }
      ],
      "name": "tokenMetadata",
      "outputs": [
        {
          "name": "",
          "type": "string"
        }
      ],
      "payable": false,
      "stateMutability": "view",
      "type": "function",
      "signature": "0x6914db60"
    },
    {
      "constant": true,
      "inputs": [
        {
          "name": "x",
          "type": "int256"
        },
        {
          "name": "y",
          "type": "int256"
        }
      ],
      "name": "landData",
      "outputs": [
        {
          "name": "",
          "type": "string"
        }
      ],
      "payable": false,
      "stateMutability": "view",
      "type": "function",
      "signature": "0x4c4bf936"
    },
    {
      "constant": false,
      "inputs": [
        {
          "name": "from",
          "type": "address"
        },
        {
          "name": "to",
          "type": "address"
        },
        {
          "name": "assetId",
          "type": "uint256"
        }
      ],
      "name": "transferFrom",
      "outputs": [],
      "payable": false,
      "stateMutability": "nonpayable",
      "type": "function",
      "signature": "0x23b872dd"
    },
    {
      "constant": false,
      "inputs": [
        {
          "name": "x",
          "type": "int256"
        },
        {
          "name": "y",
          "type": "int256"
        },
        {
          "name": "to",
          "type": "address"
        }
      ],
      "name": "transferLand",
      "outputs": [],
      "payable": false,
      "stateMutability": "nonpayable",
      "type": "function",
      "signature": "0x35e64aaa"
    },
    {
      "constant": false,
      "inputs": [
        {
          "name": "x",
          "type": "int256[]"
        },
        {
          "name": "y",
          "type": "int256[]"
        },
        {
          "name": "to",
          "type": "address"
        }
      ],
      "name": "transferManyLand",
      "outputs": [],
      "payable": false,
      "stateMutability": "nonpayable",
      "type": "function",
      "signature": "0x4dad9003"
    },
    {
      "constant": false,
      "inputs": [
        {
          "name": "x",
          "type": "int256"
        },
        {
          "name": "y",
          "type": "int256"
        },
        {
          "name": "estateId",
          "type": "uint256"
        }
      ],
      "name": "transferLandToEstate",
      "outputs": [],
      "payable": false,
      "stateMutability": "nonpayable",
      "type": "function",
      "signature": "0xf9cbec43"
    },
    {
      "constant": false,
      "inputs": [
        {
          "name": "x",
          "type": "int256[]"
        },
        {
          "name": "y",
          "type": "int256[]"
        },
        {
          "name": "estateId",
          "type": "uint256"
        }
      ],
      "name": "transferManyLandToEstate",
      "outputs": [],
      "payable": false,
      "stateMutability": "nonpayable",
      "type": "function",
      "signature": "0xf5f83a61"
    },
    {
      "constant": false,
      "inputs": [
        {
          "name": "assetId",
          "type": "uint256"
        },
        {
          "name": "operator",
          "type": "address"
        }
      ],
      "name": "setUpdateOperator",
      "outputs": [],
      "payable": false,
      "stateMutability": "nonpayable",
      "type": "function",
      "signature": "0xb0b02c60"
    },
    {
      "constant": false,
      "inputs": [
        {
          "name": "registry",
          "type": "address"
        }
      ],
      "name": "setEstateRegistry",
      "outputs": [],
      "payable": false,
      "stateMutability": "nonpayable",
      "type": "function",
      "signature": "0x8de74aa1"
    },
    {
      "constant": false,
      "inputs": [
        {
          "name": "x",
          "type": "int256[]"
        },
        {
          "name": "y",
          "type": "int256[]"
        },
        {
          "name": "beneficiary",
          "type": "address"
        }
      ],
      "name": "createEstate",
      "outputs": [
        {
          "name": "",
          "type": "uint256"
        }
      ],
      "payable": false,
      "stateMutability": "nonpayable",
      "type": "function",
      "signature": "0xca8a2c08"
    },
    {
      "constant": false,
      "inputs": [
        {
          "name": "x",
          "type": "int256[]"
        },
        {
          "name": "y",
          "type": "int256[]"
        },
        {
          "name": "beneficiary",
          "type": "address"
        },
        {
          "name": "metadata",
          "type": "string"
        }
      ],
      "name": "createEstateWithMetadata",
      "outputs": [
        {
          "name": "",
          "type": "uint256"
        }
      ],
      "payable": false,
      "stateMutability": "nonpayable",
      "type": "function",
      "signature": "0x881eeaa5"
    },
    {
      "constant": false,
      "inputs": [
        {
          "name": "x",
          "type": "int256"
        },
        {
          "name": "y",
          "type": "int256"
        },
        {
          "name": "data",
          "type": "string"
        }
      ],
      "name": "updateLandData",
      "outputs": [],
      "payable": false,
      "stateMutability": "nonpayable",
      "type": "function",
      "signature": "0xd4dd1594"
    },
    {
      "constant": false,
      "inputs": [
        {
          "name": "x",
          "type": "int256[]"
        },
        {
          "name": "y",
          "type": "int256[]"
        },
        {
          "name": "data",
          "type": "string"
        }
      ],
      "name": "updateManyLandData",
      "outputs": [],
      "payable": false,
      "stateMutability": "nonpayable",
      "type": "function",
      "signature": "0x1e4c7736"
    }
  ],
  "bytecode": "0x608060405260028054600160a060020a031916331790556136ff806100256000396000f3006080604052600436106102795763ffffffff60e060020a60003504166301ffc9a7811461027e578063025313a2146102b457806306fdde03146102e5578063081812fc1461036f578063095ea7b3146103875780631080f251146103ad578063133cbe3a146103c857806318160ddd146103e95780631cc69ac1146104105780631d4b11e4146104375780631e375901146104b35780631e4c7736146104d457806323b872dd1461050c5780632972b0f01461053657806329ffab3b1461055a5780632f745c591461057b578063313ce5671461059f578063341f13f2146105b457806335e64aaa146105d557806342842e0e146105fc578063439fab91146106265780634c4bf936146106465780634dad9003146106615780634f558e79146106995780635a3f2672146106b15780635c36b186146106d25780636352211e146106e757806365181ad3146106ff57806365937ab9146107315780636914db60146107555780636fb7e5881461076d57806370a0823114610788578063721d7d8e146107a95780637284e416146107be5780637efd9112146107d35780638668a41614610804578063881eeaa51461083c578063885363eb146108815780638da5cb5b1461093b5780638de74aa11461095057806395d89b41146109715780639d40b85014610986578063a22cb4651461099e578063a8d88127146109c4578063b0b02c60146109df578063b88d4fde14610a03578063ca8a2c0814610a3c578063d4dd159414610a74578063e387d31a14610a9c578063e985e9c514610ab1578063eca4742a1461036f578063f2fde38b14610ad8578063f5f83a6114610af9578063f9cbec4314610b28578063fd7a1b0014610b46575b600080fd5b34801561028a57600080fd5b506102a0600160e060020a031960043516610b67565b604080519115158252519081900360200190f35b3480156102c057600080fd5b506102c9610c20565b60408051600160a060020a039092168252519081900360200190f35b3480156102f157600080fd5b506102fa610c2f565b6040805160208082528351818301528351919283929083019185019080838360005b8381101561033457818101518382015260200161031c565b50505050905090810190601f1680156103615780820380516001836020036101000a031916815260200191505b509250505060405180910390f35b34801561037b57600080fd5b506102c9600435610cc6565b34801561039357600080fd5b506103ab600160a060020a0360043516602435610cd1565b005b3480156103b957600080fd5b506102c9600435602435610d9c565b3480156103d457600080fd5b506103ab600160a060020a0360043516610daf565b3480156103f557600080fd5b506103fe610e3f565b60408051918252519081900360200190f35b34801561041c57600080fd5b506103ab600435602435600160a060020a0360443516610e4e565b34801561044357600080fd5b506104636024600480358281019290820135918135918201910135610ef3565b60408051602080825283518183015283519192839290830191858101910280838360005b8381101561049f578181015183820152602001610487565b505050509050019250505060405180910390f35b3480156104bf57600080fd5b506103fe600160a060020a036004351661104a565b3480156104e057600080fd5b506103ab602460048035828101929082013591813580830192908201359160443591820191013561105c565b34801561051857600080fd5b506103ab600160a060020a036004358116906024351660443561118e565b34801561054257600080fd5b506102a0600160a060020a0360043516602435611238565b34801561056657600080fd5b506102a0600160a060020a0360043516611244565b34801561058757600080fd5b506103fe600160a060020a0360043516602435611259565b3480156105ab57600080fd5b506103fe6112d0565b3480156105c057600080fd5b506103ab600160a060020a03600435166112d5565b3480156105e157600080fd5b506103ab600435602435600160a060020a0360443516611469565b34801561060857600080fd5b506103ab600160a060020a03600435811690602435166044356114a3565b34801561063257600080fd5b506103ab60048035602481019101356114c1565b34801561065257600080fd5b506102fa6004356024356115b5565b34801561066d57600080fd5b506103ab6024600480358281019290820135918135918201910135600160a060020a03604435166115c9565b3480156106a557600080fd5b506102a06004356116ee565b3480156106bd57600080fd5b50610463600160a060020a03600435166116f9565b3480156106de57600080fd5b506103ab611765565b3480156106f357600080fd5b506102c9600435611779565b34801561070b57600080fd5b50610714611784565b60408051600160e060020a03199092168252519081900360200190f35b34801561073d57600080fd5b506102a0600160a060020a03600435166024356117b9565b34801561076157600080fd5b506102fa6004356117c5565b34801561077957600080fd5b506103fe6004356024356117d0565b34801561079457600080fd5b506103fe600160a060020a03600435166117dc565b3480156107b557600080fd5b506102c96117e7565b3480156107ca57600080fd5b506102fa6117f6565b3480156107df57600080fd5b506107eb600435611857565b6040805192835260208301919091528051918290030190f35b34801561081057600080fd5b506103ab6024600480358281019290820135918135918201910135600160a060020a036044351661186d565b34801561084857600080fd5b506103fe6024600480358281019290820135918135808301929082013591600160a060020a036044351691606435908101910135611936565b34801561088d57600080fd5b506108a2600160a060020a03600435166119d5565b604051808060200180602001838103835285818151815260200191508051906020019060200280838360005b838110156108e65781810151838201526020016108ce565b50505050905001838103825284818151815260200191508051906020019060200280838360005b8381101561092557818101518382015260200161090d565b5050505090500194505050505060405180910390f35b34801561094757600080fd5b506102c9611aeb565b34801561095c57600080fd5b506103ab600160a060020a0360043516611afa565b34801561097d57600080fd5b506102fa611bba565b34801561099257600080fd5b506102c9600435611c1b565b3480156109aa57600080fd5b506103ab600160a060020a03600435166024351515611c36565b3480156109d057600080fd5b506102a0600435602435611c44565b3480156109eb57600080fd5b506103ab600435600160a060020a0360243516611c50565b348015610a0f57600080fd5b506103ab600160a060020a0360048035821691602480359091169160443591606435908101910135611cc0565b348015610a4857600080fd5b506103fe6024600480358281019290820135918135918201910135600160a060020a0360443516611d06565b348015610a8057600080fd5b506103ab60048035906024803591604435918201910135611d85565b348015610aa857600080fd5b506102c9611dc0565b348015610abd57600080fd5b506102a0600160a060020a0360043581169060243516611dcf565b348015610ae457600080fd5b506103ab600160a060020a0360043516611ddb565b348015610b0557600080fd5b506103ab6024600480358281019290820135918135918201910135604435611e77565b348015610b3457600080fd5b506103ab600435602435604435612094565b348015610b5257600080fd5b506103ab600160a060020a03600435166121dd565b6000600160e060020a03198083161415610b8357506000610c1b565b600160e060020a031982167f01ffc9a7000000000000000000000000000000000000000000000000000000001480610be45750600160e060020a031982167f7c0633c600000000000000000000000000000000000000000000000000000000145b80610c185750600160e060020a031982167f80ac58cd00000000000000000000000000000000000000000000000000000000145b90505b919050565b600154600160a060020a031681565b60038054604080516020601f6002600019610100600188161502019095169490940493840181900481028201810190925282815260609390929091830182828015610cbb5780601f10610c9057610100808354040283529160200191610cbb565b820191906000526020600020905b815481529060010190602001808311610c9e57829003601f168201915b505050505090505b90565b6000610c188261236f565b6000610cdc8261238a565b905033600160a060020a0382161480610cfa5750610cfa33826123a5565b1515610d0557600080fd5b600160a060020a038381169082161415610d1e57600080fd5b82600160a060020a0316610d318361236f565b600160a060020a031614610d97576000828152600c60205260408082208054600160a060020a031916600160a060020a0387811691821790925591518593918516917f8c5be1e5ebec7d5bd14f71427d1e84f3dd0314c0f7b2291e5b200ac8c7c3b92591a45b505050565b6000610da883836123d3565b9392505050565b600154600160a060020a0316331480610dcd5750610dcd33826123a5565b1515610e23576040805160e560020a62461bcd02815260206004820152601160248201527f556e617574686f72697a65642075736572000000000000000000000000000000604482015290519081900360640190fd5b600160a060020a03166000908152600d60205260409020429055565b6000610e496123e7565b905090565b600154600160a060020a0316331480610e7657503360009081526011602052604090205460ff165b1515610ee0576040805160e560020a62461bcd02815260206004820152603a602482015260008051602061367483398151915260448201527f20627920616e20617574686f72697a6564206465706c6f796572000000000000606482015290519081900360840190fd5b610d97610eed84846123ed565b826124a7565b6060806000808611610f51576040805160e560020a62461bcd028152602060048201526029602482015260008051602061369483398151915260448201526000805160206136b4833981519152606482015290519081900360840190fd5b858414610faa576040805160e560020a62461bcd02815260206004820152602b60248201526000805160206136348339815191526044820152600080516020613654833981519152606482015290519081900360840190fd5b604080518781526020808902820101909152868015610fd3578160200160208202803883390190505b509150600090505b8581101561104057611013878783818110610ff257fe5b90506020020135868684818110151561100757fe5b905060200201356123d3565b828281518110151561102157fe5b600160a060020a03909216602092830290910190910152600101610fdb565b5095945050505050565b600d6020526000908152604090205481565b60008086116110b7576040805160e560020a62461bcd028152602060048201526029602482015260008051602061369483398151915260448201526000805160206136b4833981519152606482015290519081900360840190fd5b858414611110576040805160e560020a62461bcd02815260206004820152602b60248201526000805160206136348339815191526044820152600080516020613654833981519152606482015290519081900360840190fd5b5060005b858110156111855761117d87878381811061112b57fe5b90506020020135868684818110151561114057fe5b9050602002013585858080601f01602080910402602001604051908101604052809392919081815260200183838082843750612510945050505050565b600101611114565b50505050505050565b601054600160a060020a038381169116141561121a576040805160e560020a62461bcd02815260206004820152602f60248201527f457374617465526567697374727920756e73616665207472616e73666572732060448201527f617265206e6f7420616c6c6f7765640000000000000000000000000000000000606482015290519081900360840190fd5b610d97838383602060405190810160405280600081525060006126bd565b6000610da883836126e6565b60116020526000908152604090205460ff1681565b600160a060020a038216600090815260076020526040812054821061127d57600080fd5b6f80000000000000000000000000000000821061129957600080fd5b600160a060020a03831660009081526007602052604090208054839081106112bd57fe5b9060005260206000200154905092915050565b600090565b600154600160a060020a0316331461134b576040805160e560020a62461bcd028152602060048201526033602482015260008051602061367483398151915260448201527f206279207468652070726f7879206f776e657200000000000000000000000000606482015290519081900360840190fd5b600160a060020a03811615156113ab576040805160e560020a62461bcd02815260206004820152600f60248201527f696e76616c696420616464726573730000000000000000000000000000000000604482015290519081900360640190fd5b600160a060020a03811660009081526011602052604090205460ff161561141c576040805160e560020a62461bcd02815260206004820152601d60248201527f6164647265737320697320616c726561647920617574686f72697a6564000000604482015290519081900360640190fd5b600160a060020a038116600081815260116020526040808220805460ff191660011790555133917f9e237638dcd1b2be1fc623ab6a47409b34dc8a62196448dd2d6b9045b2c3315791a350565b600061147584846123ed565b905061149d6114838261238a565b8383602060405190810160405280600081525060016126bd565b50505050565b610d97838383602060405190810160405280600081525060016126bd565b6040805180820190915260118082527f446563656e7472616c616e64204c414e4400000000000000000000000000000060209092019182526115059160039161355a565b506040805180820190915260048082527f4c414e44000000000000000000000000000000000000000000000000000000006020909201918252611548918161355a565b506040805160608101825260338082527f436f6e747261637420746861742073746f7265732074686520446563656e7472602083019081527f616c616e64204c414e44207265676973747279000000000000000000000000009290930191909152610d979160059161355a565b6060610da86115c484846123ed565b612764565b600080808611611625576040805160e560020a62461bcd028152602060048201526029602482015260008051602061369483398151915260448201526000805160206136b4833981519152606482015290519081900360840190fd5b85841461167e576040805160e560020a62461bcd02815260206004820152602b60248201526000805160206136348339815191526044820152600080516020613654833981519152606482015290519081900360840190fd5b600091505b85821015611185576116bb87878481811061169a57fe5b9050602002013586868581811015156116af57fe5b905060200201356123ed565b90506116e36116c98261238a565b8483602060405190810160405280600081525060016126bd565b600190910190611683565b6000610c18826129de565b600160a060020a03811660009081526007602090815260409182902080548351818402810184019094528084526060939283018282801561175957602002820191906000526020600020905b815481526020019060010190808311611745575b50505050509050919050565b336000908152600d60205260409020429055565b6000610c188261238a565b604080517f6765744d657461646174612875696e74323536290000000000000000000000008152905190819003601401902081565b6000610da883836129fb565b6060610c1882612764565b6000610da883836123ed565b6000610c1882612a41565b600054600160a060020a031681565b60058054604080516020601f6002600019610100600188161502019095169490940493840181900481028201810190925282815260609390929091830182828015610cbb5780601f10610c9057610100808354040283529160200191610cbb565b60008061186383612a5c565b915091505b915091565b600154600090600160a060020a031633148061189857503360009081526011602052604090205460ff165b1515611902576040805160e560020a62461bcd02815260206004820152603a602482015260008051602061367483398151915260448201527f20627920616e20617574686f72697a6564206465706c6f796572000000000000606482015290519081900360840190fd5b5060005b8481101561192e5761192661192087878481811061169a57fe5b836124a7565b600101611906565b505050505050565b60006119c98888808060200260200160405190810160405280939291908181526020018383602002808284375050604080516020808e0282810182019093528d82529095508d94508c93508392508501908490808284375050604080516020601f8c018190048102820181019092528a81528c955093508a92508991508190840183828082843750612b1b945050505050565b98975050505050505050565b600160a060020a0381166000908152600760209081526040808320548151818152818402810190930190915260609283928391829181908190868015611a25578160200160208202803883390190505b50945085604051908082528060200260200182016040528015611a52578160200160208202803883390190505b509350600090505b85811015611adc57600160a060020a03891660009081526007602052604090208054611a9b919083908110611a8b57fe5b9060005260206000200154612a5c565b865191945092508390869083908110611ab057fe5b6020908102909101015283518290859083908110611aca57fe5b60209081029091010152600101611a5a565b50929791965090945050505050565b600254600160a060020a031681565b600154600160a060020a03163314611b70576040805160e560020a62461bcd028152602060048201526033602482015260008051602061367483398151915260448201527f206279207468652070726f7879206f776e657200000000000000000000000000606482015290519081900360840190fd5b60108054600160a060020a031916600160a060020a0383169081179091556040517f5b3ad80e09ce4c88735037542891c02fdc63b85e96a579d9260a403153c2775590600090a250565b60048054604080516020601f6002600019610100600188161502019095169490940493840181900481028201810190925282815260609390929091830182828015610cbb5780601f10610c9057610100808354040283529160200191610cbb565b600f60205260009081526040902054600160a060020a031681565b611c408282612dee565b5050565b6000610da88383612e7c565b81611c5b33826126e6565b1515611c6657600080fd5b6000838152600f60205260408082208054600160a060020a031916600160a060020a0386169081179091559051909185917f9d9dd80a56a16f715df6eb40b771e24ff8cbea6eed9de28473ce0f28fe5602a99190a3505050565b611cff85858585858080601f01602080910402602001604051908101604052809392919081815260200183838082843750600194506126bd9350505050565b5050505050565b6000611d7b8686808060200260200160405190810160405280939291908181526020018383602002808284375050604080516020808c0282810182019093528b82529095508b94508a935083925085019084908082843750506040805160208101909152600081528994509250612b1b915050565b9695505050505050565b61149d848484848080601f01602080910402602001604051908101604052809392919081815260200183838082843750612510945050505050565b601054600160a060020a031681565b6000610da883836123a5565b600254600160a060020a03163314611def57fe5b600254600160a060020a0382811691161415611e55576040805160e560020a62461bcd02815260206004820152601b60248201527f43616e6e6f74207472616e7366657220746f20796f757273656c660000000000604482015290519081900360640190fd5b60028054600160a060020a031916600160a060020a0392909216919091179055565b600080808611611ed3576040805160e560020a62461bcd028152602060048201526029602482015260008051602061369483398151915260448201526000805160206136b4833981519152606482015290519081900360840190fd5b858414611f2c576040805160e560020a62461bcd02815260206004820152602b60248201526000805160206136348339815191526044820152600080516020613654833981519152606482015290519081900360840190fd5b601054604080517f6352211e0000000000000000000000000000000000000000000000000000000081526004810186905290513392600160a060020a031691636352211e9160248083019260209291908290030181600087803b158015611f9257600080fd5b505af1158015611fa6573d6000803e3d6000fd5b505050506040513d6020811015611fbc57600080fd5b5051600160a060020a031614612042576040805160e560020a62461bcd02815260206004820152602f60248201527f596f75206d757374206f776e207468652045737461746520796f752077616e7460448201527f20746f207472616e7366657220746f0000000000000000000000000000000000606482015290519081900360840190fd5b600091505b858210156111855761205e87878481811061169a57fe5b905061208961206c8261238a565b601054600160a060020a03168361208287612e90565b60016126bd565b600190910190612047565b601054604080517f6352211e0000000000000000000000000000000000000000000000000000000081526004810184905290516000923392600160a060020a0390911691636352211e9160248082019260209290919082900301818887803b1580156120ff57600080fd5b505af1158015612113573d6000803e3d6000fd5b505050506040513d602081101561212957600080fd5b5051600160a060020a0316146121af576040805160e560020a62461bcd02815260206004820152602f60248201527f596f75206d757374206f776e207468652045737461746520796f752077616e7460448201527f20746f207472616e7366657220746f0000000000000000000000000000000000606482015290519081900360840190fd5b6121b984846123ed565b905061149d6121c78261238a565b601054600160a060020a03168361208286612e90565b600154600160a060020a03163314612253576040805160e560020a62461bcd028152602060048201526033602482015260008051602061367483398151915260448201527f206279207468652070726f7879206f776e657200000000000000000000000000606482015290519081900360840190fd5b600160a060020a03811615156122b3576040805160e560020a62461bcd02815260206004820152600f60248201527f696e76616c696420616464726573730000000000000000000000000000000000604482015290519081900360640190fd5b600160a060020a03811660009081526011602052604090205460ff161515612325576040805160e560020a62461bcd02815260206004820152601c60248201527f6164647265737320697320616c726561647920666f7262696464656e00000000604482015290519081900360640190fd5b600160a060020a038116600081815260116020526040808220805460ff191690555133917f7883da318e7694f396f400092b07b701a4eccb02aee0d28266adc659cca044da91a350565b6000908152600c6020526040902054600160a060020a031690565b600090815260086020526040902054600160a060020a031690565b600160a060020a039182166000908152600b6020908152604080832093909416825291909152205460ff1690565b6000610da86123e284846123ed565b61238a565b60065490565b600082620f423f191280156124045750620f424083125b8015612413575081620f423f19125b80156124215750620f424082125b151561249d576040805160e560020a62461bcd02815260206004820152602760248201527f54686520636f6f7264696e617465732073686f756c6420626520696e7369646560448201527f20626f756e647300000000000000000000000000000000000000000000000000606482015290519081900360840190fd5b610da88383612ebb565b600082815260086020526040902054600160a060020a0316156124c957600080fd5b6124d38183612efc565b8181600160a060020a031660007fddf252ad1be2c89b69c2b068fc378daa952ba7f163c4a11628f55a4df523b3ef60405160405180910390a45050565b60008061251d85856123ed565b6125268161238a565b600160a060020a031633600160a060020a0316148061254a575061254a33826126e6565b8061255a575061255a33826129fb565b15156125d6576040805160e560020a62461bcd02815260206004820152602660248201527f6d73672e73656e646572206973206e6f7420617574686f72697a656420746f2060448201527f7570646174650000000000000000000000000000000000000000000000000000606482015290519081900360840190fd5b6125e086866123ed565b600081815260086020526040902054909350600160a060020a031691506126078385612f86565b33600160a060020a031682600160a060020a0316847f47c705b9219229ad762fca605f08fb024a3415d0ae78af5d319820c72e510414876040518080602001828103825283818151815260200191508051906020019080838360005b8381101561267b578181015183820152602001612663565b50505050905090810190601f1680156126a85780820380516001836020036101000a031916815260200191505b509250505060405180910390a4505050505050565b6000838152600f602052604090208054600160a060020a0319169055611cff8585858585612fa5565b600080600160a060020a03841615156126fe57600080fd5b6127078361238a565b905080600160a060020a031684600160a060020a0316141561272c576001915061275d565b61273681856123a5565b8061275a575083600160a060020a031661274f8461236f565b600160a060020a0316145b91505b5092915050565b606060006127718361238a565b905061277c81612fc8565b80156127965750601054600160a060020a03828116911614155b1561293d57604080517f6765744d657461646174612875696e7432353629000000000000000000000000815281519081900360140181207f01ffc9a7000000000000000000000000000000000000000000000000000000008252600160e060020a03191660048201529051600160a060020a038316916301ffc9a79160248083019260209291908290030181600087803b15801561283357600080fd5b505af1158015612847573d6000803e3d6000fd5b505050506040513d602081101561285d57600080fd5b50511561293d5780600160a060020a031663a574cea4846040518263ffffffff1660e060020a02815260040180828152602001915050600060405180830381600087803b1580156128ad57600080fd5b505af11580156128c1573d6000803e3d6000fd5b505050506040513d6000823e601f3d908101601f1916820160405260208110156128ea57600080fd5b81019080805164010000000081111561290257600080fd5b8201602081018481111561291557600080fd5b815164010000000081118282018710171561292f57600080fd5b509095506129d89350505050565b6000838152600a602090815260409182902080548351601f6002600019610100600186161502019093169290920491820184900484028101840190945280845290918301828280156129d05780601f106129a5576101008083540402835291602001916129d0565b820191906000526020600020905b8154815290600101906020018083116129b357829003601f168201915b505050505091505b50919050565b600090815260086020526040902054600160a060020a0316151590565b6000612a068261238a565b600160a060020a031683600160a060020a03161480610da85750506000908152600f6020526040902054600160a060020a0391821691161490565b600160a060020a031660009081526007602052604090205490565b600080612a6883612fd0565b9092509050620f423f1982138015612a825750620f424082125b8015612a91575080620f423f19125b8015612a9f5750620f424081125b1515611868576040805160e560020a62461bcd02815260206004820152602760248201527f54686520636f6f7264696e617465732073686f756c6420626520696e7369646560448201527f20626f756e647300000000000000000000000000000000000000000000000000606482015290519081900360840190fd5b600080606060008060008951111515612b80576040805160e560020a62461bcd028152602060048201526029602482015260008051602061369483398151915260448201526000805160206136b4833981519152606482015290519081900360840190fd5b8751895114612bdb576040805160e560020a62461bcd02815260206004820152602b60248201526000805160206136348339815191526044820152600080516020613654833981519152606482015290519081900360840190fd5b601054600160a060020a03161515612c63576040805160e560020a62461bcd02815260206004820152602160248201527f546865204573746174652072656769737472792073686f756c6420626520736560448201527f7400000000000000000000000000000000000000000000000000000000000000606482015290519081900360840190fd5b601054604080517fd0def521000000000000000000000000000000000000000000000000000000008152600160a060020a038a811660048301908152602483019384528a5160448401528a51919094169363d0def521938c938c93606490910190602085019080838360005b83811015612ce7578181015183820152602001612ccf565b50505050905090810190601f168015612d145780820380516001836020036101000a031916815260200191505b509350505050602060405180830381600087803b158015612d3457600080fd5b505af1158015612d48573d6000803e3d6000fd5b505050506040513d6020811015612d5e57600080fd5b50519350612d6b84612e90565b9250600091505b8851821015612de157612db38983815181101515612d8c57fe5b906020019060200201518984815181101515612da457fe5b906020019060200201516123ed565b9050612dd6612dc18261238a565b601054600160a060020a0316838660016126bd565b600190910190612d72565b5091979650505050505050565b8015612e1757612dfe33836123a5565b15612e0857600080fd5b612e128233613026565b612e36565b612e2133836123a5565b1515612e2c57600080fd5b612e36823361305b565b6040805182151581529051600160a060020a0384169133917f17307eab39ab6107e8899845ad3d59bd9653f200f220920489ca2b5937696c319181900360200190a35050565b6000610da8612e8b84846123ed565b6129de565b6040805160208082528183019092526060918082016104008038833950505060208101929092525090565b70010000000000000000000000000000000082026fffffffffffffffffffffffffffffffff19166fffffffffffffffffffffffffffffffff82161792915050565b60008181526008602052604081208054600160a060020a031916600160a060020a038516179055612f2c83612a41565b600160a060020a0384166000908152600760209081526040808320805460018181018355918552838520018790558684526009909252909120829055600654919250612f7e919063ffffffff61308d16565b600655505050565b6000828152600a602090815260409091208251610d979284019061355a565b82612fb033826126e6565b1515612fbb57600080fd5b61192e86868686866130a0565b6000903b1190565b6000806130027001000000000000000000000000000000006fffffffffffffffffffffffffffffffff198516046132f6565b915061301f6fffffffffffffffffffffffffffffffff84166132f6565b9050915091565b600160a060020a039081166000908152600b60209081526040808320949093168252929092529020805460ff19166001179055565b600160a060020a039081166000908152600b60209081526040808320949093168252929092529020805460ff19169055565b8181018281101561309a57fe5b92915050565b600084600160a060020a03811615156130b857600080fd5b848680600160a060020a03166130cd8361238a565b600160a060020a031614156130e157600080fd5b888781600160a060020a03166130f68261238a565b600160a060020a03161461310957600080fd5b600089815260086020526040902054600160a060020a0316955061312d868a61332e565b613137868a6133c7565b6131418a8a612efc565b888a600160a060020a031687600160a060020a03167fddf252ad1be2c89b69c2b068fc378daa952ba7f163c4a11628f55a4df523b3ef60405160405180910390a486801561319357506131938a612fc8565b156132e95763150b7a0260e060020a027bffffffffffffffffffffffffffffffffffffffffffffffffffffffff19168a600160a060020a031663150b7a0233898d8d6040518563ffffffff1660e060020a0281526004018085600160a060020a0316600160a060020a0316815260200184600160a060020a0316600160a060020a0316815260200183815260200180602001828103825283818151815260200191508051906020019080838360005b8381101561325a578181015183820152602001613242565b50505050905090810190601f1680156132875780820380516001836020036101000a031916815260200191505b5095505050505050602060405180830381600087803b1580156132a957600080fd5b505af11580156132bd573d6000803e3d6000fd5b505050506040513d60208110156132d357600080fd5b5051600160e060020a031916146132e957600080fd5b5050505050505050505050565b60006f8000000000000000000000000000000082161561332a57506fffffffffffffffffffffffffffffffff198117610c1b565b5090565b81600160a060020a03166133418261238a565b600160a060020a031614801561336d57506000818152600c6020526040902054600160a060020a031615155b15611c40576000818152600c60205260408082208054600160a060020a031916905551829190600160a060020a038516907f8c5be1e5ebec7d5bd14f71427d1e84f3dd0314c0f7b2291e5b200ac8c7c3b925908390a45050565b60008181526009602052604081205490806133f260016133e687612a41565b9063ffffffff61354816565b600160a060020a03861660009081526007602052604090208054919350908390811061341a57fe5b60009182526020808320909101548683526008825260408084208054600160a060020a0319169055600160a060020a038916845260079092529120805491925082918590811061346657fe5b6000918252602080832090910192909255600160a060020a038716815260079091526040812080548490811061349857fe5b6000918252602080832090910192909255600160a060020a03871681526007909152604090208054906134cf9060001983016135d4565b50600160a060020a038516600090815260076020526040902054151561351057600160a060020a0385166000908152600760205260408120613510916135f8565b600084815260096020526040808220829055828252902083905560065461353e90600163ffffffff61354816565b6006555050505050565b60008282111561355457fe5b50900390565b828054600181600116156101000203166002900490600052602060002090601f016020900481019282601f1061359b57805160ff19168380011785556135c8565b828001600101855582156135c8579182015b828111156135c85782518255916020019190600101906135ad565b5061332a929150613619565b815481835581811115610d9757600083815260209020610d97918101908301613619565b50805460008255906000526020600020908101906136169190613619565b50565b610cc391905b8082111561332a576000815560010161361f560054686520636f6f7264696e617465732073686f756c642068617665207468652073616d65206c656e677468000000000000000000000000000000000000000000546869732066756e6374696f6e2063616e206f6e6c792062652063616c6c6564596f752073686f756c6420737570706c79206174206c65617374206f6e6520636f6f7264696e6174650000000000000000000000000000000000000000000000a165627a7a72305820360b48c58924b0543ecf5957037ec4abfc684600f55a1bb1ce6d18fae99531dc0029",
  "source": "pragma solidity ^0.4.23;\n\nimport \"../Storage.sol\";\n\nimport \"../upgradable/Ownable.sol\";\n\nimport \"../upgradable/IApplication.sol\";\n\nimport \"erc821/contracts/FullAssetRegistry.sol\";\n\nimport \"../land/ILANDRegistry.sol\";\n\nimport \"../metadata/IMetadataHolder.sol\";\n\nimport \"../estate/IEstateRegistry.sol\";\n\n\n/* solium-disable function-order */\ncontract LANDRegistry is Storage, Ownable, FullAssetRegistry, ILANDRegistry {\n  bytes4 constant public GET_METADATA = bytes4(keccak256(\"getMetadata(uint256)\"));\n\n  function initialize(bytes) external {\n    _name = \"Decentraland LAND\";\n    _symbol = \"LAND\";\n    _description = \"Contract that stores the Decentraland LAND registry\";\n  }\n\n  modifier onlyProxyOwner() {\n    require(msg.sender == proxyOwner, \"This function can only be called by the proxy owner\");\n    _;\n  }\n\n  modifier onlyDeployer() {\n    require(msg.sender == proxyOwner || authorizedDeploy[msg.sender], \"This function can only be called by an authorized deployer\");\n    _;\n  }\n\n  modifier onlyOwnerOf(uint256 assetId) {\n    require(\n      msg.sender == _ownerOf(assetId),\n      \"This function can only be called by the owner of the asset\"\n    );\n    _;\n  }\n\n  modifier onlyUpdateAuthorized(uint256 tokenId) {\n    require(\n      msg.sender == _ownerOf(tokenId) ||\n      _isAuthorized(msg.sender, tokenId) ||\n      _isUpdateAuthorized(msg.sender, tokenId),\n      \"msg.sender is not authorized to update\"\n    );\n    _;\n  }\n\n  //\n  // Authorization\n  //\n\n  function isUpdateAuthorized(address operator, uint256 assetId) external view returns (bool) {\n    return _isUpdateAuthorized(operator, assetId);\n  }\n\n  function _isUpdateAuthorized(address operator, uint256 assetId) internal view returns (bool) {\n    return operator == _ownerOf(assetId) || updateOperator[assetId] == operator;\n  }\n\n  function authorizeDeploy(address beneficiary) external onlyProxyOwner {\n    require(beneficiary != address(0), \"invalid address\");\n    require(authorizedDeploy[beneficiary] == false, \"address is already authorized\");\n\n    authorizedDeploy[beneficiary] = true;\n    emit DeployAuthorized(msg.sender, beneficiary);\n  }\n\n  function forbidDeploy(address beneficiary) external onlyProxyOwner {\n    require(beneficiary != address(0), \"invalid address\");\n    require(authorizedDeploy[beneficiary], \"address is already forbidden\");\n\n    authorizedDeploy[beneficiary] = false;\n    emit DeployForbidden(msg.sender, beneficiary);\n  }\n\n  //\n  // LAND Create\n  //\n\n  function assignNewParcel(int x, int y, address beneficiary) external onlyDeployer {\n    _generate(_encodeTokenId(x, y), beneficiary);\n  }\n\n  function assignMultipleParcels(int[] x, int[] y, address beneficiary) external onlyDeployer {\n    for (uint i = 0; i < x.length; i++) {\n      _generate(_encodeTokenId(x[i], y[i]), beneficiary);\n    }\n  }\n\n  //\n  // Inactive keys after 1 year lose ownership\n  //\n\n  function ping() external {\n    // solium-disable-next-line security/no-block-members\n    latestPing[msg.sender] = block.timestamp;\n  }\n\n  function setLatestToNow(address user) external {\n    require(msg.sender == proxyOwner || _isApprovedForAll(msg.sender, user), \"Unauthorized user\");\n    // solium-disable-next-line security/no-block-members\n    latestPing[user] = block.timestamp;\n  }\n\n  //\n  // LAND Getters\n  //\n\n  function encodeTokenId(int x, int y) external pure returns (uint) {\n    return _encodeTokenId(x, y);\n  }\n\n  function _encodeTokenId(int x, int y) internal pure returns (uint result) {\n    require(\n      -1000000 < x && x < 1000000 && -1000000 < y && y < 1000000,\n      \"The coordinates should be inside bounds\"\n    );\n    return _unsafeEncodeTokenId(x, y);\n  }\n\n  function _unsafeEncodeTokenId(int x, int y) internal pure returns (uint) {\n    return ((uint(x) * factor) & clearLow) | (uint(y) & clearHigh);\n  }\n\n  function decodeTokenId(uint value) external pure returns (int, int) {\n    return _decodeTokenId(value);\n  }\n\n  function _unsafeDecodeTokenId(uint value) internal pure returns (int x, int y) {\n    x = expandNegative128BitCast((value & clearLow) >> 128);\n    y = expandNegative128BitCast(value & clearHigh);\n  }\n\n  function _decodeTokenId(uint value) internal pure returns (int x, int y) {\n    (x, y) = _unsafeDecodeTokenId(value);\n    require(\n      -1000000 < x && x < 1000000 && -1000000 < y && y < 1000000,\n      \"The coordinates should be inside bounds\"\n    );\n  }\n\n  function expandNegative128BitCast(uint value) internal pure returns (int) {\n    if (value & (1<<127) != 0) {\n      return int(value | clearLow);\n    }\n    return int(value);\n  }\n\n  function exists(int x, int y) external view returns (bool) {\n    return _exists(x, y);\n  }\n\n  function _exists(int x, int y) internal view returns (bool) {\n    return _exists(_encodeTokenId(x, y));\n  }\n\n  function ownerOfLand(int x, int y) external view returns (address) {\n    return _ownerOfLand(x, y);\n  }\n\n  function _ownerOfLand(int x, int y) internal view returns (address) {\n    return _ownerOf(_encodeTokenId(x, y));\n  }\n\n  function ownerOfLandMany(int[] x, int[] y) external view returns (address[]) {\n    require(x.length > 0, \"You should supply at least one coordinate\");\n    require(x.length == y.length, \"The coordinates should have the same length\");\n\n    address[] memory addrs = new address[](x.length);\n    for (uint i = 0; i < x.length; i++) {\n      addrs[i] = _ownerOfLand(x[i], y[i]);\n    }\n\n    return addrs;\n  }\n\n  function landOf(address owner) external view returns (int[], int[]) {\n    uint256 len = _assetsOf[owner].length;\n    int[] memory x = new int[](len);\n    int[] memory y = new int[](len);\n\n    int assetX;\n    int assetY;\n    for (uint i = 0; i < len; i++) {\n      (assetX, assetY) = _decodeTokenId(_assetsOf[owner][i]);\n      x[i] = assetX;\n      y[i] = assetY;\n    }\n\n    return (x, y);\n  }\n\n  function tokenMetadata(uint256 assetId) external view returns (string) {\n    return _tokenMetadata(assetId);\n  }\n\n  function _tokenMetadata(uint256 assetId) internal view returns (string) {\n    address _owner = _ownerOf(assetId);\n    if (_isContract(_owner) && _owner != address(estateRegistry)) {\n      if ((ERC165(_owner)).supportsInterface(GET_METADATA)) {\n        return IMetadataHolder(_owner).getMetadata(assetId);\n      }\n    }\n    return _assetData[assetId];\n  }\n\n  function landData(int x, int y) external view returns (string) {\n    return _tokenMetadata(_encodeTokenId(x, y));\n  }\n\n  //\n  // LAND Transfer\n  //\n\n  function transferFrom(address from, address to, uint256 assetId) external {\n    require(to != address(estateRegistry), \"EstateRegistry unsafe transfers are not allowed\");\n    return _doTransferFrom(\n      from,\n      to,\n      assetId,\n      \"\",\n      false\n    );\n  }\n\n  function transferLand(int x, int y, address to) external {\n    uint256 tokenId = _encodeTokenId(x, y);\n    _doTransferFrom(\n      _ownerOf(tokenId),\n      to,\n      tokenId,\n      \"\",\n      true\n    );\n  }\n\n  function transferManyLand(int[] x, int[] y, address to) external {\n    require(x.length > 0, \"You should supply at least one coordinate\");\n    require(x.length == y.length, \"The coordinates should have the same length\");\n\n    for (uint i = 0; i < x.length; i++) {\n      uint256 tokenId = _encodeTokenId(x[i], y[i]);\n      _doTransferFrom(\n        _ownerOf(tokenId),\n        to,\n        tokenId,\n        \"\",\n        true\n      );\n    }\n  }\n\n  function transferLandToEstate(int x, int y, uint256 estateId) external {\n    require(\n      estateRegistry.ownerOf(estateId) == msg.sender,\n      \"You must own the Estate you want to transfer to\"\n    );\n\n    uint256 tokenId = _encodeTokenId(x, y);\n    _doTransferFrom(\n      _ownerOf(tokenId),\n      address(estateRegistry),\n      tokenId,\n      toBytes(estateId),\n      true\n    );\n  }\n\n  function transferManyLandToEstate(int[] x, int[] y, uint256 estateId) external {\n    require(x.length > 0, \"You should supply at least one coordinate\");\n    require(x.length == y.length, \"The coordinates should have the same length\");\n    require(\n      estateRegistry.ownerOf(estateId) == msg.sender,\n      \"You must own the Estate you want to transfer to\"\n    );\n\n    for (uint i = 0; i < x.length; i++) {\n      uint256 tokenId = _encodeTokenId(x[i], y[i]);\n      _doTransferFrom(\n        _ownerOf(tokenId),\n        address(estateRegistry),\n        tokenId,\n        toBytes(estateId),\n        true\n      );\n    }\n  }\n\n  function setUpdateOperator(uint256 assetId, address operator) external onlyAuthorized(assetId) {\n    updateOperator[assetId] = operator;\n    emit UpdateOperator(assetId, operator);\n  }\n\n  //\n  // Estate generation\n  //\n\n  event EstateRegistrySet(address indexed registry);\n\n  function setEstateRegistry(address registry) external onlyProxyOwner {\n    estateRegistry = IEstateRegistry(registry);\n    emit EstateRegistrySet(registry);\n  }\n\n  function createEstate(int[] x, int[] y, address beneficiary) external returns (uint256) {\n    // solium-disable-next-line arg-overflow\n    return _createEstate(x, y, beneficiary, \"\");\n  }\n\n  function createEstateWithMetadata(\n    int[] x,\n    int[] y,\n    address beneficiary,\n    string metadata\n  )\n    external\n    returns (uint256)\n  {\n    // solium-disable-next-line arg-overflow\n    return _createEstate(x, y, beneficiary, metadata);\n  }\n\n  function _createEstate(\n    int[] x,\n    int[] y,\n    address beneficiary,\n    string metadata\n  )\n    internal\n    returns (uint256)\n  {\n    require(x.length > 0, \"You should supply at least one coordinate\");\n    require(x.length == y.length, \"The coordinates should have the same length\");\n    require(address(estateRegistry) != 0, \"The Estate registry should be set\");\n\n    uint256 estateTokenId = estateRegistry.mint(beneficiary, metadata);\n    bytes memory estateTokenIdBytes = toBytes(estateTokenId);\n\n    for (uint i = 0; i < x.length; i++) {\n      uint256 tokenId = _encodeTokenId(x[i], y[i]);\n      _doTransferFrom(\n        _ownerOf(tokenId),\n        address(estateRegistry),\n        tokenId,\n        estateTokenIdBytes,\n        true\n      );\n    }\n\n    return estateTokenId;\n  }\n\n  function toBytes(uint256 x) internal pure returns (bytes b) {\n    b = new bytes(32);\n    // solium-disable-next-line security/no-inline-assembly\n    assembly { mstore(add(b, 32), x) }\n  }\n\n  //\n  // LAND Update\n  //\n\n  function updateLandData(\n    int x,\n    int y,\n    string data\n  )\n    external\n  {\n    return _updateLandData(x, y, data);\n  }\n\n  function _updateLandData(\n    int x,\n    int y,\n    string data\n  )\n    internal\n    onlyUpdateAuthorized(_encodeTokenId(x, y))\n  {\n    uint256 assetId = _encodeTokenId(x, y);\n    address owner = _holderOf[assetId];\n\n    _update(assetId, data);\n\n    emit Update(\n      assetId,\n      owner,\n      msg.sender,\n      data\n    );\n  }\n\n  function updateManyLandData(int[] x, int[] y, string data) external {\n    require(x.length > 0, \"You should supply at least one coordinate\");\n    require(x.length == y.length, \"The coordinates should have the same length\");\n    for (uint i = 0; i < x.length; i++) {\n      _updateLandData(x[i], y[i], data);\n    }\n  }\n\n  function _doTransferFrom(\n    address from,\n    address to,\n    uint256 assetId,\n    bytes userData,\n    bool doCheck\n  )\n    internal\n  {\n    updateOperator[assetId] = address(0);\n\n    super._doTransferFrom(\n      from,\n      to,\n      assetId,\n      userData,\n      doCheck\n    );\n  }\n\n  function _isContract(address addr) internal view returns (bool) {\n    uint size;\n    // solium-disable-next-line security/no-inline-assembly\n    assembly { size := extcodesize(addr) }\n    return size > 0;\n  }\n}\n",
  "sourcePath": "/Users/jules/WebstormProjects/RobInTheHood/chain/landSC/contracts/land/LANDRegistry.sol",
  "compiler": {
    "name": "solc",
    "version": "0.4.25+commit.59dbf8f1.Emscripten.clang"
  },
  "schemaVersion": "3.0.1",
  "updatedAt": "2019-04-28T17:37:49.163Z",
  "devdoc": {
    "methods": {
      "approve(address,uint256)": {
        "details": "Authorize a third party operator to manage one particular asset",
        "params": {
          "assetId": "asset to approve",
          "operator": "address to be approved"
        }
      },
      "balanceOf(address)": {
        "details": "Gets the balance of the specified address",
        "params": {
          "owner": "address to query the balance of"
        },
        "return": "uint256 representing the amount owned by the passed address"
      },
      "exists(uint256)": {
        "details": "Method to check if an asset identified by the given id exists under this DAR.",
        "return": "uint256 the assetId"
      },
      "getApproved(uint256)": {
        "details": "Query what address has been particularly authorized to move an asset",
        "params": {
          "assetId": "the asset to be queried for"
        },
        "return": "bool true if the asset has been approved by the holder"
      },
      "isApprovedForAll(address,address)": {
        "details": "Query whether an address has been authorized to move any assets on behalf of someone else",
        "params": {
          "assetHolder": "the address that provided the authorization",
          "operator": "the address that might be authorized"
        },
        "return": "bool true if the operator has been authorized to move any assets"
      },
      "isAuthorized(address,uint256)": {
        "details": "Query if an operator can move an asset.",
        "params": {
          "assetId": "the asset that has been `approved` for transfer",
          "operator": "the address that might be authorized"
        },
        "return": "bool true if the asset has been approved by the holder"
      },
      "ownerOf(uint256)": {
        "details": "Queries what address owns an asset. This method does not throw. In order to check if the asset exists, use the `exists` function or check if the return value of this call is `0`.",
        "return": "uint256 the assetId"
      },
      "safeTransferFrom(address,address,uint256)": {
        "details": "Alias of `safeTransferFrom(from, to, assetId, '')`",
        "params": {
          "assetId": "uint256 ID of the asset to be transferred",
          "from": "address that currently owns an asset",
          "to": "address to receive the ownership of the asset"
        }
      },
      "safeTransferFrom(address,address,uint256,bytes)": {
        "details": "Securely transfers the ownership of a given asset from one address to another address, calling the method `onNFTReceived` on the target address if there's code associated with it",
        "params": {
          "assetId": "uint256 ID of the asset to be transferred",
          "from": "address that currently owns an asset",
          "to": "address to receive the ownership of the asset",
          "userData": "bytes arbitrary user information to attach to this transfer"
        }
      },
      "setApprovalForAll(address,bool)": {
        "details": "Authorize a third party operator to manage (send) msg.sender's asset",
        "params": {
          "authorized": "bool set to true to authorize, false to withdraw authorization",
          "operator": "address to be approved"
        }
      },
      "supportsInterface(bytes4)": {
        "details": "Returns `true` if the contract implements `interfaceID` and `interfaceID` is not 0xffffffff, `false` otherwise",
        "params": {
          "_interfaceID": "The interface identifier, as specified in ERC-165"
        }
      },
      "tokenOfOwnerByIndex(address,uint256)": {
        "details": "Throws if `index` >= `balanceOf(owner)` or if `owner` is the zero address, representing invalid assets. Otherwise this must not throw.",
        "params": {
          "index": "A counter less than `balanceOf(owner)`",
          "owner": "An address where we are interested in assets owned by them"
        },
        "return": "The identifier for the `index`th asset assigned to `owner`,  (sort order not specified)"
      },
      "tokensOf(address)": {
        "details": "This is not intended to be used on-chain",
        "params": {
          "owner": "address of the owner to query"
        },
        "return": "a list of all assetIds of a user"
      },
      "totalSupply()": {
        "details": "Gets the total amount of assets stored by the contract",
        "return": "uint256 representing the total amount of assets"
      }
    }
  },
  "userdoc": {
    "methods": {
      "tokenOfOwnerByIndex(address,uint256)": {
        "notice": "Enumerate tokens assigned to an owner"
      },
      "tokensOf(address)": {
        "notice": "Get all tokens of a given address"
      }
    }
  }
}